{"abi":[{"type":"constructor","inputs":[{"name":"initialOwner","type":"address","internalType":"address"},{"name":"usdc_","type":"address","internalType":"address"},{"name":"usyc_","type":"address","internalType":"address"},{"name":"teller_","type":"address","internalType":"address"}],"stateMutability":"nonpayable"},{"type":"function","name":"operators","inputs":[{"name":"","type":"address","internalType":"address"}],"outputs":[{"name":"","type":"bool","internalType":"bool"}],"stateMutability":"view"},{"type":"function","name":"owner","inputs":[],"outputs":[{"name":"","type":"address","internalType":"address"}],"stateMutability":"view"},{"type":"function","name":"renounceOwnership","inputs":[],"outputs":[],"stateMutability":"nonpayable"},{"type":"function","name":"rescueToken","inputs":[{"name":"token","type":"address","internalType":"address"},{"name":"to","type":"address","internalType":"address"},{"name":"amount","type":"uint256","internalType":"uint256"}],"outputs":[],"stateMutability":"nonpayable"},{"type":"function","name":"setOperator","inputs":[{"name":"operator","type":"address","internalType":"address"},{"name":"allowed","type":"bool","internalType":"bool"}],"outputs":[],"stateMutability":"nonpayable"},{"type":"function","name":"setTeller","inputs":[{"name":"teller_","type":"address","internalType":"address"}],"outputs":[],"stateMutability":"nonpayable"},{"type":"function","name":"teller","inputs":[],"outputs":[{"name":"","type":"address","internalType":"contract ITeller"}],"stateMutability":"view"},{"type":"function","name":"transferOwnership","inputs":[{"name":"newOwner","type":"address","internalType":"address"}],"outputs":[],"stateMutability":"nonpayable"},{"type":"function","name":"usdc","inputs":[],"outputs":[{"name":"","type":"address","internalType":"contract IERC20"}],"stateMutability":"view"},{"type":"function","name":"usdcToUsyc","inputs":[{"name":"amount","type":"uint256","internalType":"uint256"},{"name":"receiver","type":"address","internalType":"address"}],"outputs":[{"name":"usycPurchased","type":"uint256","internalType":"uint256"}],"stateMutability":"nonpayable"},{"type":"function","name":"usyc","inputs":[],"outputs":[{"name":"","type":"address","internalType":"contract IERC20"}],"stateMutability":"view"},{"type":"function","name":"usycToUsdc","inputs":[{"name":"shares","type":"uint256","internalType":"uint256"},{"name":"receiver","type":"address","internalType":"address"}],"outputs":[{"name":"usdcPayout","type":"uint256","internalType":"uint256"}],"stateMutability":"nonpayable"},{"type":"event","name":"OperatorSet","inputs":[{"name":"operator","type":"address","indexed":true,"internalType":"address"},{"name":"allowed","type":"bool","indexed":false,"internalType":"bool"}],"anonymous":false},{"type":"event","name":"OwnershipTransferred","inputs":[{"name":"previousOwner","type":"address","indexed":true,"internalType":"address"},{"name":"newOwner","type":"address","indexed":true,"internalType":"address"}],"anonymous":false},{"type":"event","name":"TellerSet","inputs":[{"name":"teller","type":"address","indexed":true,"internalType":"address"}],"anonymous":false},{"type":"event","name":"UsdcToUsyc","inputs":[{"name":"caller","type":"address","indexed":true,"internalType":"address"},{"name":"usdcAmount","type":"uint256","indexed":false,"internalType":"uint256"},{"name":"usycAmount","type":"uint256","indexed":false,"internalType":"uint256"},{"name":"receiver","type":"address","indexed":true,"internalType":"address"}],"anonymous":false},{"type":"event","name":"UsycToUsdc","inputs":[{"name":"caller","type":"address","indexed":true,"internalType":"address"},{"name":"usycAmount","type":"uint256","indexed":false,"internalType":"uint256"},{"name":"usdcAmount","type":"uint256","indexed":false,"internalType":"uint256"},{"name":"receiver","type":"address","indexed":true,"internalType":"address"}],"anonymous":false},{"type":"error","name":"OwnableInvalidOwner","inputs":[{"name":"owner","type":"address","internalType":"address"}]},{"type":"error","name":"OwnableUnauthorizedAccount","inputs":[{"name":"account","type":"address","internalType":"address"}]},{"type":"error","name":"SafeERC20FailedOperation","inputs":[{"name":"token","type":"address","internalType":"address"}]},{"type":"error","name":"UnauthorizedOperator","inputs":[]},{"type":"error","name":"ZeroAddress","inputs":[]}],"bytecode":{"object":"0x60c060405234801561000f575f5ffd5b506040516116cf3803806116cf8339818101604052810190610031919061038a565b835f73ffffffffffffffffffffffffffffffffffffffff168173ffffffffffffffffffffffffffffffffffffffff16036100a2575f6040517f1e4fbdf700000000000000000000000000000000000000000000000000000000815260040161009991906103fd565b60405180910390fd5b6100b18161026b60201b60201c565b505f73ffffffffffffffffffffffffffffffffffffffff168473ffffffffffffffffffffffffffffffffffffffff16148061011757505f73ffffffffffffffffffffffffffffffffffffffff168373ffffffffffffffffffffffffffffffffffffffff16145b8061014d57505f73ffffffffffffffffffffffffffffffffffffffff168273ffffffffffffffffffffffffffffffffffffffff16145b8061018357505f73ffffffffffffffffffffffffffffffffffffffff168173ffffffffffffffffffffffffffffffffffffffff16145b156101ba576040517fd92e233d00000000000000000000000000000000000000000000000000000000815260040160405180910390fd5b8273ffffffffffffffffffffffffffffffffffffffff1660808173ffffffffffffffffffffffffffffffffffffffff16815250508173ffffffffffffffffffffffffffffffffffffffff1660a08173ffffffffffffffffffffffffffffffffffffffff16815250508060015f6101000a81548173ffffffffffffffffffffffffffffffffffffffff021916908373ffffffffffffffffffffffffffffffffffffffff16021790555050505050610416565b5f5f5f9054906101000a900473ffffffffffffffffffffffffffffffffffffffff169050815f5f6101000a81548173ffffffffffffffffffffffffffffffffffffffff021916908373ffffffffffffffffffffffffffffffffffffffff1602179055508173ffffffffffffffffffffffffffffffffffffffff168173ffffffffffffffffffffffffffffffffffffffff167f8be0079c531659141344cd1fd0a4f28419497f9722a3daafe3b4186f6b6457e060405160405180910390a35050565b5f5ffd5b5f73ffffffffffffffffffffffffffffffffffffffff82169050919050565b5f61035982610330565b9050919050565b6103698161034f565b8114610373575f5ffd5b50565b5f8151905061038481610360565b92915050565b5f5f5f5f608085870312156103a2576103a161032c565b5b5f6103af87828801610376565b94505060206103c087828801610376565b93505060406103d187828801610376565b92505060606103e287828801610376565b91505092959194509250565b6103f78161034f565b82525050565b5f6020820190506104105f8301846103ee565b92915050565b60805160a05161128a6104455f395f81816106060152610a1e01525f818161034a01526108cd015261128a5ff3fe608060405234801561000f575f5ffd5b50600436106100b2575f3560e01c8063838314131161006f57806383831413146101645780638da5cb5b14610194578063a2f315f3146101b2578063c166beb6146101e2578063e5711e8b14610200578063f2fde38b1461021c576100b2565b806313e7c9d8146100b657806333ff7722146100e65780633e413bee14610102578063558a72971461012057806357edab4e1461013c578063715018a61461015a575b5f5ffd5b6100d060048036038101906100cb9190610f0e565b610238565b6040516100dd9190610f53565b60405180910390f35b61010060048036038101906100fb9190610f0e565b610255565b005b61010a610348565b6040516101179190610fc7565b60405180910390f35b61013a6004803603810190610135919061100a565b61036c565b005b61014461047f565b6040516101519190611068565b60405180910390f35b6101626104a4565b005b61017e600480360381019061017991906110b4565b6104b7565b60405161018b9190611101565b60405180910390f35b61019c610757565b6040516101a99190611129565b60405180910390f35b6101cc60048036038101906101c791906110b4565b61077e565b6040516101d99190611101565b60405180910390f35b6101ea610a1c565b6040516101f79190610fc7565b60405180910390f35b61021a60048036038101906102159190611142565b610a40565b005b61023660048036038101906102319190610f0e565b610b14565b005b6002602052805f5260405f205f915054906101000a900460ff1681565b61025d610b98565b5f73ffffffffffffffffffffffffffffffffffffffff168173ffffffffffffffffffffffffffffffffffffffff16036102c2576040517fd92e233d00000000000000000000000000000000000000000000000000000000815260040160405180910390fd5b8060015f6101000a81548173ffffffffffffffffffffffffffffffffffffffff021916908373ffffffffffffffffffffffffffffffffffffffff1602179055508073ffffffffffffffffffffffffffffffffffffffff167fc54d5da608d36e4133d6d8602fbbc43834a9436fb6a3889fa31fce46ae4ca94d60405160405180910390a250565b7f000000000000000000000000000000000000000000000000000000000000000081565b610374610b98565b5f73ffffffffffffffffffffffffffffffffffffffff168273ffffffffffffffffffffffffffffffffffffffff16036103d9576040517fd92e233d00000000000000000000000000000000000000000000000000000000815260040160405180910390fd5b8060025f8473ffffffffffffffffffffffffffffffffffffffff1673ffffffffffffffffffffffffffffffffffffffff1681526020019081526020015f205f6101000a81548160ff0219169083151502179055508173ffffffffffffffffffffffffffffffffffffffff167f1a594081ae893ab78e67d9b9e843547318164322d32c65369d78a96172d9dc8f826040516104739190610f53565b60405180910390a25050565b60015f9054906101000a900473ffffffffffffffffffffffffffffffffffffffff1681565b6104ac610b98565b6104b55f610c1f565b565b5f6104c0610757565b73ffffffffffffffffffffffffffffffffffffffff163373ffffffffffffffffffffffffffffffffffffffff1614158015610542575060025f3373ffffffffffffffffffffffffffffffffffffffff1673ffffffffffffffffffffffffffffffffffffffff1681526020019081526020015f205f9054906101000a900460ff16155b15610579576040517f4d739bfe00000000000000000000000000000000000000000000000000000000815260040160405180910390fd5b5f73ffffffffffffffffffffffffffffffffffffffff168273ffffffffffffffffffffffffffffffffffffffff16036105de576040517fd92e233d00000000000000000000000000000000000000000000000000000000815260040160405180910390fd5b61064a60015f9054906101000a900473ffffffffffffffffffffffffffffffffffffffff16847f000000000000000000000000000000000000000000000000000000000000000073ffffffffffffffffffffffffffffffffffffffff16610ce09092919063ffffffff16565b60015f9054906101000a900473ffffffffffffffffffffffffffffffffffffffff1673ffffffffffffffffffffffffffffffffffffffff1663ba0876528484306040518463ffffffff1660e01b81526004016106a893929190611192565b6020604051808303815f875af11580156106c4573d5f5f3e3d5ffd5b505050506040513d601f19601f820116820180604052508101906106e891906111db565b90508173ffffffffffffffffffffffffffffffffffffffff163373ffffffffffffffffffffffffffffffffffffffff167fa224ade951d781c3d53739502d90f403cd78dedd38aa8247376454ba1bb1e3ba8584604051610749929190611206565b60405180910390a392915050565b5f5f5f9054906101000a900473ffffffffffffffffffffffffffffffffffffffff16905090565b5f610787610757565b73ffffffffffffffffffffffffffffffffffffffff163373ffffffffffffffffffffffffffffffffffffffff1614158015610809575060025f3373ffffffffffffffffffffffffffffffffffffffff1673ffffffffffffffffffffffffffffffffffffffff1681526020019081526020015f205f9054906101000a900460ff16155b15610840576040517f4d739bfe00000000000000000000000000000000000000000000000000000000815260040160405180910390fd5b5f73ffffffffffffffffffffffffffffffffffffffff168273ffffffffffffffffffffffffffffffffffffffff16036108a5576040517fd92e233d00000000000000000000000000000000000000000000000000000000815260040160405180910390fd5b61091160015f9054906101000a900473ffffffffffffffffffffffffffffffffffffffff16847f000000000000000000000000000000000000000000000000000000000000000073ffffffffffffffffffffffffffffffffffffffff16610ce09092919063ffffffff16565b60015f9054906101000a900473ffffffffffffffffffffffffffffffffffffffff1673ffffffffffffffffffffffffffffffffffffffff16636e553f6584846040518363ffffffff1660e01b815260040161096d92919061122d565b6020604051808303815f875af1158015610989573d5f5f3e3d5ffd5b505050506040513d601f19601f820116820180604052508101906109ad91906111db565b90508173ffffffffffffffffffffffffffffffffffffffff163373ffffffffffffffffffffffffffffffffffffffff167f8d54047db751b4bcf7146904ee2879ece20fc63d09d4d9fdd9b944719cd4a7df8584604051610a0e929190611206565b60405180910390a392915050565b7f000000000000000000000000000000000000000000000000000000000000000081565b610a48610b98565b5f73ffffffffffffffffffffffffffffffffffffffff168373ffffffffffffffffffffffffffffffffffffffff161480610aad57505f73ffffffffffffffffffffffffffffffffffffffff168273ffffffffffffffffffffffffffffffffffffffff16145b15610ae4576040517fd92e233d00000000000000000000000000000000000000000000000000000000815260040160405180910390fd5b610b0f82828573ffffffffffffffffffffffffffffffffffffffff16610d929092919063ffffffff16565b505050565b610b1c610b98565b5f73ffffffffffffffffffffffffffffffffffffffff168173ffffffffffffffffffffffffffffffffffffffff1603610b8c575f6040517f1e4fbdf7000000000000000000000000000000000000000000000000000000008152600401610b839190611129565b60405180910390fd5b610b9581610c1f565b50565b610ba0610de5565b73ffffffffffffffffffffffffffffffffffffffff16610bbe610757565b73ffffffffffffffffffffffffffffffffffffffff1614610c1d57610be1610de5565b6040517f118cdaa7000000000000000000000000000000000000000000000000000000008152600401610c149190611129565b60405180910390fd5b565b5f5f5f9054906101000a900473ffffffffffffffffffffffffffffffffffffffff169050815f5f6101000a81548173ffffffffffffffffffffffffffffffffffffffff021916908373ffffffffffffffffffffffffffffffffffffffff1602179055508173ffffffffffffffffffffffffffffffffffffffff168173ffffffffffffffffffffffffffffffffffffffff167f8be0079c531659141344cd1fd0a4f28419497f9722a3daafe3b4186f6b6457e060405160405180910390a35050565b610cec8383835f610dec565b610d8d57610cfd83835f6001610dec565b610d3e57826040517f5274afe7000000000000000000000000000000000000000000000000000000008152600401610d359190611129565b60405180910390fd5b610d4b8383836001610dec565b610d8c57826040517f5274afe7000000000000000000000000000000000000000000000000000000008152600401610d839190611129565b60405180910390fd5b5b505050565b610d9f8383836001610e4e565b610de057826040517f5274afe7000000000000000000000000000000000000000000000000000000008152600401610dd79190611129565b60405180910390fd5b505050565b5f33905090565b5f5f63095ea7b360e01b9050604051815f525f1960601c86166004528460245260205f60445f5f8b5af1925060015f51148316610e40578383151615610e34573d5f823e3d81fd5b5f873b113d1516831692505b806040525050949350505050565b5f5f63a9059cbb60e01b9050604051815f525f1960601c86166004528460245260205f60445f5f8b5af1925060015f51148316610ea2578383151615610e96573d5f823e3d81fd5b5f873b113d1516831692505b806040525050949350505050565b5f5ffd5b5f73ffffffffffffffffffffffffffffffffffffffff82169050919050565b5f610edd82610eb4565b9050919050565b610eed81610ed3565b8114610ef7575f5ffd5b50565b5f81359050610f0881610ee4565b92915050565b5f60208284031215610f2357610f22610eb0565b5b5f610f3084828501610efa565b91505092915050565b5f8115159050919050565b610f4d81610f39565b82525050565b5f602082019050610f665f830184610f44565b92915050565b5f819050919050565b5f610f8f610f8a610f8584610eb4565b610f6c565b610eb4565b9050919050565b5f610fa082610f75565b9050919050565b5f610fb182610f96565b9050919050565b610fc181610fa7565b82525050565b5f602082019050610fda5f830184610fb8565b92915050565b610fe981610f39565b8114610ff3575f5ffd5b50565b5f8135905061100481610fe0565b92915050565b5f5f604083850312156110205761101f610eb0565b5b5f61102d85828601610efa565b925050602061103e85828601610ff6565b9150509250929050565b5f61105282610f96565b9050919050565b61106281611048565b82525050565b5f60208201905061107b5f830184611059565b92915050565b5f819050919050565b61109381611081565b811461109d575f5ffd5b50565b5f813590506110ae8161108a565b92915050565b5f5f604083850312156110ca576110c9610eb0565b5b5f6110d7858286016110a0565b92505060206110e885828601610efa565b9150509250929050565b6110fb81611081565b82525050565b5f6020820190506111145f8301846110f2565b92915050565b61112381610ed3565b82525050565b5f60208201905061113c5f83018461111a565b92915050565b5f5f5f6060848603121561115957611158610eb0565b5b5f61116686828701610efa565b935050602061117786828701610efa565b9250506040611188868287016110a0565b9150509250925092565b5f6060820190506111a55f8301866110f2565b6111b2602083018561111a565b6111bf604083018461111a565b949350505050565b5f815190506111d58161108a565b92915050565b5f602082840312156111f0576111ef610eb0565b5b5f6111fd848285016111c7565b91505092915050565b5f6040820190506112195f8301856110f2565b61122660208301846110f2565b9392505050565b5f6040820190506112405f8301856110f2565b61124d602083018461111a565b939250505056fea264697066735822122086181498f6d22826d2533298290c8c2a626ac25a6ade2b53e52dcc8d29a3086564736f6c634300081e0033","linkReferences":{}},"methodIdentifiers":{"operators(address)":"13e7c9d8","owner()":"8da5cb5b","renounceOwnership()":"715018a6","rescueToken(address,address,uint256)":"e5711e8b","setOperator(address,bool)":"558a7297","setTeller(address)":"33ff7722","teller()":"57edab4e","transferOwnership(address)":"f2fde38b","usdc()":"3e413bee","usdcToUsyc(uint256,address)":"a2f315f3","usyc()":"c166beb6","usycToUsdc(uint256,address)":"83831413"},"id":32}