{"abi":[{"type":"constructor","inputs":[{"name":"initialOwner","type":"address","internalType":"address"},{"name":"usdc_","type":"address","internalType":"address"},{"name":"usyc_","type":"address","internalType":"address"},{"name":"teller_","type":"address","internalType":"address"}],"stateMutability":"nonpayable"},{"type":"function","name":"operators","inputs":[{"name":"","type":"address","internalType":"address"}],"outputs":[{"name":"","type":"bool","internalType":"bool"}],"stateMutability":"view"},{"type":"function","name":"owner","inputs":[],"outputs":[{"name":"","type":"address","internalType":"address"}],"stateMutability":"view"},{"type":"function","name":"renounceOwnership","inputs":[],"outputs":[],"stateMutability":"nonpayable"},{"type":"function","name":"rescueToken","inputs":[{"name":"token","type":"address","internalType":"address"},{"name":"to","type":"address","internalType":"address"},{"name":"amount","type":"uint256","internalType":"uint256"}],"outputs":[],"stateMutability":"nonpayable"},{"type":"function","name":"setOperator","inputs":[{"name":"operator","type":"address","internalType":"address"},{"name":"allowed","type":"bool","internalType":"bool"}],"outputs":[],"stateMutability":"nonpayable"},{"type":"function","name":"setTeller","inputs":[{"name":"teller_","type":"address","internalType":"address"}],"outputs":[],"stateMutability":"nonpayable"},{"type":"function","name":"teller","inputs":[],"outputs":[{"name":"","type":"address","internalType":"contract ITeller"}],"stateMutability":"view"},{"type":"function","name":"transferOwnership","inputs":[{"name":"newOwner","type":"address","internalType":"address"}],"outputs":[],"stateMutability":"nonpayable"},{"type":"function","name":"usdc","inputs":[],"outputs":[{"name":"","type":"address","internalType":"contract IERC20"}],"stateMutability":"view"},{"type":"function","name":"usdcToUsyc","inputs":[{"name":"amount","type":"uint256","internalType":"uint256"},{"name":"receiver","type":"address","internalType":"address"}],"outputs":[{"name":"usycPurchased","type":"uint256","internalType":"uint256"}],"stateMutability":"nonpayable"},{"type":"function","name":"usyc","inputs":[],"outputs":[{"name":"","type":"address","internalType":"contract IERC20"}],"stateMutability":"view"},{"type":"function","name":"usycToUsdc","inputs":[{"name":"shares","type":"uint256","internalType":"uint256"},{"name":"receiver","type":"address","internalType":"address"}],"outputs":[{"name":"usdcPayout","type":"uint256","internalType":"uint256"}],"stateMutability":"nonpayable"},{"type":"event","name":"OperatorSet","inputs":[{"name":"operator","type":"address","indexed":true,"internalType":"address"},{"name":"allowed","type":"bool","indexed":false,"internalType":"bool"}],"anonymous":false},{"type":"event","name":"OwnershipTransferred","inputs":[{"name":"previousOwner","type":"address","indexed":true,"internalType":"address"},{"name":"newOwner","type":"address","indexed":true,"internalType":"address"}],"anonymous":false},{"type":"event","name":"TellerSet","inputs":[{"name":"teller","type":"address","indexed":true,"internalType":"address"}],"anonymous":false},{"type":"event","name":"UsdcToUsyc","inputs":[{"name":"caller","type":"address","indexed":true,"internalType":"address"},{"name":"usdcAmount","type":"uint256","indexed":false,"internalType":"uint256"},{"name":"usycAmount","type":"uint256","indexed":false,"internalType":"uint256"},{"name":"receiver","type":"address","indexed":true,"internalType":"address"}],"anonymous":false},{"type":"event","name":"UsycToUsdc","inputs":[{"name":"caller","type":"address","indexed":true,"internalType":"address"},{"name":"usycAmount","type":"uint256","indexed":false,"internalType":"uint256"},{"name":"usdcAmount","type":"uint256","indexed":false,"internalType":"uint256"},{"name":"receiver","type":"address","indexed":true,"internalType":"address"}],"anonymous":false},{"type":"error","name":"OwnableInvalidOwner","inputs":[{"name":"owner","type":"address","internalType":"address"}]},{"type":"error","name":"OwnableUnauthorizedAccount","inputs":[{"name":"account","type":"address","internalType":"address"}]},{"type":"error","name":"SafeERC20FailedOperation","inputs":[{"name":"token","type":"address","internalType":"address"}]},{"type":"error","name":"UnauthorizedOperator","inputs":[]},{"type":"error","name":"ZeroAddress","inputs":[]}],"bytecode":{"object":"0x60c03461017b57601f610a9838819003918201601f19168301916001600160401b0383118484101761017f5780849260809460405283398101031261017b5761004781610193565b61005360208301610193565b9161006c606061006560408401610193565b9201610193565b6001600160a01b03909216928315610168575f80546001600160a01b031981168617825560405195916001600160a01b03909116907f8be0079c531659141344cd1fd0a4f28419497f9722a3daafe3b4186f6b6457e09080a36001600160a01b031680158015610157575b8015610146575b610137576080526001600160a01b0390811660a052600180546001600160a01b031916929091169190911790556108f090816101a8823960805181818161029f015261062b015260a05181818161021501526104240152f35b63d92e233d60e01b5f5260045ffd5b506001600160a01b038316156100de565b506001600160a01b038216156100d7565b631e4fbdf760e01b5f525f60045260245ffd5b5f80fd5b634e487b7160e01b5f52604160045260245ffd5b51906001600160a01b038216820361017b5756fe6080806040526004361015610012575f80fd5b5f3560e01c90816313e7c9d8146106c25750806333ff77221461065a5780633e413bee14610616578063558a72971461059257806357edab4e1461056a578063715018a61461051357806383831413146103c95780638da5cb5b146103a2578063a2f315f314610244578063c166beb614610200578063e5711e8b146101295763f2fde38b146100a0575f80fd5b34610125576020366003190112610125576100b96106fb565b6100c161075d565b6001600160a01b03168015610112575f80546001600160a01b03198116831782556001600160a01b0316907f8be0079c531659141344cd1fd0a4f28419497f9722a3daafe3b4186f6b6457e09080a3005b631e4fbdf760e01b5f525f60045260245ffd5b5f80fd5b34610125576060366003190112610125576101426106fb565b61014a610711565b9061015361075d565b6001600160a01b031690811580156101ef575b6101e05760405163a9059cbb60e01b5f9081526001600160a01b039092166004526044803560245290916020918180865af19060015f51148216156101c0575b50156101ae57005b635274afe760e01b5f5260045260245ffd5b60018215166101d85750813b15153d151616826101a6565b3d5f823e3d90fd5b63d92e233d60e01b5f5260045ffd5b506001600160a01b03811615610166565b34610125575f366003190112610125576040517f00000000000000000000000000000000000000000000000000000000000000006001600160a01b03168152602090f35b3461012557604036600319011261012557600435610260610711565b5f546001600160a01b03163314158061038b575b61037c576001600160a01b03169081156101e0576001545f92906102c39083906001600160a01b03167f0000000000000000000000000000000000000000000000000000000000000000610783565b602060018060a01b0360015416604460405180968193636e553f6560e01b83528760048401528660248401525af1918215610371575f9261033c575b6020935060405190815282848201527f8d54047db751b4bcf7146904ee2879ece20fc63d09d4d9fdd9b944719cd4a7df60403392a3604051908152f35b91506020833d602011610369575b8161035760209383610727565b810103126101255760209251916102ff565b3d915061034a565b6040513d5f823e3d90fd5b6326b9cdff60e11b5f5260045ffd5b50335f52600260205260ff60405f20541615610274565b34610125575f366003190112610125575f546040516001600160a01b039091168152602090f35b34610125576040366003190112610125576004356103e5610711565b5f546001600160a01b0316331415806104fc575b61037c576001600160a01b03169081156101e0576001545f92906104489083906001600160a01b03167f0000000000000000000000000000000000000000000000000000000000000000610783565b602060018060a01b0360015416606460405180968193635d043b2960e11b83528760048401528660248401523060448401525af1918215610371575f926104c7575b6020935060405190815282848201527fa224ade951d781c3d53739502d90f403cd78dedd38aa8247376454ba1bb1e3ba60403392a3604051908152f35b91506020833d6020116104f4575b816104e260209383610727565b8101031261012557602092519161048a565b3d91506104d5565b50335f52600260205260ff60405f205416156103f9565b34610125575f3660031901126101255761052b61075d565b5f80546001600160a01b0319811682556001600160a01b03167f8be0079c531659141344cd1fd0a4f28419497f9722a3daafe3b4186f6b6457e08280a3005b34610125575f366003190112610125576001546040516001600160a01b039091168152602090f35b34610125576040366003190112610125576105ab6106fb565b60243590811515809203610125576105c161075d565b6001600160a01b03169081156101e05760207f1a594081ae893ab78e67d9b9e843547318164322d32c65369d78a96172d9dc8f91835f526002825260405f2060ff1981541660ff8316179055604051908152a2005b34610125575f366003190112610125576040517f00000000000000000000000000000000000000000000000000000000000000006001600160a01b03168152602090f35b34610125576020366003190112610125576106736106fb565b61067b61075d565b6001600160a01b031680156101e057600180546001600160a01b031916821790557fc54d5da608d36e4133d6d8602fbbc43834a9436fb6a3889fa31fce46ae4ca94d5f80a2005b34610125576020366003190112610125576020906001600160a01b036106e66106fb565b165f526002825260ff60405f20541615158152f35b600435906001600160a01b038216820361012557565b602435906001600160a01b038216820361012557565b90601f8019910116810190811067ffffffffffffffff82111761074957604052565b634e487b7160e01b5f52604160045260245ffd5b5f546001600160a01b0316330361077057565b63118cdaa760e01b5f523360045260245ffd5b916040519163095ea7b360e01b5f5260018060a01b031691826004528160245260205f60448180885af19060015f51148216156108ab575b604052156107c857505050565b60405163095ea7b360e01b5f52826004525f60245260205f60448180885af19060015f5114821615610893575b60405215610875576040519163095ea7b360e01b5f5260045260245260205f60448180865af19060015f5114821615610854575b604052156108345750565b635274afe760e01b5f9081526001600160a01b0391909116600452602490fd5b90600181151661086c57823b15153d15161690610829565b503d5f823e3d90fd5b635274afe760e01b5f9081526001600160a01b038416600452602490fd5b90600181151661086c57843b15153d151616906107f5565b90843b15153d151616906107bb56fea26469706673582212207c54309a264655335e9f4c706676729a03684784280a0c0f6428748945a7e76064736f6c634300081e0033","linkReferences":{}},"methodIdentifiers":{"operators(address)":"13e7c9d8","owner()":"8da5cb5b","renounceOwnership()":"715018a6","rescueToken(address,address,uint256)":"e5711e8b","setOperator(address,bool)":"558a7297","setTeller(address)":"33ff7722","teller()":"57edab4e","transferOwnership(address)":"f2fde38b","usdc()":"3e413bee","usdcToUsyc(uint256,address)":"a2f315f3","usyc()":"c166beb6","usycToUsdc(uint256,address)":"83831413"},"id":33}