{"abi":[{"type":"constructor","inputs":[{"name":"configFilePath","type":"string","internalType":"string"},{"name":"writeToFile","type":"bool","internalType":"bool"}],"stateMutability":"nonpayable"},{"type":"function","name":"exists","inputs":[{"name":"key","type":"string","internalType":"string"}],"outputs":[{"name":"","type":"bool","internalType":"bool"}],"stateMutability":"view"},{"type":"function","name":"exists","inputs":[{"name":"chain_id","type":"uint256","internalType":"uint256"},{"name":"key","type":"string","internalType":"string"}],"outputs":[{"name":"","type":"bool","internalType":"bool"}],"stateMutability":"view"},{"type":"function","name":"get","inputs":[{"name":"key","type":"string","internalType":"string"}],"outputs":[{"name":"","type":"tuple","internalType":"struct Variable","components":[{"name":"ty","type":"tuple","internalType":"struct Type","components":[{"name":"kind","type":"uint8","internalType":"enum TypeKind"},{"name":"isArray","type":"bool","internalType":"bool"}]},{"name":"data","type":"bytes","internalType":"bytes"}]}],"stateMutability":"view"},{"type":"function","name":"get","inputs":[{"name":"chain_id","type":"uint256","internalType":"uint256"},{"name":"key","type":"string","internalType":"string"}],"outputs":[{"name":"","type":"tuple","internalType":"struct Variable","components":[{"name":"ty","type":"tuple","internalType":"struct Type","components":[{"name":"kind","type":"uint8","internalType":"enum TypeKind"},{"name":"isArray","type":"bool","internalType":"bool"}]},{"name":"data","type":"bytes","internalType":"bytes"}]}],"stateMutability":"view"},{"type":"function","name":"getChainIds","inputs":[],"outputs":[{"name":"","type":"uint256[]","internalType":"uint256[]"}],"stateMutability":"view"},{"type":"function","name":"getRpcUrl","inputs":[],"outputs":[{"name":"","type":"string","internalType":"string"}],"stateMutability":"view"},{"type":"function","name":"getRpcUrl","inputs":[{"name":"chainId","type":"uint256","internalType":"uint256"}],"outputs":[{"name":"","type":"string","internalType":"string"}],"stateMutability":"view"},{"type":"function","name":"resolveChainId","inputs":[{"name":"aliasOrId","type":"string","internalType":"string"}],"outputs":[{"name":"","type":"uint256","internalType":"uint256"}],"stateMutability":"view"},{"type":"function","name":"set","inputs":[{"name":"chainId","type":"uint256","internalType":"uint256"},{"name":"key","type":"string","internalType":"string"},{"name":"value","type":"int256","internalType":"int256"}],"outputs":[],"stateMutability":"nonpayable"},{"type":"function","name":"set","inputs":[{"name":"chainId","type":"uint256","internalType":"uint256"},{"name":"key","type":"string","internalType":"string"},{"name":"value","type":"bytes32[]","internalType":"bytes32[]"}],"outputs":[],"stateMutability":"nonpayable"},{"type":"function","name":"set","inputs":[{"name":"chainId","type":"uint256","internalType":"uint256"},{"name":"key","type":"string","internalType":"string"},{"name":"value","type":"uint256","internalType":"uint256"}],"outputs":[],"stateMutability":"nonpayable"},{"type":"function","name":"set","inputs":[{"name":"key","type":"string","internalType":"string"},{"name":"value","type":"bytes","internalType":"bytes"}],"outputs":[],"stateMutability":"nonpayable"},{"type":"function","name":"set","inputs":[{"name":"key","type":"string","internalType":"string"},{"name":"value","type":"bytes32","internalType":"bytes32"}],"outputs":[],"stateMutability":"nonpayable"},{"type":"function","name":"set","inputs":[{"name":"key","type":"string","internalType":"string"},{"name":"value","type":"int256","internalType":"int256"}],"outputs":[],"stateMutability":"nonpayable"},{"type":"function","name":"set","inputs":[{"name":"chainId","type":"uint256","internalType":"uint256"},{"name":"key","type":"string","internalType":"string"},{"name":"value","type":"bytes","internalType":"bytes"}],"outputs":[],"stateMutability":"nonpayable"},{"type":"function","name":"set","inputs":[{"name":"key","type":"string","internalType":"string"},{"name":"value","type":"string[]","internalType":"string[]"}],"outputs":[],"stateMutability":"nonpayable"},{"type":"function","name":"set","inputs":[{"name":"chainId","type":"uint256","internalType":"uint256"},{"name":"key","type":"string","internalType":"string"},{"name":"value","type":"address","internalType":"address"}],"outputs":[],"stateMutability":"nonpayable"},{"type":"function","name":"set","inputs":[{"name":"chainId","type":"uint256","internalType":"uint256"},{"name":"key","type":"string","internalType":"string"},{"name":"value","type":"address[]","internalType":"address[]"}],"outputs":[],"stateMutability":"nonpayable"},{"type":"function","name":"set","inputs":[{"name":"chainId","type":"uint256","internalType":"uint256"},{"name":"key","type":"string","internalType":"string"},{"name":"value","type":"string","internalType":"string"}],"outputs":[],"stateMutability":"nonpayable"},{"type":"function","name":"set","inputs":[{"name":"key","type":"string","internalType":"string"},{"name":"value","type":"uint256[]","internalType":"uint256[]"}],"outputs":[],"stateMutability":"nonpayable"},{"type":"function","name":"set","inputs":[{"name":"key","type":"string","internalType":"string"},{"name":"value","type":"address[]","internalType":"address[]"}],"outputs":[],"stateMutability":"nonpayable"},{"type":"function","name":"set","inputs":[{"name":"key","type":"string","internalType":"string"},{"name":"value","type":"uint256","internalType":"uint256"}],"outputs":[],"stateMutability":"nonpayable"},{"type":"function","name":"set","inputs":[{"name":"chainId","type":"uint256","internalType":"uint256"},{"name":"key","type":"string","internalType":"string"},{"name":"value","type":"int256[]","internalType":"int256[]"}],"outputs":[],"stateMutability":"nonpayable"},{"type":"function","name":"set","inputs":[{"name":"chainId","type":"uint256","internalType":"uint256"},{"name":"key","type":"string","internalType":"string"},{"name":"value","type":"bytes[]","internalType":"bytes[]"}],"outputs":[],"stateMutability":"nonpayable"},{"type":"function","name":"set","inputs":[{"name":"key","type":"string","internalType":"string"},{"name":"value","type":"address","internalType":"address"}],"outputs":[],"stateMutability":"nonpayable"},{"type":"function","name":"set","inputs":[{"name":"chainId","type":"uint256","internalType":"uint256"},{"name":"key","type":"string","internalType":"string"},{"name":"value","type":"bool","internalType":"bool"}],"outputs":[],"stateMutability":"nonpayable"},{"type":"function","name":"set","inputs":[{"name":"key","type":"string","internalType":"string"},{"name":"value","type":"bool","internalType":"bool"}],"outputs":[],"stateMutability":"nonpayable"},{"type":"function","name":"set","inputs":[{"name":"key","type":"string","internalType":"string"},{"name":"value","type":"bytes[]","internalType":"bytes[]"}],"outputs":[],"stateMutability":"nonpayable"},{"type":"function","name":"set","inputs":[{"name":"chainId","type":"uint256","internalType":"uint256"},{"name":"key","type":"string","internalType":"string"},{"name":"value","type":"bytes32","internalType":"bytes32"}],"outputs":[],"stateMutability":"nonpayable"},{"type":"function","name":"set","inputs":[{"name":"chainId","type":"uint256","internalType":"uint256"},{"name":"key","type":"string","internalType":"string"},{"name":"value","type":"string[]","internalType":"string[]"}],"outputs":[],"stateMutability":"nonpayable"},{"type":"function","name":"set","inputs":[{"name":"chainId","type":"uint256","internalType":"uint256"},{"name":"key","type":"string","internalType":"string"},{"name":"value","type":"uint256[]","internalType":"uint256[]"}],"outputs":[],"stateMutability":"nonpayable"},{"type":"function","name":"set","inputs":[{"name":"key","type":"string","internalType":"string"},{"name":"value","type":"int256[]","internalType":"int256[]"}],"outputs":[],"stateMutability":"nonpayable"},{"type":"function","name":"set","inputs":[{"name":"chainId","type":"uint256","internalType":"uint256"},{"name":"key","type":"string","internalType":"string"},{"name":"value","type":"bool[]","internalType":"bool[]"}],"outputs":[],"stateMutability":"nonpayable"},{"type":"function","name":"set","inputs":[{"name":"key","type":"string","internalType":"string"},{"name":"value","type":"bytes32[]","internalType":"bytes32[]"}],"outputs":[],"stateMutability":"nonpayable"},{"type":"function","name":"set","inputs":[{"name":"key","type":"string","internalType":"string"},{"name":"value","type":"string","internalType":"string"}],"outputs":[],"stateMutability":"nonpayable"},{"type":"function","name":"set","inputs":[{"name":"key","type":"string","internalType":"string"},{"name":"value","type":"bool[]","internalType":"bool[]"}],"outputs":[],"stateMutability":"nonpayable"},{"type":"function","name":"writeUpdatesBackToFile","inputs":[{"name":"enabled","type":"bool","internalType":"bool"}],"outputs":[],"stateMutability":"nonpayable"},{"type":"error","name":"AlreadyInitialized","inputs":[{"name":"key","type":"string","internalType":"string"}]},{"type":"error","name":"ChainNotInitialized","inputs":[{"name":"chainId","type":"uint256","internalType":"uint256"}]},{"type":"error","name":"InvalidChainKey","inputs":[{"name":"aliasOrId","type":"string","internalType":"string"}]},{"type":"error","name":"TypeMismatch","inputs":[{"name":"expected","type":"string","internalType":"string"},{"name":"actual","type":"string","internalType":"string"}]},{"type":"error","name":"UnableToParseVariable","inputs":[{"name":"key","type":"string","internalType":"string"}]},{"type":"error","name":"WriteToFileInForbiddenCtxt","inputs":[]}],"bytecode":{"object":"0x608060405234801561000f575f5ffd5b5060405161aa7638038061aa7683398181016040528101906100319190612867565b8080156100d657507f885cb69240a935d632d79c317109709ecfa91a80626ff3989d68f67f5b1dd12d5f1c73ffffffffffffffffffffffffffffffffffffffff166364af255d60046040518263ffffffff1660e01b81526004016100959190612934565b602060405180830381865afa1580156100b0573d5f5f3e3d5ffd5b505050506040513d601f19601f820116820180604052508101906100d4919061294d565b155b1561010d576040517f2ebcd21800000000000000000000000000000000000000000000000000000000815260040160405180910390fd5b815f908161011b9190612b88565b508060055f6101000a81548160ff0219169083151502179055505f7f885cb69240a935d632d79c317109709ecfa91a80626ff3989d68f67f5b1dd12d5f1c73ffffffffffffffffffffffffffffffffffffffff1663ddd2128d7f885cb69240a935d632d79c317109709ecfa91a80626ff3989d68f67f5b1dd12d5f1c73ffffffffffffffffffffffffffffffffffffffff166360f9bb11866040518263ffffffff1660e01b81526004016101cf9190612c9f565b5f60405180830381865afa1580156101e9573d5f5f3e3d5ffd5b505050506040513d5f823e3d601f19601f820116820180604052508101906102119190612cbf565b6040518263ffffffff1660e01b815260040161022d9190612c9f565b5f604051808303815f875af1158015610248573d5f5f3e3d5ffd5b505050506040513d5f823e3d601f19601f820116820180604052508101906102709190612cbf565b90505f7f885cb69240a935d632d79c317109709ecfa91a80626ff3989d68f67f5b1dd12d5f1c73ffffffffffffffffffffffffffffffffffffffff1663812a44b2836040518263ffffffff1660e01b81526004016102ce9190612d50565b5f60405180830381865afa1580156102e8573d5f5f3e3d5ffd5b505050506040513d5f823e3d601f19601f820116820180604052508101906103109190612e65565b90505f5f90505b8151811015610975575f82828151811061033457610333612eac565b5b602002602001015190505f7f885cb69240a935d632d79c317109709ecfa91a80626ff3989d68f67f5b1dd12d5f1c73ffffffffffffffffffffffffffffffffffffffff1663812a44b2868460405160200161038f9190612f39565b6040516020818303038152906040526040518363ffffffff1660e01b81526004016103bb929190612f5e565b5f60405180830381865afa1580156103d5573d5f5f3e3d5ffd5b505050506040513d5f823e3d601f19601f820116820180604052508101906103fd9190612e65565b51036104095750610968565b5f6104198261097f60201b60201c565b9050600182908060018154018082558091505060019003905f5260205f20015f90919091909150908161044c9190612b88565b507f885cb69240a935d632d79c317109709ecfa91a80626ff3989d68f67f5b1dd12d5f1c73ffffffffffffffffffffffffffffffffffffffff16638bb8dd43868460405160200161049d9190612fb9565b6040516020818303038152906040526040518363ffffffff1660e01b81526004016104c9929190612f5e565b5f60405180830381865afa92505050801561050657506040513d5f823e3d601f19601f820116820180604052508101906105039190612cbf565b60015b610667577f885cb69240a935d632d79c317109709ecfa91a80626ff3989d68f67f5b1dd12d5f1c73ffffffffffffffffffffffffffffffffffffffff1663ddd2128d7f885cb69240a935d632d79c317109709ecfa91a80626ff3989d68f67f5b1dd12d5f1c73ffffffffffffffffffffffffffffffffffffffff1663975a6ce9856040518263ffffffff1660e01b81526004016105a39190612c9f565b5f60405180830381865afa1580156105bd573d5f5f3e3d5ffd5b505050506040513d5f823e3d601f19601f820116820180604052508101906105e59190612cbf565b6040518263ffffffff1660e01b81526004016106019190612c9f565b5f604051808303815f875af115801561061c573d5f5f3e3d5ffd5b505050506040513d5f823e3d601f19601f820116820180604052508101906106449190612cbf565b60025f8381526020019081526020015f2090816106619190612b88565b50610725565b7f885cb69240a935d632d79c317109709ecfa91a80626ff3989d68f67f5b1dd12d5f1c73ffffffffffffffffffffffffffffffffffffffff1663ddd2128d826040518263ffffffff1660e01b81526004016106c29190612c9f565b5f604051808303815f875af11580156106dd573d5f5f3e3d5ffd5b505050506040513d5f823e3d601f19601f820116820180604052508101906107059190612cbf565b60025f8481526020019081526020015f2090816107229190612b88565b50505b5f600190505b600760ff168160ff1611610964575f8160ff1660078111156107505761074f6128c1565b5b90505f8461077583600781111561076a576107696128c1565b5b610b0960201b60201c565b604051602001610786929190613013565b60405160208183030381529060405290507f885cb69240a935d632d79c317109709ecfa91a80626ff3989d68f67f5b1dd12d5f1c73ffffffffffffffffffffffffffffffffffffffff1663812a44b289836040518363ffffffff1660e01b81526004016107f4929190612f5e565b5f60405180830381865afa92505050801561083157506040513d5f823e3d601f19601f8201168201806040525081019061082e9190612e65565b60015b1561094f575f5f90505b815181101561094c575f82828151811061085857610857612eac565b5b602002602001015190505f6007811115610875576108746128c1565b5b60045f8981526020019081526020015f20826040516108949190613054565b90815260200160405180910390205f015f9054906101000a900460ff1660078111156108c3576108c26128c1565b5b03610901576108fc8b85836040516020016108df92919061306a565b604051602081830303815290604052898489610e2760201b60201c565b61093e565b806040517f7140fee00000000000000000000000000000000000000000000000000000000081526004016109359190612c9f565b60405180910390fd5b50808060010191505061083b565b50505b5050808061095c906130d5565b91505061072b565b5050505b8080600101915050610317565b50505050506143b2565b5f7f885cb69240a935d632d79c317109709ecfa91a80626ff3989d68f67f5b1dd12d5f1c73ffffffffffffffffffffffffffffffffffffffff1663fa91454d836040518263ffffffff1660e01b81526004016109db9190612c9f565b602060405180830381865afa925050508015610a1557506040513d601f19601f82011682018060405250810190610a129190613127565b60015b610aff577f885cb69240a935d632d79c317109709ecfa91a80626ff3989d68f67f5b1dd12d5f1c73ffffffffffffffffffffffffffffffffffffffff16634cc1c2bb836040518263ffffffff1660e01b8152600401610a749190612c9f565b5f60405180830381865afa925050508015610ab157506040513d5f823e3d601f19601f82011682018060405250810190610aae9190613223565b60015b610af257816040517f97aa94df000000000000000000000000000000000000000000000000000000008152600401610ae99190612c9f565b60405180910390fd5b8060200151915050610b04565b809150505b919050565b606060016007811115610b1f57610b1e6128c1565b5b826007811115610b3257610b316128c1565b5b03610b74576040518060400160405280600481526020017f626f6f6c000000000000000000000000000000000000000000000000000000008152509050610e22565b60026007811115610b8857610b876128c1565b5b826007811115610b9b57610b9a6128c1565b5b03610bdd576040518060400160405280600781526020017f61646472657373000000000000000000000000000000000000000000000000008152509050610e22565b60036007811115610bf157610bf06128c1565b5b826007811115610c0457610c036128c1565b5b03610c46576040518060400160405280600781526020017f62797465733332000000000000000000000000000000000000000000000000008152509050610e22565b60046007811115610c5a57610c596128c1565b5b826007811115610c6d57610c6c6128c1565b5b03610caf576040518060400160405280600481526020017f75696e74000000000000000000000000000000000000000000000000000000008152509050610e22565b60056007811115610cc357610cc26128c1565b5b826007811115610cd657610cd56128c1565b5b03610d18576040518060400160405280600381526020017f696e7400000000000000000000000000000000000000000000000000000000008152509050610e22565b60066007811115610d2c57610d2b6128c1565b5b826007811115610d3f57610d3e6128c1565b5b03610d81576040518060400160405280600681526020017f737472696e6700000000000000000000000000000000000000000000000000008152509050610e22565b600780811115610d9457610d936128c1565b5b826007811115610da757610da66128c1565b5b03610de9576040518060400160405280600581526020017f62797465730000000000000000000000000000000000000000000000000000008152509050610e22565b6040518060400160405280600481526020017f6e6f6e650000000000000000000000000000000000000000000000000000000081525090505b919050565b5f5f905060016007811115610e3f57610e3e6128c1565b5b826007811115610e5257610e516128c1565b5b036111a8577f885cb69240a935d632d79c317109709ecfa91a80626ff3989d68f67f5b1dd12d5f1c73ffffffffffffffffffffffffffffffffffffffff1663d30dced687876040518363ffffffff1660e01b8152600401610eb4929190612f5e565b602060405180830381865afa925050508015610eee57506040513d601f19601f82011682018060405250810190610eeb919061294d565b60015b61109d577f885cb69240a935d632d79c317109709ecfa91a80626ff3989d68f67f5b1dd12d5f1c73ffffffffffffffffffffffffffffffffffffffff1663127cfe9a87876040518363ffffffff1660e01b8152600401610f4f929190612f5e565b5f60405180830381865afa925050508015610f8c57506040513d5f823e3d601f19601f82011682018060405250810190610f89919061332a565b60015b156110985780604051602001610fa29190613428565b60405160208183030381529060405260035f8781526020019081526020015f2085604051610fd09190613054565b90815260200160405180910390209081610fea91906134aa565b5060405180604001604052806001600781111561100a576110096128c1565b5b81526020016001151581525060045f8781526020019081526020015f20856040516110359190613054565b90815260200160405180910390205f820151815f015f6101000a81548160ff0219169083600781111561106b5761106a6128c1565b5b02179055506020820151815f0160016101000a81548160ff02191690831515021790555090505060019150505b6111a3565b806040516020016110ae9190613588565b60405160208183030381529060405260035f8781526020019081526020015f20856040516110dc9190613054565b908152602001604051809103902090816110f691906134aa565b50604051806040016040528060016007811115611116576111156128c1565b5b81526020015f151581525060045f8781526020019081526020015f20856040516111409190613054565b90815260200160405180910390205f820151815f015f6101000a81548160ff02191690836007811115611176576111756128c1565b5b02179055506020820151815f0160016101000a81548160ff02191690831515021790555090505060019150505b61269b565b600260078111156111bc576111bb6128c1565b5b8260078111156111cf576111ce6128c1565b5b03611525577f885cb69240a935d632d79c317109709ecfa91a80626ff3989d68f67f5b1dd12d5f1c73ffffffffffffffffffffffffffffffffffffffff166365e7c84487876040518363ffffffff1660e01b8152600401611231929190612f5e565b602060405180830381865afa92505050801561126b57506040513d601f19601f8201168201806040525081019061126891906135fb565b60015b61141a577f885cb69240a935d632d79c317109709ecfa91a80626ff3989d68f67f5b1dd12d5f1c73ffffffffffffffffffffffffffffffffffffffff166365c428e787876040518363ffffffff1660e01b81526004016112cc929190612f5e565b5f60405180830381865afa92505050801561130957506040513d5f823e3d601f19601f8201168201806040525081019061130691906136e6565b60015b15611415578060405160200161131f91906137e4565b60405160208183030381529060405260035f8781526020019081526020015f208560405161134d9190613054565b9081526020016040518091039020908161136791906134aa565b50604051806040016040528060026007811115611387576113866128c1565b5b81526020016001151581525060045f8781526020019081526020015f20856040516113b29190613054565b90815260200160405180910390205f820151815f015f6101000a81548160ff021916908360078111156113e8576113e76128c1565b5b02179055506020820151815f0160016101000a81548160ff02191690831515021790555090505060019150505b611520565b8060405160200161142b9190613813565b60405160208183030381529060405260035f8781526020019081526020015f20856040516114599190613054565b9081526020016040518091039020908161147391906134aa565b50604051806040016040528060026007811115611493576114926128c1565b5b81526020015f151581525060045f8781526020019081526020015f20856040516114bd9190613054565b90815260200160405180910390205f820151815f015f6101000a81548160ff021916908360078111156114f3576114f26128c1565b5b02179055506020820151815f0160016101000a81548160ff02191690831515021790555090505060019150505b61269a565b60036007811115611539576115386128c1565b5b82600781111561154c5761154b6128c1565b5b036118a2577f885cb69240a935d632d79c317109709ecfa91a80626ff3989d68f67f5b1dd12d5f1c73ffffffffffffffffffffffffffffffffffffffff16638e21481087876040518363ffffffff1660e01b81526004016115ae929190612f5e565b602060405180830381865afa9250505080156115e857506040513d601f19601f820116820180604052508101906115e5919061385f565b60015b611797577f885cb69240a935d632d79c317109709ecfa91a80626ff3989d68f67f5b1dd12d5f1c73ffffffffffffffffffffffffffffffffffffffff16633e716f8187876040518363ffffffff1660e01b8152600401611649929190612f5e565b5f60405180830381865afa92505050801561168657506040513d5f823e3d601f19601f82011682018060405250810190611683919061394a565b60015b15611792578060405160200161169c9190613a48565b60405160208183030381529060405260035f8781526020019081526020015f20856040516116ca9190613054565b908152602001604051809103902090816116e491906134aa565b50604051806040016040528060036007811115611704576117036128c1565b5b81526020016001151581525060045f8781526020019081526020015f208560405161172f9190613054565b90815260200160405180910390205f820151815f015f6101000a81548160ff02191690836007811115611765576117646128c1565b5b02179055506020820151815f0160016101000a81548160ff02191690831515021790555090505060019150505b61189d565b806040516020016117a89190613a77565b60405160208183030381529060405260035f8781526020019081526020015f20856040516117d69190613054565b908152602001604051809103902090816117f091906134aa565b506040518060400160405280600360078111156118105761180f6128c1565b5b81526020015f151581525060045f8781526020019081526020015f208560405161183a9190613054565b90815260200160405180910390205f820151815f015f6101000a81548160ff021916908360078111156118705761186f6128c1565b5b02179055506020820151815f0160016101000a81548160ff02191690831515021790555090505060019150505b612699565b600460078111156118b6576118b56128c1565b5b8260078111156118c9576118c86128c1565b5b03611c1f577f885cb69240a935d632d79c317109709ecfa91a80626ff3989d68f67f5b1dd12d5f1c73ffffffffffffffffffffffffffffffffffffffff1663cc7b048787876040518363ffffffff1660e01b815260040161192b929190612f5e565b602060405180830381865afa92505050801561196557506040513d601f19601f820116820180604052508101906119629190613127565b60015b611b14577f885cb69240a935d632d79c317109709ecfa91a80626ff3989d68f67f5b1dd12d5f1c73ffffffffffffffffffffffffffffffffffffffff1663b5df27c887876040518363ffffffff1660e01b81526004016119c6929190612f5e565b5f60405180830381865afa925050508015611a0357506040513d5f823e3d601f19601f82011682018060405250810190611a009190613b50565b60015b15611b0f5780604051602001611a199190613c4e565b60405160208183030381529060405260035f8781526020019081526020015f2085604051611a479190613054565b90815260200160405180910390209081611a6191906134aa565b50604051806040016040528060046007811115611a8157611a806128c1565b5b81526020016001151581525060045f8781526020019081526020015f2085604051611aac9190613054565b90815260200160405180910390205f820151815f015f6101000a81548160ff02191690836007811115611ae257611ae16128c1565b5b02179055506020820151815f0160016101000a81548160ff02191690831515021790555090505060019150505b611c1a565b80604051602001611b259190613c7d565b60405160208183030381529060405260035f8781526020019081526020015f2085604051611b539190613054565b90815260200160405180910390209081611b6d91906134aa565b50604051806040016040528060046007811115611b8d57611b8c6128c1565b5b81526020015f151581525060045f8781526020019081526020015f2085604051611bb79190613054565b90815260200160405180910390205f820151815f015f6101000a81548160ff02191690836007811115611bed57611bec6128c1565b5b02179055506020820151815f0160016101000a81548160ff02191690831515021790555090505060019150505b612698565b60056007811115611c3357611c326128c1565b5b826007811115611c4657611c456128c1565b5b03611f9c577f885cb69240a935d632d79c317109709ecfa91a80626ff3989d68f67f5b1dd12d5f1c73ffffffffffffffffffffffffffffffffffffffff1663c135073987876040518363ffffffff1660e01b8152600401611ca8929190612f5e565b602060405180830381865afa925050508015611ce257506040513d601f19601f82011682018060405250810190611cdf9190613cc9565b60015b611e91577f885cb69240a935d632d79c317109709ecfa91a80626ff3989d68f67f5b1dd12d5f1c73ffffffffffffffffffffffffffffffffffffffff1663d3522ae687876040518363ffffffff1660e01b8152600401611d43929190612f5e565b5f60405180830381865afa925050508015611d8057506040513d5f823e3d601f19601f82011682018060405250810190611d7d9190613db4565b60015b15611e8c5780604051602001611d969190613eb2565b60405160208183030381529060405260035f8781526020019081526020015f2085604051611dc49190613054565b90815260200160405180910390209081611dde91906134aa565b50604051806040016040528060056007811115611dfe57611dfd6128c1565b5b81526020016001151581525060045f8781526020019081526020015f2085604051611e299190613054565b90815260200160405180910390205f820151815f015f6101000a81548160ff02191690836007811115611e5f57611e5e6128c1565b5b02179055506020820151815f0160016101000a81548160ff02191690831515021790555090505060019150505b611f97565b80604051602001611ea29190613ee1565b60405160208183030381529060405260035f8781526020019081526020015f2085604051611ed09190613054565b90815260200160405180910390209081611eea91906134aa565b50604051806040016040528060056007811115611f0a57611f096128c1565b5b81526020015f151581525060045f8781526020019081526020015f2085604051611f349190613054565b90815260200160405180910390205f820151815f015f6101000a81548160ff02191690836007811115611f6a57611f696128c1565b5b02179055506020820151815f0160016101000a81548160ff02191690831515021790555090505060019150505b612697565b600780811115611faf57611fae6128c1565b5b826007811115611fc257611fc16128c1565b5b03612319577f885cb69240a935d632d79c317109709ecfa91a80626ff3989d68f67f5b1dd12d5f1c73ffffffffffffffffffffffffffffffffffffffff1663d77bfdb987876040518363ffffffff1660e01b8152600401612024929190612f5e565b5f60405180830381865afa92505050801561206157506040513d5f823e3d601f19601f8201168201806040525081019061205e9190613f98565b60015b61220f577f885cb69240a935d632d79c317109709ecfa91a80626ff3989d68f67f5b1dd12d5f1c73ffffffffffffffffffffffffffffffffffffffff1663b197c24787876040518363ffffffff1660e01b81526004016120c2929190612f5e565b5f60405180830381865afa9250505080156120ff57506040513d5f823e3d601f19601f820116820180604052508101906120fc91906140bd565b60015b1561220a57806040516020016121159190614207565b60405160208183030381529060405260035f8781526020019081526020015f20856040516121439190613054565b9081526020016040518091039020908161215d91906134aa565b50604051806040016040528060078081111561217c5761217b6128c1565b5b81526020016001151581525060045f8781526020019081526020015f20856040516121a79190613054565b90815260200160405180910390205f820151815f015f6101000a81548160ff021916908360078111156121dd576121dc6128c1565b5b02179055506020820151815f0160016101000a81548160ff02191690831515021790555090505060019150505b612314565b80604051602001612220919061426f565b60405160208183030381529060405260035f8781526020019081526020015f208560405161224e9190613054565b9081526020016040518091039020908161226891906134aa565b506040518060400160405280600780811115612287576122866128c1565b5b81526020015f151581525060045f8781526020019081526020015f20856040516122b19190613054565b90815260200160405180910390205f820151815f015f6101000a81548160ff021916908360078111156122e7576122e66128c1565b5b02179055506020820151815f0160016101000a81548160ff02191690831515021790555090505060019150505b612696565b6006600781111561232d5761232c6128c1565b5b8260078111156123405761233f6128c1565b5b03612695577f885cb69240a935d632d79c317109709ecfa91a80626ff3989d68f67f5b1dd12d5f1c73ffffffffffffffffffffffffffffffffffffffff16638bb8dd4387876040518363ffffffff1660e01b81526004016123a2929190612f5e565b5f60405180830381865afa9250505080156123df57506040513d5f823e3d601f19601f820116820180604052508101906123dc9190612cbf565b60015b61258e577f885cb69240a935d632d79c317109709ecfa91a80626ff3989d68f67f5b1dd12d5f1c73ffffffffffffffffffffffffffffffffffffffff16639f62928187876040518363ffffffff1660e01b8152600401612440929190612f5e565b5f60405180830381865afa92505050801561247d57506040513d5f823e3d601f19601f8201168201806040525081019061247a9190612e65565b60015b1561258957806040516020016124939190614392565b60405160208183030381529060405260035f8781526020019081526020015f20856040516124c19190613054565b908152602001604051809103902090816124db91906134aa565b506040518060400160405280600660078111156124fb576124fa6128c1565b5b81526020016001151581525060045f8781526020019081526020015f20856040516125269190613054565b90815260200160405180910390205f820151815f015f6101000a81548160ff0219169083600781111561255c5761255b6128c1565b5b02179055506020820151815f0160016101000a81548160ff02191690831515021790555090505060019150505b612694565b8060405160200161259f9190612c9f565b60405160208183030381529060405260035f8781526020019081526020015f20856040516125cd9190613054565b908152602001604051809103902090816125e791906134aa565b50604051806040016040528060066007811115612607576126066128c1565b5b81526020015f151581525060045f8781526020019081526020015f20856040516126319190613054565b90815260200160405180910390205f820151815f015f6101000a81548160ff02191690836007811115612667576126666128c1565b5b02179055506020820151815f0160016101000a81548160ff02191690831515021790555090505060019150505b5b5b5b5b5b5b5b806126dd57826040517fea00fa130000000000000000000000000000000000000000000000000000000081526004016126d49190612c9f565b60405180910390fd5b505050505050565b5f604051905090565b5f5ffd5b5f5ffd5b5f5ffd5b5f5ffd5b5f601f19601f8301169050919050565b7f4e487b71000000000000000000000000000000000000000000000000000000005f52604160045260245ffd5b612744826126fe565b810181811067ffffffffffffffff821117156127635761276261270e565b5b80604052505050565b5f6127756126e5565b9050612781828261273b565b919050565b5f67ffffffffffffffff8211156127a05761279f61270e565b5b6127a9826126fe565b9050602081019050919050565b8281835e5f83830152505050565b5f6127d66127d184612786565b61276c565b9050828152602081018484840111156127f2576127f16126fa565b5b6127fd8482856127b6565b509392505050565b5f82601f830112612819576128186126f6565b5b81516128298482602086016127c4565b91505092915050565b5f8115159050919050565b61284681612832565b8114612850575f5ffd5b50565b5f815190506128618161283d565b92915050565b5f5f6040838503121561287d5761287c6126ee565b5b5f83015167ffffffffffffffff81111561289a576128996126f2565b5b6128a685828601612805565b92505060206128b785828601612853565b9150509250929050565b7f4e487b71000000000000000000000000000000000000000000000000000000005f52602160045260245ffd5b600981106128ff576128fe6128c1565b5b50565b5f81905061290f826128ee565b919050565b5f61291e82612902565b9050919050565b61292e81612914565b82525050565b5f6020820190506129475f830184612925565b92915050565b5f60208284031215612962576129616126ee565b5b5f61296f84828501612853565b91505092915050565b5f81519050919050565b7f4e487b71000000000000000000000000000000000000000000000000000000005f52602260045260245ffd5b5f60028204905060018216806129c657607f821691505b6020821081036129d9576129d8612982565b5b50919050565b5f819050815f5260205f209050919050565b5f6020601f8301049050919050565b5f82821b905092915050565b5f60088302612a3b7fffffffffffffffffffffffffffffffffffffffffffffffffffffffffffffffff82612a00565b612a458683612a00565b95508019841693508086168417925050509392505050565b5f819050919050565b5f819050919050565b5f612a89612a84612a7f84612a5d565b612a66565b612a5d565b9050919050565b5f819050919050565b612aa283612a6f565b612ab6612aae82612a90565b848454612a0c565b825550505050565b5f5f905090565b612acd612abe565b612ad8818484612a99565b505050565b5b81811015612afb57612af05f82612ac5565b600181019050612ade565b5050565b601f821115612b4057612b11816129df565b612b1a846129f1565b81016020851015612b29578190505b612b3d612b35856129f1565b830182612add565b50505b505050565b5f82821c905092915050565b5f612b605f1984600802612b45565b1980831691505092915050565b5f612b788383612b51565b9150826002028217905092915050565b612b9182612978565b67ffffffffffffffff811115612baa57612ba961270e565b5b612bb482546129af565b612bbf828285612aff565b5f60209050601f831160018114612bf0575f8415612bde578287015190505b612be88582612b6d565b865550612c4f565b601f198416612bfe866129df565b5f5b82811015612c2557848901518255600182019150602085019450602081019050612c00565b86831015612c425784890151612c3e601f891682612b51565b8355505b6001600288020188555050505b505050505050565b5f82825260208201905092915050565b5f612c7182612978565b612c7b8185612c57565b9350612c8b8185602086016127b6565b612c94816126fe565b840191505092915050565b5f6020820190508181035f830152612cb78184612c67565b905092915050565b5f60208284031215612cd457612cd36126ee565b5b5f82015167ffffffffffffffff811115612cf157612cf06126f2565b5b612cfd84828501612805565b91505092915050565b7f24000000000000000000000000000000000000000000000000000000000000005f82015250565b5f612d3a600183612c57565b9150612d4582612d06565b602082019050919050565b5f6040820190508181035f830152612d688184612c67565b90508181036020830152612d7b81612d2e565b905092915050565b5f67ffffffffffffffff821115612d9d57612d9c61270e565b5b602082029050602081019050919050565b5f5ffd5b5f612dc4612dbf84612d83565b61276c565b90508083825260208201905060208402830185811115612de757612de6612dae565b5b835b81811015612e2e57805167ffffffffffffffff811115612e0c57612e0b6126f6565b5b808601612e198982612805565b85526020850194505050602081019050612de9565b5050509392505050565b5f82601f830112612e4c57612e4b6126f6565b5b8151612e5c848260208601612db2565b91505092915050565b5f60208284031215612e7a57612e796126ee565b5b5f82015167ffffffffffffffff811115612e9757612e966126f2565b5b612ea384828501612e38565b91505092915050565b7f4e487b71000000000000000000000000000000000000000000000000000000005f52603260045260245ffd5b7f242e000000000000000000000000000000000000000000000000000000000000815250565b5f81905092915050565b5f612f1382612978565b612f1d8185612eff565b9350612f2d8185602086016127b6565b80840191505092915050565b5f612f4382612ed9565b600282019150612f538284612f09565b915081905092915050565b5f6040820190508181035f830152612f768185612c67565b90508181036020830152612f8a8184612c67565b90509392505050565b7f2e656e64706f696e745f75726c00000000000000000000000000000000000000815250565b5f612fc382612ed9565b600282019150612fd38284612f09565b9150612fde82612f93565b600d8201915081905092915050565b7f2e00000000000000000000000000000000000000000000000000000000000000815250565b5f61301d82612ed9565b60028201915061302d8285612f09565b915061303882612fed565b6001820191506130488284612f09565b91508190509392505050565b5f61305f8284612f09565b915081905092915050565b5f6130758285612f09565b915061308082612fed565b6001820191506130908284612f09565b91508190509392505050565b7f4e487b71000000000000000000000000000000000000000000000000000000005f52601160045260245ffd5b5f60ff82169050919050565b5f6130df826130c9565b915060ff82036130f2576130f161309c565b5b600182019050919050565b61310681612a5d565b8114613110575f5ffd5b50565b5f81519050613121816130fd565b92915050565b5f6020828403121561313c5761313b6126ee565b5b5f61314984828501613113565b91505092915050565b5f5ffd5b5f5ffd5b5f6080828403121561316f5761316e613152565b5b613179608061276c565b90505f82015167ffffffffffffffff81111561319857613197613156565b5b6131a484828501612805565b5f8301525060206131b784828501613113565b602083015250604082015167ffffffffffffffff8111156131db576131da613156565b5b6131e784828501612805565b604083015250606082015167ffffffffffffffff81111561320b5761320a613156565b5b61321784828501612805565b60608301525092915050565b5f60208284031215613238576132376126ee565b5b5f82015167ffffffffffffffff811115613255576132546126f2565b5b6132618482850161315a565b91505092915050565b5f67ffffffffffffffff8211156132845761328361270e565b5b602082029050602081019050919050565b5f6132a76132a28461326a565b61276c565b905080838252602082019050602084028301858111156132ca576132c9612dae565b5b835b818110156132f357806132df8882612853565b8452602084019350506020810190506132cc565b5050509392505050565b5f82601f830112613311576133106126f6565b5b8151613321848260208601613295565b91505092915050565b5f6020828403121561333f5761333e6126ee565b5b5f82015167ffffffffffffffff81111561335c5761335b6126f2565b5b613368848285016132fd565b91505092915050565b5f81519050919050565b5f82825260208201905092915050565b5f819050602082019050919050565b6133a381612832565b82525050565b5f6133b4838361339a565b60208301905092915050565b5f602082019050919050565b5f6133d682613371565b6133e0818561337b565b93506133eb8361338b565b805f5b8381101561341b57815161340288826133a9565b975061340d836133c0565b9250506001810190506133ee565b5085935050505092915050565b5f6020820190508181035f83015261344081846133cc565b905092915050565b5f81519050919050565b5f819050815f5260205f209050919050565b601f8211156134a55761347681613452565b61347f846129f1565b8101602085101561348e578190505b6134a261349a856129f1565b830182612add565b50505b505050565b6134b382613448565b67ffffffffffffffff8111156134cc576134cb61270e565b5b6134d682546129af565b6134e1828285613464565b5f60209050601f831160018114613512575f8415613500578287015190505b61350a8582612b6d565b865550613571565b601f19841661352086613452565b5f5b8281101561354757848901518255600182019150602085019450602081019050613522565b868310156135645784890151613560601f891682612b51565b8355505b6001600288020188555050505b505050505050565b61358281612832565b82525050565b5f60208201905061359b5f830184613579565b92915050565b5f73ffffffffffffffffffffffffffffffffffffffff82169050919050565b5f6135ca826135a1565b9050919050565b6135da816135c0565b81146135e4575f5ffd5b50565b5f815190506135f5816135d1565b92915050565b5f602082840312156136105761360f6126ee565b5b5f61361d848285016135e7565b91505092915050565b5f67ffffffffffffffff8211156136405761363f61270e565b5b602082029050602081019050919050565b5f61366361365e84613626565b61276c565b9050808382526020820190506020840283018581111561368657613685612dae565b5b835b818110156136af578061369b88826135e7565b845260208401935050602081019050613688565b5050509392505050565b5f82601f8301126136cd576136cc6126f6565b5b81516136dd848260208601613651565b91505092915050565b5f602082840312156136fb576136fa6126ee565b5b5f82015167ffffffffffffffff811115613718576137176126f2565b5b613724848285016136b9565b91505092915050565b5f81519050919050565b5f82825260208201905092915050565b5f819050602082019050919050565b61375f816135c0565b82525050565b5f6137708383613756565b60208301905092915050565b5f602082019050919050565b5f6137928261372d565b61379c8185613737565b93506137a783613747565b805f5b838110156137d75781516137be8882613765565b97506137c98361377c565b9250506001810190506137aa565b5085935050505092915050565b5f6020820190508181035f8301526137fc8184613788565b905092915050565b61380d816135c0565b82525050565b5f6020820190506138265f830184613804565b92915050565b5f819050919050565b61383e8161382c565b8114613848575f5ffd5b50565b5f8151905061385981613835565b92915050565b5f60208284031215613874576138736126ee565b5b5f6138818482850161384b565b91505092915050565b5f67ffffffffffffffff8211156138a4576138a361270e565b5b602082029050602081019050919050565b5f6138c76138c28461388a565b61276c565b905080838252602082019050602084028301858111156138ea576138e9612dae565b5b835b8181101561391357806138ff888261384b565b8452602084019350506020810190506138ec565b5050509392505050565b5f82601f830112613931576139306126f6565b5b81516139418482602086016138b5565b91505092915050565b5f6020828403121561395f5761395e6126ee565b5b5f82015167ffffffffffffffff81111561397c5761397b6126f2565b5b6139888482850161391d565b91505092915050565b5f81519050919050565b5f82825260208201905092915050565b5f819050602082019050919050565b6139c38161382c565b82525050565b5f6139d483836139ba565b60208301905092915050565b5f602082019050919050565b5f6139f682613991565b613a00818561399b565b9350613a0b836139ab565b805f5b83811015613a3b578151613a2288826139c9565b9750613a2d836139e0565b925050600181019050613a0e565b5085935050505092915050565b5f6020820190508181035f830152613a6081846139ec565b905092915050565b613a718161382c565b82525050565b5f602082019050613a8a5f830184613a68565b92915050565b5f67ffffffffffffffff821115613aaa57613aa961270e565b5b602082029050602081019050919050565b5f613acd613ac884613a90565b61276c565b90508083825260208201905060208402830185811115613af057613aef612dae565b5b835b81811015613b195780613b058882613113565b845260208401935050602081019050613af2565b5050509392505050565b5f82601f830112613b3757613b366126f6565b5b8151613b47848260208601613abb565b91505092915050565b5f60208284031215613b6557613b646126ee565b5b5f82015167ffffffffffffffff811115613b8257613b816126f2565b5b613b8e84828501613b23565b91505092915050565b5f81519050919050565b5f82825260208201905092915050565b5f819050602082019050919050565b613bc981612a5d565b82525050565b5f613bda8383613bc0565b60208301905092915050565b5f602082019050919050565b5f613bfc82613b97565b613c068185613ba1565b9350613c1183613bb1565b805f5b83811015613c41578151613c288882613bcf565b9750613c3383613be6565b925050600181019050613c14565b5085935050505092915050565b5f6020820190508181035f830152613c668184613bf2565b905092915050565b613c7781612a5d565b82525050565b5f602082019050613c905f830184613c6e565b92915050565b5f819050919050565b613ca881613c96565b8114613cb2575f5ffd5b50565b5f81519050613cc381613c9f565b92915050565b5f60208284031215613cde57613cdd6126ee565b5b5f613ceb84828501613cb5565b91505092915050565b5f67ffffffffffffffff821115613d0e57613d0d61270e565b5b602082029050602081019050919050565b5f613d31613d2c84613cf4565b61276c565b90508083825260208201905060208402830185811115613d5457613d53612dae565b5b835b81811015613d7d5780613d698882613cb5565b845260208401935050602081019050613d56565b5050509392505050565b5f82601f830112613d9b57613d9a6126f6565b5b8151613dab848260208601613d1f565b91505092915050565b5f60208284031215613dc957613dc86126ee565b5b5f82015167ffffffffffffffff811115613de657613de56126f2565b5b613df284828501613d87565b91505092915050565b5f81519050919050565b5f82825260208201905092915050565b5f819050602082019050919050565b613e2d81613c96565b82525050565b5f613e3e8383613e24565b60208301905092915050565b5f602082019050919050565b5f613e6082613dfb565b613e6a8185613e05565b9350613e7583613e15565b805f5b83811015613ea5578151613e8c8882613e33565b9750613e9783613e4a565b925050600181019050613e78565b5085935050505092915050565b5f6020820190508181035f830152613eca8184613e56565b905092915050565b613edb81613c96565b82525050565b5f602082019050613ef45f830184613ed2565b92915050565b5f67ffffffffffffffff821115613f1457613f1361270e565b5b613f1d826126fe565b9050602081019050919050565b5f613f3c613f3784613efa565b61276c565b905082815260208101848484011115613f5857613f576126fa565b5b613f638482856127b6565b509392505050565b5f82601f830112613f7f57613f7e6126f6565b5b8151613f8f848260208601613f2a565b91505092915050565b5f60208284031215613fad57613fac6126ee565b5b5f82015167ffffffffffffffff811115613fca57613fc96126f2565b5b613fd684828501613f6b565b91505092915050565b5f67ffffffffffffffff821115613ff957613ff861270e565b5b602082029050602081019050919050565b5f61401c61401784613fdf565b61276c565b9050808382526020820190506020840283018581111561403f5761403e612dae565b5b835b8181101561408657805167ffffffffffffffff811115614064576140636126f6565b5b8086016140718982613f6b565b85526020850194505050602081019050614041565b5050509392505050565b5f82601f8301126140a4576140a36126f6565b5b81516140b484826020860161400a565b91505092915050565b5f602082840312156140d2576140d16126ee565b5b5f82015167ffffffffffffffff8111156140ef576140ee6126f2565b5b6140fb84828501614090565b91505092915050565b5f81519050919050565b5f82825260208201905092915050565b5f819050602082019050919050565b5f82825260208201905092915050565b5f61414782613448565b614151818561412d565b93506141618185602086016127b6565b61416a816126fe565b840191505092915050565b5f614180838361413d565b905092915050565b5f602082019050919050565b5f61419e82614104565b6141a8818561410e565b9350836020820285016141ba8561411e565b805f5b858110156141f557848403895281516141d68582614175565b94506141e183614188565b925060208a019950506001810190506141bd565b50829750879550505050505092915050565b5f6020820190508181035f83015261421f8184614194565b905092915050565b5f82825260208201905092915050565b5f61424182613448565b61424b8185614227565b935061425b8185602086016127b6565b614264816126fe565b840191505092915050565b5f6020820190508181035f8301526142878184614237565b905092915050565b5f81519050919050565b5f82825260208201905092915050565b5f819050602082019050919050565b5f82825260208201905092915050565b5f6142d282612978565b6142dc81856142b8565b93506142ec8185602086016127b6565b6142f5816126fe565b840191505092915050565b5f61430b83836142c8565b905092915050565b5f602082019050919050565b5f6143298261428f565b6143338185614299565b935083602082028501614345856142a9565b805f5b8581101561438057848403895281516143618582614300565b945061436c83614313565b925060208a01995050600181019050614348565b50829750879550505050505092915050565b5f6020820190508181035f8301526143aa818461431f565b905092915050565b6166b7806143bf5f395ff3fe608060405234801561000f575f5ffd5b5060043610610225575f3560e01c80637df3ef121161012e578063c91ca7ba116100b6578063de0fc9b31161007a578063de0fc9b314610625578063e298d00b14610641578063e60532501461065d578063e942b51614610679578063fa3c074a1461069557610225565b8063c91ca7ba14610599578063cf1cfa99146105b5578063cf72a2f3146105d1578063d6698dc4146105ed578063db0075df1461060957610225565b80638be19924116100fd5780638be199241461050d57806393dbe6e014610529578063a815ff1514610545578063b3a6400114610561578063ba0ff22c1461057d57610225565b80637df3ef1214610475578063805da4ad146104a557806388c63d45146104d55780638a42ebe9146104f157610225565b806343d9eb7b116101b15780635eba0df0116101805780635eba0df0146103d557806361141c97146103f1578063655609501461040d578063693ec85e146104295780637b8fed811461045957610225565b806343d9eb7b1461034f57806343ec8b6a1461037f5780634d85ce801461039d57806359b39526146103b957610225565b8063261a323e116101f8578063261a323e1461029b5780632b29c0fa146102cb5780632e3196a5146102e75780632ef8ba74146103035780633f3a75881461031f57610225565b806307d79d9a1461022957806308f7b4b2146102455780631d7763231461026157806322dc48fd1461027f575b5f5ffd5b610243600480360381019061023e9190613f45565b6106b1565b005b61025f600480360381019061025a91906140a8565b610823565b005b610269610a8c565b60405161027691906141e7565b60405180910390f35b61029960048036038101906102949190614207565b610c11565b005b6102b560048036038101906102b09190614273565b610d83565b6040516102c291906142d4565b60405180910390f35b6102e560048036038101906102e0919061438b565b610e23565b005b61030160048036038101906102fc9190614401565b610ec0565b005b61031d6004803603810190610318919061445b565b610f5d565b005b61033960048036038101906103349190614273565b610ffa565b60405161034691906144c4565b60405180910390f35b610369600480360381019061036491906144dd565b611184565b60405161037691906142d4565b60405180910390f35b6103876111c9565b6040516103949190614597565b60405180910390f35b6103b760048036038101906103b291906145b7565b6112f6565b005b6103d360048036038101906103ce919061471d565b61146f565b005b6103ef60048036038101906103ea91906147ed565b61150c565b005b61040b60048036038101906104069190614919565b611686565b005b610427600480360381019061042291906149a1565b6118ef565b005b610443600480360381019061043e9190614273565b6119cd565b6040516104509190614b64565b60405180910390f35b610473600480360381019061046e9190614c44565b611a74565b005b61048f600480360381019061048a9190614cba565b611b11565b60405161049c9190614597565b60405180910390f35b6104bf60048036038101906104ba91906144dd565b611bb2565b6040516104cc9190614b64565b60405180910390f35b6104ef60048036038101906104ea9190614ce5565b611d14565b005b61050b60048036038101906105069190614d5b565b611db1565b005b61052760048036038101906105229190614e75565b611e4e565b005b610543600480360381019061053e9190614fdb565b6120af565b005b61055f600480360381019061055a9190615063565b612317565b005b61057b600480360381019061057691906150e7565b6123b4565b005b61059760048036038101906105929190615153565b612526565b005b6105b360048036038101906105ae91906151ad565b6125c3565b005b6105cf60048036038101906105ca9190615223565b612660565b005b6105eb60048036038101906105e6919061528f565b6127da565b005b61060760048036038101906106029190615317565b6129a7565b005b610623600480360381019061061e9190615342565b612a9f565b005b61063f600480360381019061063a91906153ca565b612d00565b005b61065b60048036038101906106569190615500565b612d9d565b005b61067760048036038101906106729190615588565b612ffe565b005b610693600480360381019061068e91906155fe565b61309b565b005b6106af60048036038101906106aa9190615674565b613138565b005b5f6040518060400160405280600560078111156106d1576106d0614a29565b5b81526020015f151581525090506106e98484836131d5565b816040516020016106fa91906156f9565b60405160208183030381529060405260035f8681526020019081526020015f2084604051610728919061574c565b90815260200160405180910390209081610742919061595f565b5060055f9054906101000a900460ff161561081d5761081c84610779835f0151600781111561077457610773614a29565b5b61332d565b857f885cb69240a935d632d79c317109709ecfa91a80626ff3989d68f67f5b1dd12d5f1c73ffffffffffffffffffffffffffffffffffffffff1663a322c40e876040518263ffffffff1660e01b81526004016107d591906156f9565b5f60405180830381865afa1580156107ef573d5f5f3e3d5ffd5b505050506040513d5f823e3d601f19601f820116820180604052508101906108179190615a9c565b61364b565b5b50505050565b5f60405180604001604052806003600781111561084357610842614a29565b5b815260200160011515815250905061085c8484836131d5565b8160405160200161086d9190615b9a565b60405160208183030381529060405260035f8681526020019081526020015f208460405161089b919061574c565b908152602001604051809103902090816108b5919061595f565b5060055f9054906101000a900460ff1615610a86575f6040518060400160405280600181526020017f5b0000000000000000000000000000000000000000000000000000000000000081525090505f5f90505b8351811015610a3857816109d17f885cb69240a935d632d79c317109709ecfa91a80626ff3989d68f67f5b1dd12d5f1c73ffffffffffffffffffffffffffffffffffffffff1663b11a19e887858151811061096657610965615bba565b5b60200260200101516040518263ffffffff1660e01b815260040161098a9190615bf6565b5f60405180830381865afa1580156109a4573d5f5f3e3d5ffd5b505050506040513d5f823e3d601f19601f820116820180604052508101906109cc9190615a9c565b613712565b6040516020016109e2929190615c0f565b604051602081830303815290604052915060018451610a019190615c5f565b811015610a2b5781604051602001610a199190615cb8565b60405160208183030381529060405291505b8080600101915050610908565b5080604051602001610a4a9190615d03565b6040516020818303038152906040529050610a8485610a7d845f01516007811115610a7857610a77614a29565b5b61332d565b868461364b565b505b50505050565b60605f6001805480602002602001604051908101604052809291908181526020015f905b82821015610b58578382905f5260205f20018054610acd9061578f565b80601f0160208091040260200160405190810160405280929190818152602001828054610af99061578f565b8015610b445780601f10610b1b57610100808354040283529160200191610b44565b820191905f5260205f20905b815481529060010190602001808311610b2757829003601f168201915b505050505081526020019060010190610ab0565b5050505090505f815167ffffffffffffffff811115610b7a57610b79613dee565b5b604051908082528060200260200182016040528015610ba85781602001602082028036833780820191505090505b5090505f5f90505b8251811015610c0857610bdc838281518110610bcf57610bce615bba565b5b6020026020010151610ffa565b828281518110610bef57610bee615bba565b5b6020026020010181815250508080600101915050610bb0565b50809250505090565b5f604051806040016040528060046007811115610c3157610c30614a29565b5b81526020015f15158152509050610c498484836131d5565b81604051602001610c5a91906144c4565b60405160208183030381529060405260035f8681526020019081526020015f2084604051610c88919061574c565b90815260200160405180910390209081610ca2919061595f565b5060055f9054906101000a900460ff1615610d7d57610d7c84610cd9835f01516007811115610cd457610cd3614a29565b5b61332d565b857f885cb69240a935d632d79c317109709ecfa91a80626ff3989d68f67f5b1dd12d5f1c73ffffffffffffffffffffffffffffffffffffffff16636900a3ae876040518263ffffffff1660e01b8152600401610d3591906144c4565b5f60405180830381865afa158015610d4f573d5f5f3e3d5ffd5b505050506040513d5f823e3d601f19601f82011682018060405250810190610d779190615a9c565b61364b565b5b50505050565b5f610e1c7f885cb69240a935d632d79c317109709ecfa91a80626ff3989d68f67f5b1dd12d5f1c73ffffffffffffffffffffffffffffffffffffffff16633408e4706040518163ffffffff1660e01b8152600401602060405180830381865afa158015610df2573d5f5f3e3d5ffd5b505050506040513d601f19601f82011682018060405250810190610e169190615d3c565b83611184565b9050919050565b610ebc7f885cb69240a935d632d79c317109709ecfa91a80626ff3989d68f67f5b1dd12d5f1c73ffffffffffffffffffffffffffffffffffffffff16633408e4706040518163ffffffff1660e01b8152600401602060405180830381865afa158015610e91573d5f5f3e3d5ffd5b505050506040513d601f19601f82011682018060405250810190610eb59190615d3c565b83836112f6565b5050565b610f597f885cb69240a935d632d79c317109709ecfa91a80626ff3989d68f67f5b1dd12d5f1c73ffffffffffffffffffffffffffffffffffffffff16633408e4706040518163ffffffff1660e01b8152600401602060405180830381865afa158015610f2e573d5f5f3e3d5ffd5b505050506040513d601f19601f82011682018060405250810190610f529190615d3c565b8383612660565b5050565b610ff67f885cb69240a935d632d79c317109709ecfa91a80626ff3989d68f67f5b1dd12d5f1c73ffffffffffffffffffffffffffffffffffffffff16633408e4706040518163ffffffff1660e01b8152600401602060405180830381865afa158015610fcb573d5f5f3e3d5ffd5b505050506040513d601f19601f82011682018060405250810190610fef9190615d3c565b83836106b1565b5050565b5f7f885cb69240a935d632d79c317109709ecfa91a80626ff3989d68f67f5b1dd12d5f1c73ffffffffffffffffffffffffffffffffffffffff1663fa91454d836040518263ffffffff1660e01b81526004016110569190614597565b602060405180830381865afa92505050801561109057506040513d601f19601f8201168201806040525081019061108d9190615d3c565b60015b61117a577f885cb69240a935d632d79c317109709ecfa91a80626ff3989d68f67f5b1dd12d5f1c73ffffffffffffffffffffffffffffffffffffffff16634cc1c2bb836040518263ffffffff1660e01b81526004016110ef9190614597565b5f60405180830381865afa92505050801561112c57506040513d5f823e3d601f19601f820116820180604052508101906111299190615e38565b60015b61116d57816040517f97aa94df0000000000000000000000000000000000000000000000000000000081526004016111649190614597565b60405180910390fd5b806020015191505061117f565b809150505b919050565b5f5f60035f8581526020019081526020015f20836040516111a5919061574c565b908152602001604051809103902080546111be9061578f565b905011905092915050565b606060025f7f885cb69240a935d632d79c317109709ecfa91a80626ff3989d68f67f5b1dd12d5f1c73ffffffffffffffffffffffffffffffffffffffff16633408e4706040518163ffffffff1660e01b8152600401602060405180830381865afa158015611239573d5f5f3e3d5ffd5b505050506040513d601f19601f8201168201806040525081019061125d9190615d3c565b81526020019081526020015f2080546112759061578f565b80601f01602080910402602001604051908101604052809291908181526020018280546112a19061578f565b80156112ec5780601f106112c3576101008083540402835291602001916112ec565b820191905f5260205f20905b8154815290600101906020018083116112cf57829003601f168201915b5050505050905090565b5f604051806040016040528060078081111561131557611314614a29565b5b81526020015f1515815250905061132d8484836131d5565b8160405160200161133e9190615ec7565b60405160208183030381529060405260035f8681526020019081526020015f208460405161136c919061574c565b90815260200160405180910390209081611386919061595f565b5060055f9054906101000a900460ff161561146957611468846113bd835f015160078111156113b8576113b7614a29565b5b61332d565b856114637f885cb69240a935d632d79c317109709ecfa91a80626ff3989d68f67f5b1dd12d5f1c73ffffffffffffffffffffffffffffffffffffffff166371aad10d886040518263ffffffff1660e01b815260040161141c9190615ec7565b5f60405180830381865afa158015611436573d5f5f3e3d5ffd5b505050506040513d5f823e3d601f19601f8201168201806040525081019061145e9190615a9c565b613712565b61364b565b5b50505050565b6115087f885cb69240a935d632d79c317109709ecfa91a80626ff3989d68f67f5b1dd12d5f1c73ffffffffffffffffffffffffffffffffffffffff16633408e4706040518163ffffffff1660e01b8152600401602060405180830381865afa1580156114dd573d5f5f3e3d5ffd5b505050506040513d601f19601f820116820180604052508101906115019190615d3c565b83836127da565b5050565b5f60405180604001604052806002600781111561152c5761152b614a29565b5b81526020015f151581525090506115448484836131d5565b816040516020016115559190615ef6565b60405160208183030381529060405260035f8681526020019081526020015f2084604051611583919061574c565b9081526020016040518091039020908161159d919061595f565b5060055f9054906101000a900460ff16156116805761167f846115d4835f015160078111156115cf576115ce614a29565b5b61332d565b8561167a7f885cb69240a935d632d79c317109709ecfa91a80626ff3989d68f67f5b1dd12d5f1c73ffffffffffffffffffffffffffffffffffffffff166356ca623e886040518263ffffffff1660e01b81526004016116339190615ef6565b5f60405180830381865afa15801561164d573d5f5f3e3d5ffd5b505050506040513d5f823e3d601f19601f820116820180604052508101906116759190615a9c565b613712565b61364b565b5b50505050565b5f6040518060400160405280600260078111156116a6576116a5614a29565b5b81526020016001151581525090506116bf8484836131d5565b816040516020016116d09190615fc6565b60405160208183030381529060405260035f8681526020019081526020015f20846040516116fe919061574c565b90815260200160405180910390209081611718919061595f565b5060055f9054906101000a900460ff16156118e9575f6040518060400160405280600181526020017f5b0000000000000000000000000000000000000000000000000000000000000081525090505f5f90505b835181101561189b57816118347f885cb69240a935d632d79c317109709ecfa91a80626ff3989d68f67f5b1dd12d5f1c73ffffffffffffffffffffffffffffffffffffffff166356ca623e8785815181106117c9576117c8615bba565b5b60200260200101516040518263ffffffff1660e01b81526004016117ed9190615ef6565b5f60405180830381865afa158015611807573d5f5f3e3d5ffd5b505050506040513d5f823e3d601f19601f8201168201806040525081019061182f9190615a9c565b613712565b604051602001611845929190615c0f565b6040516020818303038152906040529150600184516118649190615c5f565b81101561188e578160405160200161187c9190615cb8565b60405160208183030381529060405291505b808060010191505061176b565b50806040516020016118ad9190615d03565b60405160208183030381529060405290506118e7856118e0845f015160078111156118db576118da614a29565b5b61332d565b868461364b565b505b50505050565b5f60405180604001604052806006600781111561190f5761190e614a29565b5b81526020015f151581525090506119278484836131d5565b816040516020016119389190614597565b60405160208183030381529060405260035f8681526020019081526020015f2084604051611966919061574c565b90815260200160405180910390209081611980919061595f565b5060055f9054906101000a900460ff16156119c7576119c6846119b7835f015160078111156119b2576119b1614a29565b5b61332d565b856119c186613712565b61364b565b5b50505050565b6119d5613d46565b611a6d7f885cb69240a935d632d79c317109709ecfa91a80626ff3989d68f67f5b1dd12d5f1c73ffffffffffffffffffffffffffffffffffffffff16633408e4706040518163ffffffff1660e01b8152600401602060405180830381865afa158015611a43573d5f5f3e3d5ffd5b505050506040513d601f19601f82011682018060405250810190611a679190615d3c565b83611bb2565b9050919050565b611b0d7f885cb69240a935d632d79c317109709ecfa91a80626ff3989d68f67f5b1dd12d5f1c73ffffffffffffffffffffffffffffffffffffffff16633408e4706040518163ffffffff1660e01b8152600401602060405180830381865afa158015611ae2573d5f5f3e3d5ffd5b505050506040513d601f19601f82011682018060405250810190611b069190615d3c565b8383612a9f565b5050565b606060025f8381526020019081526020015f208054611b2f9061578f565b80601f0160208091040260200160405190810160405280929190818152602001828054611b5b9061578f565b8015611ba65780601f10611b7d57610100808354040283529160200191611ba6565b820191905f5260205f20905b815481529060010190602001808311611b8957829003601f168201915b50505050509050919050565b611bba613d46565b604051806040016040528060045f8681526020019081526020015f2084604051611be4919061574c565b90815260200160405180910390206040518060400160405290815f82015f9054906101000a900460ff166007811115611c2057611c1f614a29565b5b6007811115611c3257611c31614a29565b5b81526020015f820160019054906101000a900460ff161515151581525050815260200160035f8681526020019081526020015f2084604051611c74919061574c565b90815260200160405180910390208054611c8d9061578f565b80601f0160208091040260200160405190810160405280929190818152602001828054611cb99061578f565b8015611d045780601f10611cdb57610100808354040283529160200191611d04565b820191905f5260205f20905b815481529060010190602001808311611ce757829003601f168201915b5050505050815250905092915050565b611dad7f885cb69240a935d632d79c317109709ecfa91a80626ff3989d68f67f5b1dd12d5f1c73ffffffffffffffffffffffffffffffffffffffff16633408e4706040518163ffffffff1660e01b8152600401602060405180830381865afa158015611d82573d5f5f3e3d5ffd5b505050506040513d601f19601f82011682018060405250810190611da69190615d3c565b8383611686565b5050565b611e4a7f885cb69240a935d632d79c317109709ecfa91a80626ff3989d68f67f5b1dd12d5f1c73ffffffffffffffffffffffffffffffffffffffff16633408e4706040518163ffffffff1660e01b8152600401602060405180830381865afa158015611e1f573d5f5f3e3d5ffd5b505050506040513d601f19601f82011682018060405250810190611e439190615d3c565b8383610c11565b5050565b5f604051806040016040528060056007811115611e6e57611e6d614a29565b5b8152602001600115158152509050611e878484836131d5565b81604051602001611e98919061609d565b60405160208183030381529060405260035f8681526020019081526020015f2084604051611ec6919061574c565b90815260200160405180910390209081611ee0919061595f565b5060055f9054906101000a900460ff16156120a9575f6040518060400160405280600181526020017f5b0000000000000000000000000000000000000000000000000000000000000081525090505f5f90505b835181101561205b57817f885cb69240a935d632d79c317109709ecfa91a80626ff3989d68f67f5b1dd12d5f1c73ffffffffffffffffffffffffffffffffffffffff1663a322c40e868481518110611f8e57611f8d615bba565b5b60200260200101516040518263ffffffff1660e01b8152600401611fb291906156f9565b5f60405180830381865afa158015611fcc573d5f5f3e3d5ffd5b505050506040513d5f823e3d601f19601f82011682018060405250810190611ff49190615a9c565b604051602001612005929190615c0f565b6040516020818303038152906040529150600184516120249190615c5f565b81101561204e578160405160200161203c9190615cb8565b60405160208183030381529060405291505b8080600101915050611f33565b508060405160200161206d9190615d03565b60405160208183030381529060405290506120a7856120a0845f0151600781111561209b5761209a614a29565b5b61332d565b868461364b565b505b50505050565b5f60405180604001604052806007808111156120ce576120cd614a29565b5b81526020016001151581525090506120e78484836131d5565b816040516020016120f89190616178565b60405160208183030381529060405260035f8681526020019081526020015f2084604051612126919061574c565b90815260200160405180910390209081612140919061595f565b5060055f9054906101000a900460ff1615612311575f6040518060400160405280600181526020017f5b0000000000000000000000000000000000000000000000000000000000000081525090505f5f90505b83518110156122c3578161225c7f885cb69240a935d632d79c317109709ecfa91a80626ff3989d68f67f5b1dd12d5f1c73ffffffffffffffffffffffffffffffffffffffff166371aad10d8785815181106121f1576121f0615bba565b5b60200260200101516040518263ffffffff1660e01b81526004016122159190615ec7565b5f60405180830381865afa15801561222f573d5f5f3e3d5ffd5b505050506040513d5f823e3d601f19601f820116820180604052508101906122579190615a9c565b613712565b60405160200161226d929190615c0f565b60405160208183030381529060405291506001845161228c9190615c5f565b8110156122b657816040516020016122a49190615cb8565b60405160208183030381529060405291505b8080600101915050612193565b50806040516020016122d59190615d03565b604051602081830303815290604052905061230f85612308845f0151600781111561230357612302614a29565b5b61332d565b868461364b565b505b50505050565b6123b07f885cb69240a935d632d79c317109709ecfa91a80626ff3989d68f67f5b1dd12d5f1c73ffffffffffffffffffffffffffffffffffffffff16633408e4706040518163ffffffff1660e01b8152600401602060405180830381865afa158015612385573d5f5f3e3d5ffd5b505050506040513d601f19601f820116820180604052508101906123a99190615d3c565b838361150c565b5050565b5f6040518060400160405280600160078111156123d4576123d3614a29565b5b81526020015f151581525090506123ec8484836131d5565b816040516020016123fd91906142d4565b60405160208183030381529060405260035f8681526020019081526020015f208460405161242b919061574c565b90815260200160405180910390209081612445919061595f565b5060055f9054906101000a900460ff16156125205761251f8461247c835f0151600781111561247757612476614a29565b5b61332d565b857f885cb69240a935d632d79c317109709ecfa91a80626ff3989d68f67f5b1dd12d5f1c73ffffffffffffffffffffffffffffffffffffffff166371dce7da876040518263ffffffff1660e01b81526004016124d891906142d4565b5f60405180830381865afa1580156124f2573d5f5f3e3d5ffd5b505050506040513d5f823e3d601f19601f8201168201806040525081019061251a9190615a9c565b61364b565b5b50505050565b6125bf7f885cb69240a935d632d79c317109709ecfa91a80626ff3989d68f67f5b1dd12d5f1c73ffffffffffffffffffffffffffffffffffffffff16633408e4706040518163ffffffff1660e01b8152600401602060405180830381865afa158015612594573d5f5f3e3d5ffd5b505050506040513d601f19601f820116820180604052508101906125b89190615d3c565b83836123b4565b5050565b61265c7f885cb69240a935d632d79c317109709ecfa91a80626ff3989d68f67f5b1dd12d5f1c73ffffffffffffffffffffffffffffffffffffffff16633408e4706040518163ffffffff1660e01b8152600401602060405180830381865afa158015612631573d5f5f3e3d5ffd5b505050506040513d601f19601f820116820180604052508101906126559190615d3c565b83836120af565b5050565b5f6040518060400160405280600360078111156126805761267f614a29565b5b81526020015f151581525090506126988484836131d5565b816040516020016126a99190615bf6565b60405160208183030381529060405260035f8681526020019081526020015f20846040516126d7919061574c565b908152602001604051809103902090816126f1919061595f565b5060055f9054906101000a900460ff16156127d4576127d384612728835f0151600781111561272357612722614a29565b5b61332d565b856127ce7f885cb69240a935d632d79c317109709ecfa91a80626ff3989d68f67f5b1dd12d5f1c73ffffffffffffffffffffffffffffffffffffffff1663b11a19e8886040518263ffffffff1660e01b81526004016127879190615bf6565b5f60405180830381865afa1580156127a1573d5f5f3e3d5ffd5b505050506040513d5f823e3d601f19601f820116820180604052508101906127c99190615a9c565b613712565b61364b565b5b50505050565b5f6040518060400160405280600660078111156127fa576127f9614a29565b5b81526020016001151581525090506128138484836131d5565b81604051602001612824919061629b565b60405160208183030381529060405260035f8681526020019081526020015f2084604051612852919061574c565b9081526020016040518091039020908161286c919061595f565b5060055f9054906101000a900460ff16156129a1575f6040518060400160405280600181526020017f5b0000000000000000000000000000000000000000000000000000000000000081525090505f5f90505b835181101561295357816128ec8583815181106128df576128de615bba565b5b6020026020010151613712565b6040516020016128fd929190615c0f565b60405160208183030381529060405291506001845161291c9190615c5f565b81101561294657816040516020016129349190615cb8565b60405160208183030381529060405291505b80806001019150506128bf565b50806040516020016129659190615d03565b604051602081830303815290604052905061299f85612998845f0151600781111561299357612992614a29565b5b61332d565b868461364b565b505b50505050565b808015612a4c57507f885cb69240a935d632d79c317109709ecfa91a80626ff3989d68f67f5b1dd12d5f1c73ffffffffffffffffffffffffffffffffffffffff166364af255d60046040518263ffffffff1660e01b8152600401612a0b9190616301565b602060405180830381865afa158015612a26573d5f5f3e3d5ffd5b505050506040513d601f19601f82011682018060405250810190612a4a919061632e565b155b15612a83576040517f2ebcd21800000000000000000000000000000000000000000000000000000000815260040160405180910390fd5b8060055f6101000a81548160ff02191690831515021790555050565b5f604051806040016040528060046007811115612abf57612abe614a29565b5b8152602001600115158152509050612ad88484836131d5565b81604051602001612ae991906141e7565b60405160208183030381529060405260035f8681526020019081526020015f2084604051612b17919061574c565b90815260200160405180910390209081612b31919061595f565b5060055f9054906101000a900460ff1615612cfa575f6040518060400160405280600181526020017f5b0000000000000000000000000000000000000000000000000000000000000081525090505f5f90505b8351811015612cac57817f885cb69240a935d632d79c317109709ecfa91a80626ff3989d68f67f5b1dd12d5f1c73ffffffffffffffffffffffffffffffffffffffff16636900a3ae868481518110612bdf57612bde615bba565b5b60200260200101516040518263ffffffff1660e01b8152600401612c0391906144c4565b5f60405180830381865afa158015612c1d573d5f5f3e3d5ffd5b505050506040513d5f823e3d601f19601f82011682018060405250810190612c459190615a9c565b604051602001612c56929190615c0f565b604051602081830303815290604052915060018451612c759190615c5f565b811015612c9f5781604051602001612c8d9190615cb8565b60405160208183030381529060405291505b8080600101915050612b84565b5080604051602001612cbe9190615d03565b6040516020818303038152906040529050612cf885612cf1845f01516007811115612cec57612ceb614a29565b5b61332d565b868461364b565b505b50505050565b612d997f885cb69240a935d632d79c317109709ecfa91a80626ff3989d68f67f5b1dd12d5f1c73ffffffffffffffffffffffffffffffffffffffff16633408e4706040518163ffffffff1660e01b8152600401602060405180830381865afa158015612d6e573d5f5f3e3d5ffd5b505050506040513d601f19601f82011682018060405250810190612d929190615d3c565b8383611e4e565b5050565b5f604051806040016040528060016007811115612dbd57612dbc614a29565b5b8152602001600115158152509050612dd68484836131d5565b81604051602001612de79190616401565b60405160208183030381529060405260035f8681526020019081526020015f2084604051612e15919061574c565b90815260200160405180910390209081612e2f919061595f565b5060055f9054906101000a900460ff1615612ff8575f6040518060400160405280600181526020017f5b0000000000000000000000000000000000000000000000000000000000000081525090505f5f90505b8351811015612faa57817f885cb69240a935d632d79c317109709ecfa91a80626ff3989d68f67f5b1dd12d5f1c73ffffffffffffffffffffffffffffffffffffffff166371dce7da868481518110612edd57612edc615bba565b5b60200260200101516040518263ffffffff1660e01b8152600401612f0191906142d4565b5f60405180830381865afa158015612f1b573d5f5f3e3d5ffd5b505050506040513d5f823e3d601f19601f82011682018060405250810190612f439190615a9c565b604051602001612f54929190615c0f565b604051602081830303815290604052915060018451612f739190615c5f565b811015612f9d5781604051602001612f8b9190615cb8565b60405160208183030381529060405291505b8080600101915050612e82565b5080604051602001612fbc9190615d03565b6040516020818303038152906040529050612ff685612fef845f01516007811115612fea57612fe9614a29565b5b61332d565b868461364b565b505b50505050565b6130977f885cb69240a935d632d79c317109709ecfa91a80626ff3989d68f67f5b1dd12d5f1c73ffffffffffffffffffffffffffffffffffffffff16633408e4706040518163ffffffff1660e01b8152600401602060405180830381865afa15801561306c573d5f5f3e3d5ffd5b505050506040513d601f19601f820116820180604052508101906130909190615d3c565b8383610823565b5050565b6131347f885cb69240a935d632d79c317109709ecfa91a80626ff3989d68f67f5b1dd12d5f1c73ffffffffffffffffffffffffffffffffffffffff16633408e4706040518163ffffffff1660e01b8152600401602060405180830381865afa158015613109573d5f5f3e3d5ffd5b505050506040513d601f19601f8201168201806040525081019061312d9190615d3c565b83836118ef565b5050565b6131d17f885cb69240a935d632d79c317109709ecfa91a80626ff3989d68f67f5b1dd12d5f1c73ffffffffffffffffffffffffffffffffffffffff16633408e4706040518163ffffffff1660e01b8152600401602060405180830381865afa1580156131a6573d5f5f3e3d5ffd5b505050506040513d601f19601f820116820180604052508101906131ca9190615d3c565b8383612d9d565b5050565b5f60045f8581526020019081526020015f20836040516131f5919061574c565b90815260200160405180910390206040518060400160405290815f82015f9054906101000a900460ff16600781111561323157613230614a29565b5b600781111561324357613242614a29565b5b81526020015f820160019054906101000a900460ff16151515158152505090505f600781111561327657613275614a29565b5b815f0151600781111561328c5761328b614a29565b5b03613313578160045f8681526020019081526020015f20846040516132b1919061574c565b90815260200160405180910390205f820151815f015f6101000a81548160ff021916908360078111156132e7576132e6614a29565b5b02179055506020820151815f0160016101000a81548160ff021916908315150217905550905050613327565b613326828261373b90919063ffffffff16565b5b50505050565b60606001600781111561334357613342614a29565b5b82600781111561335657613355614a29565b5b03613398576040518060400160405280600481526020017f626f6f6c000000000000000000000000000000000000000000000000000000008152509050613646565b600260078111156133ac576133ab614a29565b5b8260078111156133bf576133be614a29565b5b03613401576040518060400160405280600781526020017f61646472657373000000000000000000000000000000000000000000000000008152509050613646565b6003600781111561341557613414614a29565b5b82600781111561342857613427614a29565b5b0361346a576040518060400160405280600781526020017f62797465733332000000000000000000000000000000000000000000000000008152509050613646565b6004600781111561347e5761347d614a29565b5b82600781111561349157613490614a29565b5b036134d3576040518060400160405280600481526020017f75696e74000000000000000000000000000000000000000000000000000000008152509050613646565b600560078111156134e7576134e6614a29565b5b8260078111156134fa576134f9614a29565b5b0361353c576040518060400160405280600381526020017f696e7400000000000000000000000000000000000000000000000000000000008152509050613646565b600660078111156135505761354f614a29565b5b82600781111561356357613562614a29565b5b036135a5576040518060400160405280600681526020017f737472696e6700000000000000000000000000000000000000000000000000008152509050613646565b6007808111156135b8576135b7614a29565b5b8260078111156135cb576135ca614a29565b5b0361360d576040518060400160405280600581526020017f62797465730000000000000000000000000000000000000000000000000000008152509050613646565b6040518060400160405280600481526020017f6e6f6e650000000000000000000000000000000000000000000000000000000081525090505b919050565b5f6136558561379c565b90505f81858560405160200161366d9392919061646d565b60405160208183030381529060405290507f885cb69240a935d632d79c317109709ecfa91a80626ff3989d68f67f5b1dd12d5f1c73ffffffffffffffffffffffffffffffffffffffff166351ac6a33845f846040518463ffffffff1660e01b81526004016136dd9392919061655d565b5f604051808303815f87803b1580156136f4575f5ffd5b505af1158015613706573d5f5f3e3d5ffd5b50505050505050505050565b60608160405160200161372591906165cd565b6040516020818303038152906040529050919050565b613745828261395c565b61379857613752816139a9565b61375b836139a9565b6040517fb02cf71d00000000000000000000000000000000000000000000000000000000815260040161378f929190616601565b60405180910390fd5b5050565b60605f5f90505b600180549050811015613919578261385c600183815481106137c8576137c7615bba565b5b905f5260205f200180546137db9061578f565b80601f01602080910402602001604051908101604052809291908181526020018280546138079061578f565b80156138525780601f1061382957610100808354040283529160200191613852565b820191905f5260205f20905b81548152906001019060200180831161383557829003601f168201915b5050505050610ffa565b0361390c576001818154811061387557613874615bba565b5b905f5260205f200180546138889061578f565b80601f01602080910402602001604051908101604052809291908181526020018280546138b49061578f565b80156138ff5780601f106138d6576101008083540402835291602001916138ff565b820191905f5260205f20905b8154815290600101906020018083116138e257829003601f168201915b5050505050915050613957565b80806001019150506137a3565b50816040517f3ff29f0600000000000000000000000000000000000000000000000000000000815260040161394e91906144c4565b60405180910390fd5b919050565b5f815f0151600781111561397357613972614a29565b5b835f0151600781111561398957613988614a29565b5b1480156139a157508160200151151583602001511515145b905092915050565b60605f6139b8835f0151613a28565b9050826020015115806139f157505f60078111156139d9576139d8614a29565b5b835f015160078111156139ef576139ee614a29565b5b145b156139ff5780915050613a23565b80604051602001613a10919061665c565b6040516020818303038152906040529150505b919050565b606060016007811115613a3e57613a3d614a29565b5b826007811115613a5157613a50614a29565b5b03613a93576040518060400160405280600481526020017f626f6f6c000000000000000000000000000000000000000000000000000000008152509050613d41565b60026007811115613aa757613aa6614a29565b5b826007811115613aba57613ab9614a29565b5b03613afc576040518060400160405280600781526020017f61646472657373000000000000000000000000000000000000000000000000008152509050613d41565b60036007811115613b1057613b0f614a29565b5b826007811115613b2357613b22614a29565b5b03613b65576040518060400160405280600781526020017f62797465733332000000000000000000000000000000000000000000000000008152509050613d41565b60046007811115613b7957613b78614a29565b5b826007811115613b8c57613b8b614a29565b5b03613bce576040518060400160405280600781526020017f75696e74323536000000000000000000000000000000000000000000000000008152509050613d41565b60056007811115613be257613be1614a29565b5b826007811115613bf557613bf4614a29565b5b03613c37576040518060400160405280600681526020017f696e7432353600000000000000000000000000000000000000000000000000008152509050613d41565b60066007811115613c4b57613c4a614a29565b5b826007811115613c5e57613c5d614a29565b5b03613ca0576040518060400160405280600681526020017f737472696e6700000000000000000000000000000000000000000000000000008152509050613d41565b600780811115613cb357613cb2614a29565b5b826007811115613cc657613cc5614a29565b5b03613d08576040518060400160405280600581526020017f62797465730000000000000000000000000000000000000000000000000000008152509050613d41565b6040518060400160405280600481526020017f6e6f6e650000000000000000000000000000000000000000000000000000000081525090505b919050565b6040518060400160405280613d59613d66565b8152602001606081525090565b60405180604001604052805f6007811115613d8457613d83614a29565b5b81526020015f151581525090565b5f604051905090565b5f5ffd5b5f5ffd5b5f819050919050565b613db581613da3565b8114613dbf575f5ffd5b50565b5f81359050613dd081613dac565b92915050565b5f5ffd5b5f5ffd5b5f601f19601f8301169050919050565b7f4e487b71000000000000000000000000000000000000000000000000000000005f52604160045260245ffd5b613e2482613dde565b810181811067ffffffffffffffff82111715613e4357613e42613dee565b5b80604052505050565b5f613e55613d92565b9050613e618282613e1b565b919050565b5f67ffffffffffffffff821115613e8057613e7f613dee565b5b613e8982613dde565b9050602081019050919050565b828183375f83830152505050565b5f613eb6613eb184613e66565b613e4c565b905082815260208101848484011115613ed257613ed1613dda565b5b613edd848285613e96565b509392505050565b5f82601f830112613ef957613ef8613dd6565b5b8135613f09848260208601613ea4565b91505092915050565b5f819050919050565b613f2481613f12565b8114613f2e575f5ffd5b50565b5f81359050613f3f81613f1b565b92915050565b5f5f5f60608486031215613f5c57613f5b613d9b565b5b5f613f6986828701613dc2565b935050602084013567ffffffffffffffff811115613f8a57613f89613d9f565b5b613f9686828701613ee5565b9250506040613fa786828701613f31565b9150509250925092565b5f67ffffffffffffffff821115613fcb57613fca613dee565b5b602082029050602081019050919050565b5f5ffd5b5f819050919050565b613ff281613fe0565b8114613ffc575f5ffd5b50565b5f8135905061400d81613fe9565b92915050565b5f61402561402084613fb1565b613e4c565b9050808382526020820190506020840283018581111561404857614047613fdc565b5b835b81811015614071578061405d8882613fff565b84526020840193505060208101905061404a565b5050509392505050565b5f82601f83011261408f5761408e613dd6565b5b813561409f848260208601614013565b91505092915050565b5f5f5f606084860312156140bf576140be613d9b565b5b5f6140cc86828701613dc2565b935050602084013567ffffffffffffffff8111156140ed576140ec613d9f565b5b6140f986828701613ee5565b925050604084013567ffffffffffffffff81111561411a57614119613d9f565b5b6141268682870161407b565b9150509250925092565b5f81519050919050565b5f82825260208201905092915050565b5f819050602082019050919050565b61416281613da3565b82525050565b5f6141738383614159565b60208301905092915050565b5f602082019050919050565b5f61419582614130565b61419f818561413a565b93506141aa8361414a565b805f5b838110156141da5781516141c18882614168565b97506141cc8361417f565b9250506001810190506141ad565b5085935050505092915050565b5f6020820190508181035f8301526141ff818461418b565b905092915050565b5f5f5f6060848603121561421e5761421d613d9b565b5b5f61422b86828701613dc2565b935050602084013567ffffffffffffffff81111561424c5761424b613d9f565b5b61425886828701613ee5565b925050604061426986828701613dc2565b9150509250925092565b5f6020828403121561428857614287613d9b565b5b5f82013567ffffffffffffffff8111156142a5576142a4613d9f565b5b6142b184828501613ee5565b91505092915050565b5f8115159050919050565b6142ce816142ba565b82525050565b5f6020820190506142e75f8301846142c5565b92915050565b5f67ffffffffffffffff82111561430757614306613dee565b5b61431082613dde565b9050602081019050919050565b5f61432f61432a846142ed565b613e4c565b90508281526020810184848401111561434b5761434a613dda565b5b614356848285613e96565b509392505050565b5f82601f83011261437257614371613dd6565b5b813561438284826020860161431d565b91505092915050565b5f5f604083850312156143a1576143a0613d9b565b5b5f83013567ffffffffffffffff8111156143be576143bd613d9f565b5b6143ca85828601613ee5565b925050602083013567ffffffffffffffff8111156143eb576143ea613d9f565b5b6143f78582860161435e565b9150509250929050565b5f5f6040838503121561441757614416613d9b565b5b5f83013567ffffffffffffffff81111561443457614433613d9f565b5b61444085828601613ee5565b925050602061445185828601613fff565b9150509250929050565b5f5f6040838503121561447157614470613d9b565b5b5f83013567ffffffffffffffff81111561448e5761448d613d9f565b5b61449a85828601613ee5565b92505060206144ab85828601613f31565b9150509250929050565b6144be81613da3565b82525050565b5f6020820190506144d75f8301846144b5565b92915050565b5f5f604083850312156144f3576144f2613d9b565b5b5f61450085828601613dc2565b925050602083013567ffffffffffffffff81111561452157614520613d9f565b5b61452d85828601613ee5565b9150509250929050565b5f81519050919050565b5f82825260208201905092915050565b8281835e5f83830152505050565b5f61456982614537565b6145738185614541565b9350614583818560208601614551565b61458c81613dde565b840191505092915050565b5f6020820190508181035f8301526145af818461455f565b905092915050565b5f5f5f606084860312156145ce576145cd613d9b565b5b5f6145db86828701613dc2565b935050602084013567ffffffffffffffff8111156145fc576145fb613d9f565b5b61460886828701613ee5565b925050604084013567ffffffffffffffff81111561462957614628613d9f565b5b6146358682870161435e565b9150509250925092565b5f67ffffffffffffffff82111561465957614658613dee565b5b602082029050602081019050919050565b5f61467c6146778461463f565b613e4c565b9050808382526020820190506020840283018581111561469f5761469e613fdc565b5b835b818110156146e657803567ffffffffffffffff8111156146c4576146c3613dd6565b5b8086016146d18982613ee5565b855260208501945050506020810190506146a1565b5050509392505050565b5f82601f83011261470457614703613dd6565b5b813561471484826020860161466a565b91505092915050565b5f5f6040838503121561473357614732613d9b565b5b5f83013567ffffffffffffffff8111156147505761474f613d9f565b5b61475c85828601613ee5565b925050602083013567ffffffffffffffff81111561477d5761477c613d9f565b5b614789858286016146f0565b9150509250929050565b5f73ffffffffffffffffffffffffffffffffffffffff82169050919050565b5f6147bc82614793565b9050919050565b6147cc816147b2565b81146147d6575f5ffd5b50565b5f813590506147e7816147c3565b92915050565b5f5f5f6060848603121561480457614803613d9b565b5b5f61481186828701613dc2565b935050602084013567ffffffffffffffff81111561483257614831613d9f565b5b61483e86828701613ee5565b925050604061484f868287016147d9565b9150509250925092565b5f67ffffffffffffffff82111561487357614872613dee565b5b602082029050602081019050919050565b5f61489661489184614859565b613e4c565b905080838252602082019050602084028301858111156148b9576148b8613fdc565b5b835b818110156148e257806148ce88826147d9565b8452602084019350506020810190506148bb565b5050509392505050565b5f82601f830112614900576148ff613dd6565b5b8135614910848260208601614884565b91505092915050565b5f5f5f606084860312156149305761492f613d9b565b5b5f61493d86828701613dc2565b935050602084013567ffffffffffffffff81111561495e5761495d613d9f565b5b61496a86828701613ee5565b925050604084013567ffffffffffffffff81111561498b5761498a613d9f565b5b614997868287016148ec565b9150509250925092565b5f5f5f606084860312156149b8576149b7613d9b565b5b5f6149c586828701613dc2565b935050602084013567ffffffffffffffff8111156149e6576149e5613d9f565b5b6149f286828701613ee5565b925050604084013567ffffffffffffffff811115614a1357614a12613d9f565b5b614a1f86828701613ee5565b9150509250925092565b7f4e487b71000000000000000000000000000000000000000000000000000000005f52602160045260245ffd5b60088110614a6757614a66614a29565b5b50565b5f819050614a7782614a56565b919050565b5f614a8682614a6a565b9050919050565b614a9681614a7c565b82525050565b614aa5816142ba565b82525050565b604082015f820151614abf5f850182614a8d565b506020820151614ad26020850182614a9c565b50505050565b5f81519050919050565b5f82825260208201905092915050565b5f614afc82614ad8565b614b068185614ae2565b9350614b16818560208601614551565b614b1f81613dde565b840191505092915050565b5f606083015f830151614b3f5f860182614aab565b5060208301518482036040860152614b578282614af2565b9150508091505092915050565b5f6020820190508181035f830152614b7c8184614b2a565b905092915050565b5f67ffffffffffffffff821115614b9e57614b9d613dee565b5b602082029050602081019050919050565b5f614bc1614bbc84614b84565b613e4c565b90508083825260208201905060208402830185811115614be457614be3613fdc565b5b835b81811015614c0d5780614bf98882613dc2565b845260208401935050602081019050614be6565b5050509392505050565b5f82601f830112614c2b57614c2a613dd6565b5b8135614c3b848260208601614baf565b91505092915050565b5f5f60408385031215614c5a57614c59613d9b565b5b5f83013567ffffffffffffffff811115614c7757614c76613d9f565b5b614c8385828601613ee5565b925050602083013567ffffffffffffffff811115614ca457614ca3613d9f565b5b614cb085828601614c17565b9150509250929050565b5f60208284031215614ccf57614cce613d9b565b5b5f614cdc84828501613dc2565b91505092915050565b5f5f60408385031215614cfb57614cfa613d9b565b5b5f83013567ffffffffffffffff811115614d1857614d17613d9f565b5b614d2485828601613ee5565b925050602083013567ffffffffffffffff811115614d4557614d44613d9f565b5b614d51858286016148ec565b9150509250929050565b5f5f60408385031215614d7157614d70613d9b565b5b5f83013567ffffffffffffffff811115614d8e57614d8d613d9f565b5b614d9a85828601613ee5565b9250506020614dab85828601613dc2565b9150509250929050565b5f67ffffffffffffffff821115614dcf57614dce613dee565b5b602082029050602081019050919050565b5f614df2614ded84614db5565b613e4c565b90508083825260208201905060208402830185811115614e1557614e14613fdc565b5b835b81811015614e3e5780614e2a8882613f31565b845260208401935050602081019050614e17565b5050509392505050565b5f82601f830112614e5c57614e5b613dd6565b5b8135614e6c848260208601614de0565b91505092915050565b5f5f5f60608486031215614e8c57614e8b613d9b565b5b5f614e9986828701613dc2565b935050602084013567ffffffffffffffff811115614eba57614eb9613d9f565b5b614ec686828701613ee5565b925050604084013567ffffffffffffffff811115614ee757614ee6613d9f565b5b614ef386828701614e48565b9150509250925092565b5f67ffffffffffffffff821115614f1757614f16613dee565b5b602082029050602081019050919050565b5f614f3a614f3584614efd565b613e4c565b90508083825260208201905060208402830185811115614f5d57614f5c613fdc565b5b835b81811015614fa457803567ffffffffffffffff811115614f8257614f81613dd6565b5b808601614f8f898261435e565b85526020850194505050602081019050614f5f565b5050509392505050565b5f82601f830112614fc257614fc1613dd6565b5b8135614fd2848260208601614f28565b91505092915050565b5f5f5f60608486031215614ff257614ff1613d9b565b5b5f614fff86828701613dc2565b935050602084013567ffffffffffffffff8111156150205761501f613d9f565b5b61502c86828701613ee5565b925050604084013567ffffffffffffffff81111561504d5761504c613d9f565b5b61505986828701614fae565b9150509250925092565b5f5f6040838503121561507957615078613d9b565b5b5f83013567ffffffffffffffff81111561509657615095613d9f565b5b6150a285828601613ee5565b92505060206150b3858286016147d9565b9150509250929050565b6150c6816142ba565b81146150d0575f5ffd5b50565b5f813590506150e1816150bd565b92915050565b5f5f5f606084860312156150fe576150fd613d9b565b5b5f61510b86828701613dc2565b935050602084013567ffffffffffffffff81111561512c5761512b613d9f565b5b61513886828701613ee5565b9250506040615149868287016150d3565b9150509250925092565b5f5f6040838503121561516957615168613d9b565b5b5f83013567ffffffffffffffff81111561518657615185613d9f565b5b61519285828601613ee5565b92505060206151a3858286016150d3565b9150509250929050565b5f5f604083850312156151c3576151c2613d9b565b5b5f83013567ffffffffffffffff8111156151e0576151df613d9f565b5b6151ec85828601613ee5565b925050602083013567ffffffffffffffff81111561520d5761520c613d9f565b5b61521985828601614fae565b9150509250929050565b5f5f5f6060848603121561523a57615239613d9b565b5b5f61524786828701613dc2565b935050602084013567ffffffffffffffff81111561526857615267613d9f565b5b61527486828701613ee5565b925050604061528586828701613fff565b9150509250925092565b5f5f5f606084860312156152a6576152a5613d9b565b5b5f6152b386828701613dc2565b935050602084013567ffffffffffffffff8111156152d4576152d3613d9f565b5b6152e086828701613ee5565b925050604084013567ffffffffffffffff81111561530157615300613d9f565b5b61530d868287016146f0565b9150509250925092565b5f6020828403121561532c5761532b613d9b565b5b5f615339848285016150d3565b91505092915050565b5f5f5f6060848603121561535957615358613d9b565b5b5f61536686828701613dc2565b935050602084013567ffffffffffffffff81111561538757615386613d9f565b5b61539386828701613ee5565b925050604084013567ffffffffffffffff8111156153b4576153b3613d9f565b5b6153c086828701614c17565b9150509250925092565b5f5f604083850312156153e0576153df613d9b565b5b5f83013567ffffffffffffffff8111156153fd576153fc613d9f565b5b61540985828601613ee5565b925050602083013567ffffffffffffffff81111561542a57615429613d9f565b5b61543685828601614e48565b9150509250929050565b5f67ffffffffffffffff82111561545a57615459613dee565b5b602082029050602081019050919050565b5f61547d61547884615440565b613e4c565b905080838252602082019050602084028301858111156154a05761549f613fdc565b5b835b818110156154c957806154b588826150d3565b8452602084019350506020810190506154a2565b5050509392505050565b5f82601f8301126154e7576154e6613dd6565b5b81356154f784826020860161546b565b91505092915050565b5f5f5f6060848603121561551757615516613d9b565b5b5f61552486828701613dc2565b935050602084013567ffffffffffffffff81111561554557615544613d9f565b5b61555186828701613ee5565b925050604084013567ffffffffffffffff81111561557257615571613d9f565b5b61557e868287016154d3565b9150509250925092565b5f5f6040838503121561559e5761559d613d9b565b5b5f83013567ffffffffffffffff8111156155bb576155ba613d9f565b5b6155c785828601613ee5565b925050602083013567ffffffffffffffff8111156155e8576155e7613d9f565b5b6155f48582860161407b565b9150509250929050565b5f5f6040838503121561561457615613613d9b565b5b5f83013567ffffffffffffffff81111561563157615630613d9f565b5b61563d85828601613ee5565b925050602083013567ffffffffffffffff81111561565e5761565d613d9f565b5b61566a85828601613ee5565b9150509250929050565b5f5f6040838503121561568a57615689613d9b565b5b5f83013567ffffffffffffffff8111156156a7576156a6613d9f565b5b6156b385828601613ee5565b925050602083013567ffffffffffffffff8111156156d4576156d3613d9f565b5b6156e0858286016154d3565b9150509250929050565b6156f381613f12565b82525050565b5f60208201905061570c5f8301846156ea565b92915050565b5f81905092915050565b5f61572682614537565b6157308185615712565b9350615740818560208601614551565b80840191505092915050565b5f615757828461571c565b915081905092915050565b7f4e487b71000000000000000000000000000000000000000000000000000000005f52602260045260245ffd5b5f60028204905060018216806157a657607f821691505b6020821081036157b9576157b8615762565b5b50919050565b5f819050815f5260205f209050919050565b5f6020601f8301049050919050565b5f82821b905092915050565b5f6008830261581b7fffffffffffffffffffffffffffffffffffffffffffffffffffffffffffffffff826157e0565b61582586836157e0565b95508019841693508086168417925050509392505050565b5f819050919050565b5f61586061585b61585684613da3565b61583d565b613da3565b9050919050565b5f819050919050565b61587983615846565b61588d61588582615867565b8484546157ec565b825550505050565b5f5f905090565b6158a4615895565b6158af818484615870565b505050565b5b818110156158d2576158c75f8261589c565b6001810190506158b5565b5050565b601f821115615917576158e8816157bf565b6158f1846157d1565b81016020851015615900578190505b61591461590c856157d1565b8301826158b4565b50505b505050565b5f82821c905092915050565b5f6159375f198460080261591c565b1980831691505092915050565b5f61594f8383615928565b9150826002028217905092915050565b61596882614ad8565b67ffffffffffffffff81111561598157615980613dee565b5b61598b825461578f565b6159968282856158d6565b5f60209050601f8311600181146159c7575f84156159b5578287015190505b6159bf8582615944565b865550615a26565b601f1984166159d5866157bf565b5f5b828110156159fc578489015182556001820191506020850194506020810190506159d7565b86831015615a195784890151615a15601f891682615928565b8355505b6001600288020188555050505b505050505050565b5f615a40615a3b84613e66565b613e4c565b905082815260208101848484011115615a5c57615a5b613dda565b5b615a67848285614551565b509392505050565b5f82601f830112615a8357615a82613dd6565b5b8151615a93848260208601615a2e565b91505092915050565b5f60208284031215615ab157615ab0613d9b565b5b5f82015167ffffffffffffffff811115615ace57615acd613d9f565b5b615ada84828501615a6f565b91505092915050565b5f81519050919050565b5f82825260208201905092915050565b5f819050602082019050919050565b615b1581613fe0565b82525050565b5f615b268383615b0c565b60208301905092915050565b5f602082019050919050565b5f615b4882615ae3565b615b528185615aed565b9350615b5d83615afd565b805f5b83811015615b8d578151615b748882615b1b565b9750615b7f83615b32565b925050600181019050615b60565b5085935050505092915050565b5f6020820190508181035f830152615bb28184615b3e565b905092915050565b7f4e487b71000000000000000000000000000000000000000000000000000000005f52603260045260245ffd5b615bf081613fe0565b82525050565b5f602082019050615c095f830184615be7565b92915050565b5f615c1a828561571c565b9150615c26828461571c565b91508190509392505050565b7f4e487b71000000000000000000000000000000000000000000000000000000005f52601160045260245ffd5b5f615c6982613da3565b9150615c7483613da3565b9250828203905081811115615c8c57615c8b615c32565b5b92915050565b7f2c00000000000000000000000000000000000000000000000000000000000000815250565b5f615cc3828461571c565b9150615cce82615c92565b60018201915081905092915050565b7f5d00000000000000000000000000000000000000000000000000000000000000815250565b5f615d0e828461571c565b9150615d1982615cdd565b60018201915081905092915050565b5f81519050615d3681613dac565b92915050565b5f60208284031215615d5157615d50613d9b565b5b5f615d5e84828501615d28565b91505092915050565b5f5ffd5b5f5ffd5b5f60808284031215615d8457615d83615d67565b5b615d8e6080613e4c565b90505f82015167ffffffffffffffff811115615dad57615dac615d6b565b5b615db984828501615a6f565b5f830152506020615dcc84828501615d28565b602083015250604082015167ffffffffffffffff811115615df057615def615d6b565b5b615dfc84828501615a6f565b604083015250606082015167ffffffffffffffff811115615e2057615e1f615d6b565b5b615e2c84828501615a6f565b60608301525092915050565b5f60208284031215615e4d57615e4c613d9b565b5b5f82015167ffffffffffffffff811115615e6a57615e69613d9f565b5b615e7684828501615d6f565b91505092915050565b5f82825260208201905092915050565b5f615e9982614ad8565b615ea38185615e7f565b9350615eb3818560208601614551565b615ebc81613dde565b840191505092915050565b5f6020820190508181035f830152615edf8184615e8f565b905092915050565b615ef0816147b2565b82525050565b5f602082019050615f095f830184615ee7565b92915050565b5f81519050919050565b5f82825260208201905092915050565b5f819050602082019050919050565b615f41816147b2565b82525050565b5f615f528383615f38565b60208301905092915050565b5f602082019050919050565b5f615f7482615f0f565b615f7e8185615f19565b9350615f8983615f29565b805f5b83811015615fb9578151615fa08882615f47565b9750615fab83615f5e565b925050600181019050615f8c565b5085935050505092915050565b5f6020820190508181035f830152615fde8184615f6a565b905092915050565b5f81519050919050565b5f82825260208201905092915050565b5f819050602082019050919050565b61601881613f12565b82525050565b5f616029838361600f565b60208301905092915050565b5f602082019050919050565b5f61604b82615fe6565b6160558185615ff0565b935061606083616000565b805f5b83811015616090578151616077888261601e565b975061608283616035565b925050600181019050616063565b5085935050505092915050565b5f6020820190508181035f8301526160b58184616041565b905092915050565b5f81519050919050565b5f82825260208201905092915050565b5f819050602082019050919050565b5f6160f18383614af2565b905092915050565b5f602082019050919050565b5f61610f826160bd565b61611981856160c7565b93508360208202850161612b856160d7565b805f5b85811015616166578484038952815161614785826160e6565b9450616152836160f9565b925060208a0199505060018101905061612e565b50829750879550505050505092915050565b5f6020820190508181035f8301526161908184616105565b905092915050565b5f81519050919050565b5f82825260208201905092915050565b5f819050602082019050919050565b5f82825260208201905092915050565b5f6161db82614537565b6161e581856161c1565b93506161f5818560208601614551565b6161fe81613dde565b840191505092915050565b5f61621483836161d1565b905092915050565b5f602082019050919050565b5f61623282616198565b61623c81856161a2565b93508360208202850161624e856161b2565b805f5b85811015616289578484038952815161626a8582616209565b94506162758361621c565b925060208a01995050600181019050616251565b50829750879550505050505092915050565b5f6020820190508181035f8301526162b38184616228565b905092915050565b600981106162cc576162cb614a29565b5b50565b5f8190506162dc826162bb565b919050565b5f6162eb826162cf565b9050919050565b6162fb816162e1565b82525050565b5f6020820190506163145f8301846162f2565b92915050565b5f81519050616328816150bd565b92915050565b5f6020828403121561634357616342613d9b565b5b5f6163508482850161631a565b91505092915050565b5f81519050919050565b5f82825260208201905092915050565b5f819050602082019050919050565b5f61638d8383614a9c565b60208301905092915050565b5f602082019050919050565b5f6163af82616359565b6163b98185616363565b93506163c483616373565b805f5b838110156163f45781516163db8882616382565b97506163e683616399565b9250506001810190506163c7565b5085935050505092915050565b5f6020820190508181035f83015261641981846163a5565b905092915050565b7f242e000000000000000000000000000000000000000000000000000000000000815250565b7f2e00000000000000000000000000000000000000000000000000000000000000815250565b5f61647782616421565b600282019150616487828661571c565b915061649282616447565b6001820191506164a2828561571c565b91506164ad82616447565b6001820191506164bd828461571c565b9150819050949350505050565b5f819050815f5260205f209050919050565b5f81546164e88161578f565b6164f28186614541565b9450600182165f811461650c576001811461652257616554565b60ff198316865281151560200286019350616554565b61652b856164ca565b5f5b8381101561654c5781548189015260018201915060208101905061652d565b808801955050505b50505092915050565b5f6060820190508181035f830152616575818661455f565b9050818103602083015261658981856164dc565b9050818103604083015261659d818461455f565b9050949350505050565b7f2200000000000000000000000000000000000000000000000000000000000000815250565b5f6165d7826165a7565b6001820191506165e7828461571c565b91506165f2826165a7565b60018201915081905092915050565b5f6040820190508181035f830152616619818561455f565b9050818103602083015261662d818461455f565b90509392505050565b7f5b5d000000000000000000000000000000000000000000000000000000000000815250565b5f616667828461571c565b915061667282616636565b6002820191508190509291505056fea26469706673582212202a65facddece7aafd2ca44878d4a0a7f7a7259f796acbf89196db2870d89c41e64736f6c634300081e0033","linkReferences":{}},"methodIdentifiers":{"exists(string)":"261a323e","exists(uint256,string)":"43d9eb7b","get(string)":"693ec85e","get(uint256,string)":"805da4ad","getChainIds()":"1d776323","getRpcUrl()":"43ec8b6a","getRpcUrl(uint256)":"7df3ef12","resolveChainId(string)":"3f3a7588","set(string,address)":"a815ff15","set(string,address[])":"88c63d45","set(string,bool)":"ba0ff22c","set(string,bool[])":"fa3c074a","set(string,bytes)":"2b29c0fa","set(string,bytes32)":"2e3196a5","set(string,bytes32[])":"e6053250","set(string,bytes[])":"c91ca7ba","set(string,int256)":"2ef8ba74","set(string,int256[])":"de0fc9b3","set(string,string)":"e942b516","set(string,string[])":"59b39526","set(string,uint256)":"8a42ebe9","set(string,uint256[])":"7b8fed81","set(uint256,string,address)":"5eba0df0","set(uint256,string,address[])":"61141c97","set(uint256,string,bool)":"b3a64001","set(uint256,string,bool[])":"e298d00b","set(uint256,string,bytes)":"4d85ce80","set(uint256,string,bytes32)":"cf1cfa99","set(uint256,string,bytes32[])":"08f7b4b2","set(uint256,string,bytes[])":"93dbe6e0","set(uint256,string,int256)":"07d79d9a","set(uint256,string,int256[])":"8be19924","set(uint256,string,string)":"65560950","set(uint256,string,string[])":"cf72a2f3","set(uint256,string,uint256)":"22dc48fd","set(uint256,string,uint256[])":"db0075df","writeUpdatesBackToFile(bool)":"d6698dc4"},"id":7}