{"abi":[{"type":"constructor","inputs":[{"name":"_usdc","type":"address","internalType":"address"}],"stateMutability":"nonpayable"},{"type":"function","name":"computeVestId","inputs":[{"name":"recipient","type":"address","internalType":"address"},{"name":"amount","type":"uint256","internalType":"uint256"},{"name":"startTime","type":"uint40","internalType":"uint40"},{"name":"duration","type":"uint40","internalType":"uint40"},{"name":"salt","type":"uint256","internalType":"uint256"}],"outputs":[{"name":"","type":"bytes32","internalType":"bytes32"}],"stateMutability":"view"},{"type":"function","name":"createVest","inputs":[{"name":"recipient","type":"address","internalType":"address"},{"name":"amount","type":"uint256","internalType":"uint256"},{"name":"startTime","type":"uint40","internalType":"uint40"},{"name":"duration","type":"uint40","internalType":"uint40"},{"name":"salt","type":"uint256","internalType":"uint256"}],"outputs":[],"stateMutability":"nonpayable"},{"type":"function","name":"employeeToVestIds","inputs":[{"name":"","type":"address","internalType":"address"},{"name":"","type":"uint256","internalType":"uint256"}],"outputs":[{"name":"","type":"bytes32","internalType":"bytes32"}],"stateMutability":"view"},{"type":"function","name":"employer","inputs":[],"outputs":[{"name":"","type":"address","internalType":"address"}],"stateMutability":"view"},{"type":"function","name":"usdc","inputs":[],"outputs":[{"name":"","type":"address","internalType":"contract IERC20"}],"stateMutability":"view"},{"type":"function","name":"vestIds","inputs":[{"name":"","type":"uint256","internalType":"uint256"}],"outputs":[{"name":"","type":"bytes32","internalType":"bytes32"}],"stateMutability":"view"},{"type":"function","name":"vests","inputs":[{"name":"","type":"bytes32","internalType":"bytes32"}],"outputs":[{"name":"startTime","type":"uint40","internalType":"uint40"},{"name":"recipient","type":"address","internalType":"address"},{"name":"duration","type":"uint40","internalType":"uint40"},{"name":"amount","type":"uint256","internalType":"uint256"},{"name":"withdrawn","type":"uint256","internalType":"uint256"}],"stateMutability":"view"},{"type":"function","name":"withdrawVest","inputs":[{"name":"vestId","type":"bytes32","internalType":"bytes32"},{"name":"amount","type":"uint256","internalType":"uint256"}],"outputs":[],"stateMutability":"nonpayable"},{"type":"event","name":"VestCreated","inputs":[{"name":"sender","type":"address","indexed":true,"internalType":"address"},{"name":"recipient","type":"address","indexed":true,"internalType":"address"},{"name":"amount","type":"uint256","indexed":false,"internalType":"uint256"},{"name":"startTime","type":"uint256","indexed":false,"internalType":"uint256"},{"name":"duration","type":"uint256","indexed":false,"internalType":"uint256"}],"anonymous":false},{"type":"event","name":"VestWithdrawn","inputs":[{"name":"recipient","type":"address","indexed":true,"internalType":"address"},{"name":"vestId","type":"bytes32","indexed":true,"internalType":"bytes32"},{"name":"amount","type":"uint256","indexed":false,"internalType":"uint256"},{"name":"timestamp","type":"uint256","indexed":false,"internalType":"uint256"}],"anonymous":false},{"type":"error","name":"SafeERC20FailedOperation","inputs":[{"name":"token","type":"address","internalType":"address"}]}],"bytecode":{"object":"0x60c060405234801561000f575f5ffd5b506040516114ed3803806114ed833981810160405281019061003191906100fd565b3373ffffffffffffffffffffffffffffffffffffffff1660808173ffffffffffffffffffffffffffffffffffffffff16815250508073ffffffffffffffffffffffffffffffffffffffff1660a08173ffffffffffffffffffffffffffffffffffffffff168152505050610128565b5f5ffd5b5f73ffffffffffffffffffffffffffffffffffffffff82169050919050565b5f6100cc826100a3565b9050919050565b6100dc816100c2565b81146100e6575f5ffd5b50565b5f815190506100f7816100d3565b92915050565b5f602082840312156101125761011161009f565b5b5f61011f848285016100e9565b91505092915050565b60805160a05161138f61015e5f395f818161020f01528181610430015281816104d001526107e701525f6108fc015261138f5ff3fe608060405234801561000f575f5ffd5b5060043610610086575f3560e01c806398fcf5e31161005957806398fcf5e314610124578063a13a434b14610140578063ae200e7914610174578063d74e879c1461019257610086565b8063161b90721461008a57806331e2e31a146100ba5780633e413bee146100ea5780637366f33c14610108575b5f5ffd5b6100a4600480360381019061009f9190610b65565b6101c2565b6040516100b19190610bbb565b60405180910390f35b6100d460048036038101906100cf9190610bd4565b6101ed565b6040516100e19190610bbb565b60405180910390f35b6100f261020d565b6040516100ff9190610c5a565b60405180910390f35b610122600480360381019061011d9190610cad565b610231565b005b61013e60048036038101906101399190610d4e565b6105e8565b005b61015a60048036038101906101559190610d8c565b61088a565b60405161016b959493929190610de4565b60405180910390f35b61017c6108fa565b6040516101899190610e35565b60405180910390f35b6101ac60048036038101906101a79190610cad565b61091e565b6040516101b99190610bbb565b60405180910390f35b6002602052815f5260405f2081815481106101db575f80fd5b905f5260205f20015f91509150505481565b600181815481106101fc575f80fd5b905f5260205f20015f915090505481565b7f000000000000000000000000000000000000000000000000000000000000000081565b5f84148061024557505f8264ffffffffff16145b15610285576040517f08c379a000000000000000000000000000000000000000000000000000000000815260040161027c90610ea8565b60405180910390fd5b428364ffffffffff1610156102cf576040517f08c379a00000000000000000000000000000000000000000000000000000000081526004016102c690610f10565b60405180910390fd5b5f85858585856040516020016102e9959493929190610fc7565b6040516020818303038152906040528051906020012090506040518060a001604052808564ffffffffff1681526020018773ffffffffffffffffffffffffffffffffffffffff1681526020018464ffffffffff1681526020018681526020015f8152505f5f8381526020019081526020015f205f820151815f015f6101000a81548164ffffffffff021916908364ffffffffff1602179055506020820151815f0160056101000a81548173ffffffffffffffffffffffffffffffffffffffff021916908373ffffffffffffffffffffffffffffffffffffffff1602179055506040820151815f0160196101000a81548164ffffffffff021916908364ffffffffff1602179055506060820151816001015560808201518160020155905050600181908060018154018082558091505060019003905f5260205f20015f90919091909150555f7f000000000000000000000000000000000000000000000000000000000000000073ffffffffffffffffffffffffffffffffffffffff166370a08231306040518263ffffffff1660e01b81526004016104879190610e35565b602060405180830381865afa1580156104a2573d5f5f3e3d5ffd5b505050506040513d601f19601f820116820180604052508101906104c69190611039565b90506105153330887f000000000000000000000000000000000000000000000000000000000000000073ffffffffffffffffffffffffffffffffffffffff16610959909392919063ffffffff16565b60025f8873ffffffffffffffffffffffffffffffffffffffff1673ffffffffffffffffffffffffffffffffffffffff1681526020019081526020015f2082908060018154018082558091505060019003905f5260205f20015f90919091909150558673ffffffffffffffffffffffffffffffffffffffff163373ffffffffffffffffffffffffffffffffffffffff167f9883b02c21ae6c2a92fbf861d83d66f82a5ffc7667cffd68775bcd4477e061f98888886040516105d793929190611094565b60405180910390a350505050505050565b5f810361062a576040517f08c379a000000000000000000000000000000000000000000000000000000000815260040161062190611113565b60405180910390fd5b5f5f5f8481526020019081526020015f2090505f815f0160059054906101000a900473ffffffffffffffffffffffffffffffffffffffff1690508073ffffffffffffffffffffffffffffffffffffffff163373ffffffffffffffffffffffffffffffffffffffff16146106d2576040517f08c379a00000000000000000000000000000000000000000000000000000000081526004016106c99061117b565b60405180910390fd5b5f825f015f9054906101000a900464ffffffffff1664ffffffffff16905042811115610733576040517f08c379a000000000000000000000000000000000000000000000000000000000815260040161072a906111e3565b60405180910390fd5b5f836001015490505f845f0160199054906101000a900464ffffffffff1664ffffffffff1690505f8184610767919061122e565b90505f8142101561078357844261077e9190611261565b610785565b825b90505f8382866107959190611294565b61079f9190611302565b90505f8860020154826107b29190611261565b90505f818b116107c2578a6107c4565b815b9050808a6002015f8282546107d9919061122e565b9250508190555061082b89827f000000000000000000000000000000000000000000000000000000000000000073ffffffffffffffffffffffffffffffffffffffff166109ae9092919063ffffffff16565b8b8973ffffffffffffffffffffffffffffffffffffffff167fa428c552b37faa442c5dab0841533b8918b94b241532b17b9da06f50ada4c8f48342604051610874929190611332565b60405180910390a3505050505050505050505050565b5f602052805f5260405f205f91509050805f015f9054906101000a900464ffffffffff1690805f0160059054906101000a900473ffffffffffffffffffffffffffffffffffffffff1690805f0160199054906101000a900464ffffffffff16908060010154908060020154905085565b7f000000000000000000000000000000000000000000000000000000000000000081565b5f8585858585604051602001610938959493929190610fc7565b60405160208183030381529060405280519060200120905095945050505050565b610967848484846001610a01565b6109a857836040517f5274afe700000000000000000000000000000000000000000000000000000000815260040161099f9190610e35565b60405180910390fd5b50505050565b6109bb8383836001610a72565b6109fc57826040517f5274afe70000000000000000000000000000000000000000000000000000000081526004016109f39190610e35565b60405180910390fd5b505050565b5f5f6323b872dd60e01b9050604051815f525f1960601c87166004525f1960601c86166024528460445260205f60645f5f8c5af1925060015f51148316610a5f578383151615610a53573d5f823e3d81fd5b5f883b113d1516831692505b806040525f606052505095945050505050565b5f5f63a9059cbb60e01b9050604051815f525f1960601c86166004528460245260205f60445f5f8b5af1925060015f51148316610ac6578383151615610aba573d5f823e3d81fd5b5f873b113d1516831692505b806040525050949350505050565b5f5ffd5b5f73ffffffffffffffffffffffffffffffffffffffff82169050919050565b5f610b0182610ad8565b9050919050565b610b1181610af7565b8114610b1b575f5ffd5b50565b5f81359050610b2c81610b08565b92915050565b5f819050919050565b610b4481610b32565b8114610b4e575f5ffd5b50565b5f81359050610b5f81610b3b565b92915050565b5f5f60408385031215610b7b57610b7a610ad4565b5b5f610b8885828601610b1e565b9250506020610b9985828601610b51565b9150509250929050565b5f819050919050565b610bb581610ba3565b82525050565b5f602082019050610bce5f830184610bac565b92915050565b5f60208284031215610be957610be8610ad4565b5b5f610bf684828501610b51565b91505092915050565b5f819050919050565b5f610c22610c1d610c1884610ad8565b610bff565b610ad8565b9050919050565b5f610c3382610c08565b9050919050565b5f610c4482610c29565b9050919050565b610c5481610c3a565b82525050565b5f602082019050610c6d5f830184610c4b565b92915050565b5f64ffffffffff82169050919050565b610c8c81610c73565b8114610c96575f5ffd5b50565b5f81359050610ca781610c83565b92915050565b5f5f5f5f5f60a08688031215610cc657610cc5610ad4565b5b5f610cd388828901610b1e565b9550506020610ce488828901610b51565b9450506040610cf588828901610c99565b9350506060610d0688828901610c99565b9250506080610d1788828901610b51565b9150509295509295909350565b610d2d81610ba3565b8114610d37575f5ffd5b50565b5f81359050610d4881610d24565b92915050565b5f5f60408385031215610d6457610d63610ad4565b5b5f610d7185828601610d3a565b9250506020610d8285828601610b51565b9150509250929050565b5f60208284031215610da157610da0610ad4565b5b5f610dae84828501610d3a565b91505092915050565b610dc081610c73565b82525050565b610dcf81610af7565b82525050565b610dde81610b32565b82525050565b5f60a082019050610df75f830188610db7565b610e046020830187610dc6565b610e116040830186610db7565b610e1e6060830185610dd5565b610e2b6080830184610dd5565b9695505050505050565b5f602082019050610e485f830184610dc6565b92915050565b5f82825260208201905092915050565b7f43616e6e6f74206265203020616d6f756e74206f72206475726174696f6e00005f82015250565b5f610e92601e83610e4e565b9150610e9d82610e5e565b602082019050919050565b5f6020820190508181035f830152610ebf81610e86565b9050919050565b7f53746172742074696d652063616e6e6f7420626520696e2074686520706173745f82015250565b5f610efa602083610e4e565b9150610f0582610ec6565b602082019050919050565b5f6020820190508181035f830152610f2781610eee565b9050919050565b5f8160601b9050919050565b5f610f4482610f2e565b9050919050565b5f610f5582610f3a565b9050919050565b610f6d610f6882610af7565b610f4b565b82525050565b5f819050919050565b610f8d610f8882610b32565b610f73565b82525050565b5f8160d81b9050919050565b5f610fa982610f93565b9050919050565b610fc1610fbc82610c73565b610f9f565b82525050565b5f610fd28288610f5c565b601482019150610fe28287610f7c565b602082019150610ff28286610fb0565b6005820191506110028285610fb0565b6005820191506110128284610f7c565b6020820191508190509695505050505050565b5f8151905061103381610b3b565b92915050565b5f6020828403121561104e5761104d610ad4565b5b5f61105b84828501611025565b91505092915050565b5f61107e61107961107484610c73565b610bff565b610b32565b9050919050565b61108e81611064565b82525050565b5f6060820190506110a75f830186610dd5565b6110b46020830185611085565b6110c16040830184611085565b949350505050565b7f43616e6e6f74206265207a65726f20616d6f756e7400000000000000000000005f82015250565b5f6110fd601583610e4e565b9150611108826110c9565b602082019050919050565b5f6020820190508181035f83015261112a816110f1565b9050919050565b7f4d75737420626520726563697069656e740000000000000000000000000000005f82015250565b5f611165601183610e4e565b915061117082611131565b602082019050919050565b5f6020820190508181035f83015261119281611159565b9050919050565b7f5665737420686173206e6f7420626567616e00000000000000000000000000005f82015250565b5f6111cd601283610e4e565b91506111d882611199565b602082019050919050565b5f6020820190508181035f8301526111fa816111c1565b9050919050565b7f4e487b71000000000000000000000000000000000000000000000000000000005f52601160045260245ffd5b5f61123882610b32565b915061124383610b32565b925082820190508082111561125b5761125a611201565b5b92915050565b5f61126b82610b32565b915061127683610b32565b925082820390508181111561128e5761128d611201565b5b92915050565b5f61129e82610b32565b91506112a983610b32565b92508282026112b781610b32565b915082820484148315176112ce576112cd611201565b5b5092915050565b7f4e487b71000000000000000000000000000000000000000000000000000000005f52601260045260245ffd5b5f61130c82610b32565b915061131783610b32565b925082611327576113266112d5565b5b828204905092915050565b5f6040820190506113455f830185610dd5565b6113526020830184610dd5565b939250505056fea2646970667358221220294f2aad74a910984601b58c8af35d6166f36def77ec061625b0cb793be6559c64736f6c634300081e0033","linkReferences":{}},"methodIdentifiers":{"computeVestId(address,uint256,uint40,uint40,uint256)":"d74e879c","createVest(address,uint256,uint40,uint40,uint256)":"7366f33c","employeeToVestIds(address,uint256)":"161b9072","employer()":"ae200e79","usdc()":"3e413bee","vestIds(uint256)":"31e2e31a","vests(bytes32)":"a13a434b","withdrawVest(bytes32,uint256)":"98fcf5e3"},"id":0}