{"abi":[{"type":"constructor","inputs":[{"name":"_usdc","type":"address","internalType":"address"}],"stateMutability":"nonpayable"},{"type":"function","name":"computeVestId","inputs":[{"name":"recipient","type":"address","internalType":"address"},{"name":"amount","type":"uint256","internalType":"uint256"},{"name":"startTime","type":"uint40","internalType":"uint40"},{"name":"duration","type":"uint40","internalType":"uint40"},{"name":"salt","type":"uint256","internalType":"uint256"}],"outputs":[{"name":"","type":"bytes32","internalType":"bytes32"}],"stateMutability":"view"},{"type":"function","name":"createVest","inputs":[{"name":"recipient","type":"address","internalType":"address"},{"name":"amount","type":"uint256","internalType":"uint256"},{"name":"startTime","type":"uint40","internalType":"uint40"},{"name":"duration","type":"uint40","internalType":"uint40"},{"name":"salt","type":"uint256","internalType":"uint256"}],"outputs":[],"stateMutability":"nonpayable"},{"type":"function","name":"employer","inputs":[],"outputs":[{"name":"","type":"address","internalType":"address"}],"stateMutability":"view"},{"type":"function","name":"usdc","inputs":[],"outputs":[{"name":"","type":"address","internalType":"contract IERC20"}],"stateMutability":"view"},{"type":"function","name":"vestIds","inputs":[{"name":"","type":"uint256","internalType":"uint256"}],"outputs":[{"name":"","type":"bytes32","internalType":"bytes32"}],"stateMutability":"view"},{"type":"function","name":"vests","inputs":[{"name":"","type":"bytes32","internalType":"bytes32"}],"outputs":[{"name":"startTime","type":"uint40","internalType":"uint40"},{"name":"recipient","type":"address","internalType":"address"},{"name":"duration","type":"uint40","internalType":"uint40"},{"name":"amount","type":"uint256","internalType":"uint256"},{"name":"withdrawn","type":"uint256","internalType":"uint256"}],"stateMutability":"view"},{"type":"function","name":"withdrawVest","inputs":[{"name":"vestId","type":"bytes32","internalType":"bytes32"},{"name":"amount","type":"uint256","internalType":"uint256"}],"outputs":[],"stateMutability":"nonpayable"},{"type":"event","name":"VestCreated","inputs":[{"name":"sender","type":"address","indexed":true,"internalType":"address"},{"name":"recipient","type":"address","indexed":true,"internalType":"address"},{"name":"amount","type":"uint256","indexed":false,"internalType":"uint256"},{"name":"startTime","type":"uint256","indexed":false,"internalType":"uint256"},{"name":"duration","type":"uint256","indexed":false,"internalType":"uint256"}],"anonymous":false},{"type":"event","name":"VestWithdrawn","inputs":[{"name":"recipient","type":"address","indexed":true,"internalType":"address"},{"name":"vestId","type":"bytes32","indexed":true,"internalType":"bytes32"},{"name":"amount","type":"uint256","indexed":false,"internalType":"uint256"},{"name":"timestamp","type":"uint256","indexed":false,"internalType":"uint256"}],"anonymous":false},{"type":"error","name":"SafeERC20FailedOperation","inputs":[{"name":"token","type":"address","internalType":"address"}]}],"bytecode":{"object":"0x60c060405234801561000f575f5ffd5b50604051611306380380611306833981810160405281019061003191906100fd565b3373ffffffffffffffffffffffffffffffffffffffff1660808173ffffffffffffffffffffffffffffffffffffffff16815250508073ffffffffffffffffffffffffffffffffffffffff1660a08173ffffffffffffffffffffffffffffffffffffffff168152505050610128565b5f5ffd5b5f73ffffffffffffffffffffffffffffffffffffffff82169050919050565b5f6100cc826100a3565b9050919050565b6100dc816100c2565b81146100e6575f5ffd5b50565b5f815190506100f7816100d3565b92915050565b5f602082840312156101125761011161009f565b5b5f61011f848285016100e9565b91505092915050565b60805160a0516111af6101575f395f81816101a9015281816103cf015261068401525f61079901526111af5ff3fe608060405234801561000f575f5ffd5b506004361061007b575f3560e01c806398fcf5e31161005957806398fcf5e3146100e9578063a13a434b14610105578063ae200e7914610139578063d74e879c146101575761007b565b806331e2e31a1461007f5780633e413bee146100af5780637366f33c146100cd575b5f5ffd5b610099600480360381019061009491906109a8565b610187565b6040516100a691906109eb565b60405180910390f35b6100b76101a7565b6040516100c49190610a7e565b60405180910390f35b6100e760048036038101906100e29190610b0c565b6101cb565b005b61010360048036038101906100fe9190610bad565b610485565b005b61011f600480360381019061011a9190610beb565b610727565b604051610130959493929190610c43565b60405180910390f35b610141610797565b60405161014e9190610c94565b60405180910390f35b610171600480360381019061016c9190610b0c565b6107bb565b60405161017e91906109eb565b60405180910390f35b60018181548110610196575f80fd5b905f5260205f20015f915090505481565b7f000000000000000000000000000000000000000000000000000000000000000081565b5f8414806101df57505f8264ffffffffff16145b1561021f576040517f08c379a000000000000000000000000000000000000000000000000000000000815260040161021690610d07565b60405180910390fd5b428364ffffffffff161015610269576040517f08c379a000000000000000000000000000000000000000000000000000000000815260040161026090610d6f565b60405180910390fd5b5f8585858585604051602001610283959493929190610e26565b6040516020818303038152906040528051906020012090506040518060a001604052808564ffffffffff1681526020018773ffffffffffffffffffffffffffffffffffffffff1681526020018464ffffffffff1681526020018681526020015f8152505f5f8381526020019081526020015f205f820151815f015f6101000a81548164ffffffffff021916908364ffffffffff1602179055506020820151815f0160056101000a81548173ffffffffffffffffffffffffffffffffffffffff021916908373ffffffffffffffffffffffffffffffffffffffff1602179055506040820151815f0160196101000a81548164ffffffffff021916908364ffffffffff1602179055506060820151816001015560808201518160020155905050600181908060018154018082558091505060019003905f5260205f20015f90919091909150556104143330877f000000000000000000000000000000000000000000000000000000000000000073ffffffffffffffffffffffffffffffffffffffff166107f6909392919063ffffffff16565b8573ffffffffffffffffffffffffffffffffffffffff163373ffffffffffffffffffffffffffffffffffffffff167f9883b02c21ae6c2a92fbf861d83d66f82a5ffc7667cffd68775bcd4477e061f987878760405161047593929190610eb4565b60405180910390a3505050505050565b5f81036104c7576040517f08c379a00000000000000000000000000000000000000000000000000000000081526004016104be90610f33565b60405180910390fd5b5f5f5f8481526020019081526020015f2090505f815f0160059054906101000a900473ffffffffffffffffffffffffffffffffffffffff1690508073ffffffffffffffffffffffffffffffffffffffff163373ffffffffffffffffffffffffffffffffffffffff161461056f576040517f08c379a000000000000000000000000000000000000000000000000000000000815260040161056690610f9b565b60405180910390fd5b5f825f015f9054906101000a900464ffffffffff1664ffffffffff169050428111156105d0576040517f08c379a00000000000000000000000000000000000000000000000000000000081526004016105c790611003565b60405180910390fd5b5f836001015490505f845f0160199054906101000a900464ffffffffff1664ffffffffff1690505f8184610604919061104e565b90505f8142101561062057844261061b9190611081565b610622565b825b90505f83828661063291906110b4565b61063c9190611122565b90505f88600201548261064f9190611081565b90505f818b1161065f578a610661565b815b9050808a6002015f828254610676919061104e565b925050819055506106c889827f000000000000000000000000000000000000000000000000000000000000000073ffffffffffffffffffffffffffffffffffffffff1661084b9092919063ffffffff16565b8b8973ffffffffffffffffffffffffffffffffffffffff167fa428c552b37faa442c5dab0841533b8918b94b241532b17b9da06f50ada4c8f48342604051610711929190611152565b60405180910390a3505050505050505050505050565b5f602052805f5260405f205f91509050805f015f9054906101000a900464ffffffffff1690805f0160059054906101000a900473ffffffffffffffffffffffffffffffffffffffff1690805f0160199054906101000a900464ffffffffff16908060010154908060020154905085565b7f000000000000000000000000000000000000000000000000000000000000000081565b5f85858585856040516020016107d5959493929190610e26565b60405160208183030381529060405280519060200120905095945050505050565b61080484848484600161089e565b61084557836040517f5274afe700000000000000000000000000000000000000000000000000000000815260040161083c9190610c94565b60405180910390fd5b50505050565b610858838383600161090f565b61089957826040517f5274afe70000000000000000000000000000000000000000000000000000000081526004016108909190610c94565b60405180910390fd5b505050565b5f5f6323b872dd60e01b9050604051815f525f1960601c87166004525f1960601c86166024528460445260205f60645f5f8c5af1925060015f511483166108fc5783831516156108f0573d5f823e3d81fd5b5f883b113d1516831692505b806040525f606052505095945050505050565b5f5f63a9059cbb60e01b9050604051815f525f1960601c86166004528460245260205f60445f5f8b5af1925060015f51148316610963578383151615610957573d5f823e3d81fd5b5f873b113d1516831692505b806040525050949350505050565b5f5ffd5b5f819050919050565b61098781610975565b8114610991575f5ffd5b50565b5f813590506109a28161097e565b92915050565b5f602082840312156109bd576109bc610971565b5b5f6109ca84828501610994565b91505092915050565b5f819050919050565b6109e5816109d3565b82525050565b5f6020820190506109fe5f8301846109dc565b92915050565b5f73ffffffffffffffffffffffffffffffffffffffff82169050919050565b5f819050919050565b5f610a46610a41610a3c84610a04565b610a23565b610a04565b9050919050565b5f610a5782610a2c565b9050919050565b5f610a6882610a4d565b9050919050565b610a7881610a5e565b82525050565b5f602082019050610a915f830184610a6f565b92915050565b5f610aa182610a04565b9050919050565b610ab181610a97565b8114610abb575f5ffd5b50565b5f81359050610acc81610aa8565b92915050565b5f64ffffffffff82169050919050565b610aeb81610ad2565b8114610af5575f5ffd5b50565b5f81359050610b0681610ae2565b92915050565b5f5f5f5f5f60a08688031215610b2557610b24610971565b5b5f610b3288828901610abe565b9550506020610b4388828901610994565b9450506040610b5488828901610af8565b9350506060610b6588828901610af8565b9250506080610b7688828901610994565b9150509295509295909350565b610b8c816109d3565b8114610b96575f5ffd5b50565b5f81359050610ba781610b83565b92915050565b5f5f60408385031215610bc357610bc2610971565b5b5f610bd085828601610b99565b9250506020610be185828601610994565b9150509250929050565b5f60208284031215610c0057610bff610971565b5b5f610c0d84828501610b99565b91505092915050565b610c1f81610ad2565b82525050565b610c2e81610a97565b82525050565b610c3d81610975565b82525050565b5f60a082019050610c565f830188610c16565b610c636020830187610c25565b610c706040830186610c16565b610c7d6060830185610c34565b610c8a6080830184610c34565b9695505050505050565b5f602082019050610ca75f830184610c25565b92915050565b5f82825260208201905092915050565b7f43616e6e6f74206265203020616d6f756e74206f72206475726174696f6e00005f82015250565b5f610cf1601e83610cad565b9150610cfc82610cbd565b602082019050919050565b5f6020820190508181035f830152610d1e81610ce5565b9050919050565b7f53746172742074696d652063616e6e6f7420626520696e2074686520706173745f82015250565b5f610d59602083610cad565b9150610d6482610d25565b602082019050919050565b5f6020820190508181035f830152610d8681610d4d565b9050919050565b5f8160601b9050919050565b5f610da382610d8d565b9050919050565b5f610db482610d99565b9050919050565b610dcc610dc782610a97565b610daa565b82525050565b5f819050919050565b610dec610de782610975565b610dd2565b82525050565b5f8160d81b9050919050565b5f610e0882610df2565b9050919050565b610e20610e1b82610ad2565b610dfe565b82525050565b5f610e318288610dbb565b601482019150610e418287610ddb565b602082019150610e518286610e0f565b600582019150610e618285610e0f565b600582019150610e718284610ddb565b6020820191508190509695505050505050565b5f610e9e610e99610e9484610ad2565b610a23565b610975565b9050919050565b610eae81610e84565b82525050565b5f606082019050610ec75f830186610c34565b610ed46020830185610ea5565b610ee16040830184610ea5565b949350505050565b7f43616e6e6f74206265207a65726f20616d6f756e7400000000000000000000005f82015250565b5f610f1d601583610cad565b9150610f2882610ee9565b602082019050919050565b5f6020820190508181035f830152610f4a81610f11565b9050919050565b7f4d75737420626520726563697069656e740000000000000000000000000000005f82015250565b5f610f85601183610cad565b9150610f9082610f51565b602082019050919050565b5f6020820190508181035f830152610fb281610f79565b9050919050565b7f5665737420686173206e6f7420626567616e00000000000000000000000000005f82015250565b5f610fed601283610cad565b9150610ff882610fb9565b602082019050919050565b5f6020820190508181035f83015261101a81610fe1565b9050919050565b7f4e487b71000000000000000000000000000000000000000000000000000000005f52601160045260245ffd5b5f61105882610975565b915061106383610975565b925082820190508082111561107b5761107a611021565b5b92915050565b5f61108b82610975565b915061109683610975565b92508282039050818111156110ae576110ad611021565b5b92915050565b5f6110be82610975565b91506110c983610975565b92508282026110d781610975565b915082820484148315176110ee576110ed611021565b5b5092915050565b7f4e487b71000000000000000000000000000000000000000000000000000000005f52601260045260245ffd5b5f61112c82610975565b915061113783610975565b925082611147576111466110f5565b5b828204905092915050565b5f6040820190506111655f830185610c34565b6111726020830184610c34565b939250505056fea26469706673582212202e6ad2311c4a71ad25237209a4e4b563fd1ebcb7a5d0d91c25ba5612f859b4ad64736f6c634300081e0033","linkReferences":{}},"methodIdentifiers":{"computeVestId(address,uint256,uint40,uint40,uint256)":"d74e879c","createVest(address,uint256,uint40,uint40,uint256)":"7366f33c","employer()":"ae200e79","usdc()":"3e413bee","vestIds(uint256)":"31e2e31a","vests(bytes32)":"a13a434b","withdrawVest(bytes32,uint256)":"98fcf5e3"},"id":52}