{"abi":[{"type":"constructor","inputs":[{"name":"initialOwner","type":"address","internalType":"address"},{"name":"treasury_","type":"address","internalType":"address"},{"name":"cctpBridge_","type":"address","internalType":"address"},{"name":"arcDomain_","type":"uint32","internalType":"uint32"}],"stateMutability":"nonpayable"},{"type":"function","name":"arcDomain","inputs":[],"outputs":[{"name":"","type":"uint32","internalType":"uint32"}],"stateMutability":"view"},{"type":"function","name":"cctpBridge","inputs":[],"outputs":[{"name":"","type":"address","internalType":"contract ICctpBridge"}],"stateMutability":"view"},{"type":"function","name":"createPayRun","inputs":[{"name":"payRunId","type":"bytes32","internalType":"bytes32"},{"name":"periodStart","type":"uint64","internalType":"uint64"},{"name":"periodEnd","type":"uint64","internalType":"uint64"},{"name":"recipients","type":"address[]","internalType":"address[]"},{"name":"amounts","type":"uint256[]","internalType":"uint256[]"},{"name":"destinationDomains","type":"uint32[]","internalType":"uint32[]"},{"name":"maxFees","type":"uint256[]","internalType":"uint256[]"},{"name":"minFinalityThresholds","type":"uint32[]","internalType":"uint32[]"},{"name":"useForwarders","type":"bool[]","internalType":"bool[]"}],"outputs":[{"name":"totalAmount","type":"uint256","internalType":"uint256"}],"stateMutability":"nonpayable"},{"type":"function","name":"executePayRun","inputs":[{"name":"payRunId","type":"bytes32","internalType":"bytes32"}],"outputs":[{"name":"arcPayoutAmount","type":"uint256","internalType":"uint256"},{"name":"crossChainItemCount","type":"uint256","internalType":"uint256"}],"stateMutability":"nonpayable"},{"type":"function","name":"finalizePayRun","inputs":[{"name":"payRunId","type":"bytes32","internalType":"bytes32"}],"outputs":[],"stateMutability":"nonpayable"},{"type":"function","name":"getItem","inputs":[{"name":"payRunId","type":"bytes32","internalType":"bytes32"},{"name":"index","type":"uint256","internalType":"uint256"}],"outputs":[{"name":"","type":"tuple","internalType":"struct PayRun.PayRunItem","components":[{"name":"recipient","type":"address","internalType":"address"},{"name":"amount","type":"uint256","internalType":"uint256"},{"name":"destinationDomain","type":"uint32","internalType":"uint32"},{"name":"maxFee","type":"uint256","internalType":"uint256"},{"name":"minFinalityThreshold","type":"uint32","internalType":"uint32"},{"name":"useForwarder","type":"bool","internalType":"bool"}]}],"stateMutability":"view"},{"type":"function","name":"getItemCount","inputs":[{"name":"payRunId","type":"bytes32","internalType":"bytes32"}],"outputs":[{"name":"","type":"uint256","internalType":"uint256"}],"stateMutability":"view"},{"type":"function","name":"managers","inputs":[{"name":"","type":"address","internalType":"address"}],"outputs":[{"name":"","type":"bool","internalType":"bool"}],"stateMutability":"view"},{"type":"function","name":"markFailed","inputs":[{"name":"payRunId","type":"bytes32","internalType":"bytes32"}],"outputs":[],"stateMutability":"nonpayable"},{"type":"function","name":"owner","inputs":[],"outputs":[{"name":"","type":"address","internalType":"address"}],"stateMutability":"view"},{"type":"function","name":"payRuns","inputs":[{"name":"","type":"bytes32","internalType":"bytes32"}],"outputs":[{"name":"periodStart","type":"uint64","internalType":"uint64"},{"name":"periodEnd","type":"uint64","internalType":"uint64"},{"name":"executedAt","type":"uint64","internalType":"uint64"},{"name":"recipientCount","type":"uint32","internalType":"uint32"},{"name":"totalAmount","type":"uint256","internalType":"uint256"},{"name":"status","type":"uint8","internalType":"enum PayRun.Status"},{"name":"arcTransfersExecuted","type":"bool","internalType":"bool"}],"stateMutability":"view"},{"type":"function","name":"renounceOwnership","inputs":[],"outputs":[],"stateMutability":"nonpayable"},{"type":"function","name":"setManager","inputs":[{"name":"manager","type":"address","internalType":"address"},{"name":"allowed","type":"bool","internalType":"bool"}],"outputs":[],"stateMutability":"nonpayable"},{"type":"function","name":"transferOwnership","inputs":[{"name":"newOwner","type":"address","internalType":"address"}],"outputs":[],"stateMutability":"nonpayable"},{"type":"function","name":"treasury","inputs":[],"outputs":[{"name":"","type":"address","internalType":"contract Core"}],"stateMutability":"view"},{"type":"event","name":"ArcPayoutTransferred","inputs":[{"name":"payRunId","type":"bytes32","indexed":true,"internalType":"bytes32"},{"name":"itemIndex","type":"uint256","indexed":true,"internalType":"uint256"},{"name":"recipient","type":"address","indexed":true,"internalType":"address"},{"name":"amount","type":"uint256","indexed":false,"internalType":"uint256"}],"anonymous":false},{"type":"event","name":"CrossChainPayoutRequested","inputs":[{"name":"payRunId","type":"bytes32","indexed":true,"internalType":"bytes32"},{"name":"itemIndex","type":"uint256","indexed":true,"internalType":"uint256"},{"name":"recipient","type":"address","indexed":true,"internalType":"address"},{"name":"amount","type":"uint256","indexed":false,"internalType":"uint256"},{"name":"destinationDomain","type":"uint32","indexed":false,"internalType":"uint32"},{"name":"maxFee","type":"uint256","indexed":false,"internalType":"uint256"},{"name":"minFinalityThreshold","type":"uint32","indexed":false,"internalType":"uint32"},{"name":"useForwarder","type":"bool","indexed":false,"internalType":"bool"}],"anonymous":false},{"type":"event","name":"ManagerSet","inputs":[{"name":"manager","type":"address","indexed":true,"internalType":"address"},{"name":"allowed","type":"bool","indexed":false,"internalType":"bool"}],"anonymous":false},{"type":"event","name":"OwnershipTransferred","inputs":[{"name":"previousOwner","type":"address","indexed":true,"internalType":"address"},{"name":"newOwner","type":"address","indexed":true,"internalType":"address"}],"anonymous":false},{"type":"event","name":"PayRunCreated","inputs":[{"name":"payRunId","type":"bytes32","indexed":true,"internalType":"bytes32"},{"name":"periodStart","type":"uint64","indexed":false,"internalType":"uint64"},{"name":"periodEnd","type":"uint64","indexed":false,"internalType":"uint64"},{"name":"totalAmount","type":"uint256","indexed":false,"internalType":"uint256"}],"anonymous":false},{"type":"event","name":"PayRunFailed","inputs":[{"name":"payRunId","type":"bytes32","indexed":true,"internalType":"bytes32"}],"anonymous":false},{"type":"event","name":"PayRunFinalized","inputs":[{"name":"payRunId","type":"bytes32","indexed":true,"internalType":"bytes32"},{"name":"executedAt","type":"uint64","indexed":false,"internalType":"uint64"}],"anonymous":false},{"type":"event","name":"PayRunProcessing","inputs":[{"name":"payRunId","type":"bytes32","indexed":true,"internalType":"bytes32"},{"name":"arcPayoutAmount","type":"uint256","indexed":false,"internalType":"uint256"},{"name":"crossChainItemCount","type":"uint256","indexed":false,"internalType":"uint256"}],"anonymous":false},{"type":"error","name":"EmptyPayRun","inputs":[]},{"type":"error","name":"InvalidStatus","inputs":[]},{"type":"error","name":"LengthMismatch","inputs":[]},{"type":"error","name":"OwnableInvalidOwner","inputs":[{"name":"owner","type":"address","internalType":"address"}]},{"type":"error","name":"OwnableUnauthorizedAccount","inputs":[{"name":"account","type":"address","internalType":"address"}]},{"type":"error","name":"PayRunAlreadyExists","inputs":[]},{"type":"error","name":"PayRunNotFound","inputs":[]},{"type":"error","name":"ZeroAddress","inputs":[]}],"bytecode":{"object":"0x60e03461016157601f61134738819003918201601f19168301916001600160401b03831184841017610165578084926080946040528339810103126101615761004781610179565b61005360208301610179565b91606061006260408301610179565b9101519163ffffffff83168303610161576001600160a01b031692831561014e575f80546001600160a01b031981168617825560405195916001600160a01b03909116907f8be0079c531659141344cd1fd0a4f28419497f9722a3daafe3b4186f6b6457e09080a36001600160a01b03168015801561013d575b61012e576080526001600160a01b031660a05260c0526111b9908161018e82396080518181816102d901526108cf015260a0518181816103ac015261103d015260c05181818161026f01526106a80152f35b63d92e233d60e01b5f5260045ffd5b506001600160a01b038216156100dc565b631e4fbdf760e01b5f525f60045260245ffd5b5f80fd5b634e487b7160e01b5f52604160045260245ffd5b51906001600160a01b03821682036101615756fe610240806040526004361015610013575f80fd5b5f3560e01c90816305631d2f1461102b575080634a6bc6a614610a855780635c8277851461099757806360e68e42146108fe57806361d027b3146108ba578063715018a6146108635780638da5cb5b1461083c578063925ed1a114610789578063a5e90eee146106f6578063b67dfb5c146106cc578063c59e0bf11461068c578063f2fde38b14610607578063f3148ea7146101ec578063f3358a3a146101035763fdff9b4d146100c2575f80fd5b346100ff5760203660031901126100ff576001600160a01b036100e361109c565b165f526001602052602060ff60405f2054166040519015158152f35b5f80fd5b346100ff5760403660031901126100ff575f60a060405161012381611108565b82815282602082015282604082015282606082015282608082015201526004355f52600360205260c061015b60243560405f20611144565b506040519061016982611108565b63ffffffff60018060a01b03825416928381526001830154926020820193845282806002830154166040840190815260046003840154936060860194855201549560ff60a06080870196858a168852019760201c1615158752604051978852516020880152511660408601525160608501525116608083015251151560a0820152f35b346100ff5760203660031901126100ff5760043560018060a01b035f5416331415806105f0575b6105b1575f905f91815f52600260205260405f20916002830192835460ff811660058110156105dc5780156105cd576001148015906105c0575b6105b15761ff0019166101001784555f828152600360205260408120919490937f000000000000000000000000000000000000000000000000000000000000000063ffffffff169291905b82548610156104ee576102ab8684611144565b50956002870163ffffffff8154168681145f1461039e57505086546001880180549093916001600160a01b037f0000000000000000000000000000000000000000000000000000000000000000811692911690823b156100ff5760445f92836040519586948593631de076bb60e21b8552600485015260248401525af18015610393577f1f6f29234b6f56c6fa34e82543f01d6157ad53aa7569bdfbdeb938591edd53bb602061036960019787958d95610383575b505480966110ea565b9b878060a01b0390541694604051908152a45b0194610298565b5f61038d91611123565b5f610360565b6040513d5f823e3d90fd5b909192979960018060a01b037f000000000000000000000000000000000000000000000000000000000000000016928b60018060a01b0381541693600182019586546003840193600485549101978854843b156100ff575f9460ff869260c495604051998a988997636419f74160e11b8952600489015260248801526044870152606486015263ffffffff8116608486015260201c16151560a48401525af18015610393576104de575b50600183018093116104ca5785938a939d600160a01b600190039054169554925463ffffffff1691549054916040519384526020840152604083015263ffffffff8116606083015260201c60ff161515608082015260a07fa009159c402d186940b9c3006a9cd2b3c3317e5acd1776532cd453e4f1fb12e591a460019061037c565b634e487b7160e01b5f52601160045260245ffd5b5f6104e891611123565b8d610448565b87856040938983155f1461057257815460ff1916600317909155805467ffffffffffffffff60801b19164260801b67ffffffffffffffff60801b161781557f210c32e5058a8efbbdf0fc7ffb252116ec3696c2780374147051ecb4cd6f5209906020906001600160401b03905460801c168651908152a25b82519182526020820152f35b50600260ff198254161790557f2a9af938148bf21166996259bd72cf32819765c97e974cbe0bc1238f03c8adf3848051858152846020820152a2610566565b6307a92f1960e51b5f5260045ffd5b5060ff8160081c1661024d565b630aed6d8760e21b5f5260045ffd5b634e487b7160e01b5f52602160045260245ffd5b50335f52600160205260ff60405f20541615610213565b346100ff5760203660031901126100ff5761062061109c565b61062861115d565b6001600160a01b03168015610679575f80546001600160a01b03198116831782556001600160a01b0316907f8be0079c531659141344cd1fd0a4f28419497f9722a3daafe3b4186f6b6457e09080a3005b631e4fbdf760e01b5f525f60045260245ffd5b346100ff575f3660031901126100ff57602060405163ffffffff7f0000000000000000000000000000000000000000000000000000000000000000168152f35b346100ff5760203660031901126100ff576004355f526003602052602060405f2054604051908152f35b346100ff5760403660031901126100ff5761070f61109c565b602435908115158092036100ff5761072561115d565b6001600160a01b031690811561077a5760207fff83ce179bad4fbdb0e98074011487cde624295a52d8189d92d5d8b06c914eda91835f526001825260405f2060ff1981541660ff8316179055604051908152a2005b63d92e233d60e01b5f5260045ffd5b346100ff5760203660031901126100ff5760043560018060a01b035f541633141580610825575b6105b157805f526002602052600260405f200160ff81541660058110156105dc5780156105cd5760018114159081610819575b506105b157805460ff191660041790557fb02ec1904026315b757249fbeea8c35cdde11f2d93aa274f5c67ccb69d7d8f0a5f80a2005b600291501415836107e3565b50335f52600160205260ff60405f205416156107b0565b346100ff575f3660031901126100ff575f546040516001600160a01b039091168152602090f35b346100ff575f3660031901126100ff5761087b61115d565b5f80546001600160a01b0319811682556001600160a01b03167f8be0079c531659141344cd1fd0a4f28419497f9722a3daafe3b4186f6b6457e08280a3005b346100ff575f3660031901126100ff576040517f00000000000000000000000000000000000000000000000000000000000000006001600160a01b03168152602090f35b346100ff5760203660031901126100ff576004355f52600260205260405f208054600260018301549201549160ff83169063ffffffff604051936001600160401b03811685526001600160401b038160401c1660208601526001600160401b038160801c16604086015260c01c166060840152608083015260058110156105dc5760e09260ff9160a084015260081c16151560c0820152f35b346100ff5760203660031901126100ff5760043560018060a01b035f541633141580610a6e575b6105b157805f52600260205260405f206002810190815460ff811660058110156105dc5760021490811591610a5f575b506105b157815460ff1916600317909155805467ffffffffffffffff60801b19164260801b67ffffffffffffffff60801b161781557f210c32e5058a8efbbdf0fc7ffb252116ec3696c2780374147051ecb4cd6f5209906020906001600160401b03905460801c16604051908152a2005b60ff915060081c1615846109ee565b50335f52600160205260ff60405f205416156109be565b346100ff576101203660031901126100ff576024356102008190526001600160401b03811690036100ff576044356001600160401b03811681036100ff576064356001600160401b0381116100ff57610ae290369060040161106c565b61022052610120526084356001600160401b0381116100ff57610b0990369060040161106c565b6101c05260e05260a4356001600160401b0381116100ff57610b2f90369060040161106c565b6101805260a05260c4356001600160401b0381116100ff57610b5590369060040161106c565b6101605260c05260e4356001600160401b0381116100ff57610b7b90369060040161106c565b6101e05261010052610104356001600160401b0381116100ff57610ba390369060040161106c565b6101a052610140525f546001600160a01b031633141580611014575b6105b1575f6004355f52600260205260ff600260405f2001541660058110156105dc57611005576102205115610ff6576101c0516102205114801590610fe6575b8015610fd6575b8015610fc6575b8015610fb6575b610fa7575f6080525b6102205160805110610dcd576040519160e083018381106001600160401b03821117610db9576040526001600160401b036102005116835260208301926001600160401b0382168452600260408201915f83526060810163ffffffff610220511681526080820190868252610d116001600160401b0360a08501966001885260c086019a5f8c526004355f52876020528260405f209751166fffffffffffffffff00000000000000008854925160401b16916fffffffffffffffffffffffffffffffff191617178655511684908154906001600160401b0360801b9060801b16906001600160401b0360801b1916179055565b51825463ffffffff60c01b191660c09190911b63ffffffff60c01b1617825551600182015591519491019060058510156105dc5760209460ff8019845416911617825551151561ff0082549160081b169061ff0019161790556001600160401b0360405191816102005116835216838201528160408201527f368ee641a310c31d3df4a58a3dc7bef30403c983d7eae83e204635b530641f7e606060043592a2604051908152f35b634e487b7160e01b5f52604160045260245ffd5b60805161022051610120516001600160a01b0392610df392610dee926110b2565b6110d6565b161561077a57610e16610e0e6080516101c05160e0516110b2565b3580926110ea565b90610e2d610dee60805161022051610120516110b2565b610e47610e426080516101805160a0516110b2565b6110f7565b90610e5a6080516101605160c0516110b2565b3591610e72610e426080516101e051610100516110b2565b93610e866080516101a051610140516110b2565b35938415158095036100ff576004355f52600360205260405f2060405194610ead86611108565b60018060a01b031685526020850192835263ffffffff60408601941684526060850191825263ffffffff608086019716875260a08501958652805468010000000000000000811015610db957610f0891600182018155611144565b919091610f945763ffffffff809594600494829660018060a01b039051166bffffffffffffffffffffffff60a01b8654161785555160018501555116846002840191168519825416179055516003820155019351161663ffffffff1983541617825551151564ff0000000082549160201b169064ff000000001916179055600160805101608052610c1e565b634e487b7160e01b5f525f60045260245ffd5b631fec674760e31b5f5260045ffd5b506101a051610220511415610c15565b506101e051610220511415610c0e565b5061016051610220511415610c07565b5061018051610220511415610c00565b632aa818dd60e11b5f5260045ffd5b63018b7db160e61b5f5260045ffd5b50335f52600160205260ff60405f20541615610bbf565b346100ff575f3660031901126100ff577f00000000000000000000000000000000000000000000000000000000000000006001600160a01b03168152602090f35b9181601f840112156100ff578235916001600160401b0383116100ff576020808501948460051b0101116100ff57565b600435906001600160a01b03821682036100ff57565b91908110156110c25760051b0190565b634e487b7160e01b5f52603260045260245ffd5b356001600160a01b03811681036100ff5790565b919082018092116104ca57565b3563ffffffff811681036100ff5790565b60c081019081106001600160401b03821117610db957604052565b90601f801991011681019081106001600160401b03821117610db957604052565b80548210156110c2575f52600560205f20910201905f90565b5f546001600160a01b0316330361117057565b63118cdaa760e01b5f523360045260245ffdfea26469706673582212206ea0d9db00c49ef1089aad7109b55e528b9ef2a8c3dd8052f0e4c1feca5350fd64736f6c634300081e0033","linkReferences":{}},"methodIdentifiers":{"arcDomain()":"c59e0bf1","cctpBridge()":"05631d2f","createPayRun(bytes32,uint64,uint64,address[],uint256[],uint32[],uint256[],uint32[],bool[])":"4a6bc6a6","executePayRun(bytes32)":"f3148ea7","finalizePayRun(bytes32)":"5c827785","getItem(bytes32,uint256)":"f3358a3a","getItemCount(bytes32)":"b67dfb5c","managers(address)":"fdff9b4d","markFailed(bytes32)":"925ed1a1","owner()":"8da5cb5b","payRuns(bytes32)":"60e68e42","renounceOwnership()":"715018a6","setManager(address,bool)":"a5e90eee","transferOwnership(address)":"f2fde38b","treasury()":"61d027b3"},"id":32}