{"abi":[{"type":"constructor","inputs":[{"name":"initialOwner","type":"address","internalType":"address"},{"name":"treasury_","type":"address","internalType":"address"},{"name":"arcChainId_","type":"uint32","internalType":"uint32"}],"stateMutability":"nonpayable"},{"type":"function","name":"arcChainId","inputs":[],"outputs":[{"name":"","type":"uint32","internalType":"uint32"}],"stateMutability":"view"},{"type":"function","name":"createPayRun","inputs":[{"name":"payRunId","type":"bytes32","internalType":"bytes32"},{"name":"periodStart","type":"uint64","internalType":"uint64"},{"name":"periodEnd","type":"uint64","internalType":"uint64"},{"name":"recipients","type":"address[]","internalType":"address[]"},{"name":"amounts","type":"uint256[]","internalType":"uint256[]"},{"name":"chainIds","type":"uint32[]","internalType":"uint32[]"}],"outputs":[{"name":"totalAmount","type":"uint256","internalType":"uint256"}],"stateMutability":"nonpayable"},{"type":"function","name":"executePayRun","inputs":[{"name":"payRunId","type":"bytes32","internalType":"bytes32"}],"outputs":[{"name":"arcPayoutAmount","type":"uint256","internalType":"uint256"},{"name":"crossChainItemCount","type":"uint256","internalType":"uint256"}],"stateMutability":"nonpayable"},{"type":"function","name":"finalizePayRun","inputs":[{"name":"payRunId","type":"bytes32","internalType":"bytes32"}],"outputs":[],"stateMutability":"nonpayable"},{"type":"function","name":"getItem","inputs":[{"name":"payRunId","type":"bytes32","internalType":"bytes32"},{"name":"index","type":"uint256","internalType":"uint256"}],"outputs":[{"name":"","type":"tuple","internalType":"struct PayRun.PayRunItem","components":[{"name":"recipient","type":"address","internalType":"address"},{"name":"amount","type":"uint256","internalType":"uint256"},{"name":"chainId","type":"uint32","internalType":"uint32"}]}],"stateMutability":"view"},{"type":"function","name":"getItemCount","inputs":[{"name":"payRunId","type":"bytes32","internalType":"bytes32"}],"outputs":[{"name":"","type":"uint256","internalType":"uint256"}],"stateMutability":"view"},{"type":"function","name":"managers","inputs":[{"name":"","type":"address","internalType":"address"}],"outputs":[{"name":"","type":"bool","internalType":"bool"}],"stateMutability":"view"},{"type":"function","name":"markFailed","inputs":[{"name":"payRunId","type":"bytes32","internalType":"bytes32"}],"outputs":[],"stateMutability":"nonpayable"},{"type":"function","name":"owner","inputs":[],"outputs":[{"name":"","type":"address","internalType":"address"}],"stateMutability":"view"},{"type":"function","name":"payRuns","inputs":[{"name":"","type":"bytes32","internalType":"bytes32"}],"outputs":[{"name":"periodStart","type":"uint64","internalType":"uint64"},{"name":"periodEnd","type":"uint64","internalType":"uint64"},{"name":"executedAt","type":"uint64","internalType":"uint64"},{"name":"recipientCount","type":"uint32","internalType":"uint32"},{"name":"totalAmount","type":"uint256","internalType":"uint256"},{"name":"status","type":"uint8","internalType":"enum PayRun.Status"},{"name":"arcTransfersExecuted","type":"bool","internalType":"bool"}],"stateMutability":"view"},{"type":"function","name":"renounceOwnership","inputs":[],"outputs":[],"stateMutability":"nonpayable"},{"type":"function","name":"setManager","inputs":[{"name":"manager","type":"address","internalType":"address"},{"name":"allowed","type":"bool","internalType":"bool"}],"outputs":[],"stateMutability":"nonpayable"},{"type":"function","name":"transferOwnership","inputs":[{"name":"newOwner","type":"address","internalType":"address"}],"outputs":[],"stateMutability":"nonpayable"},{"type":"function","name":"treasury","inputs":[],"outputs":[{"name":"","type":"address","internalType":"contract Core"}],"stateMutability":"view"},{"type":"event","name":"ArcPayoutTransferred","inputs":[{"name":"payRunId","type":"bytes32","indexed":true,"internalType":"bytes32"},{"name":"itemIndex","type":"uint256","indexed":true,"internalType":"uint256"},{"name":"recipient","type":"address","indexed":true,"internalType":"address"},{"name":"amount","type":"uint256","indexed":false,"internalType":"uint256"}],"anonymous":false},{"type":"event","name":"CrossChainPayoutRequested","inputs":[{"name":"payRunId","type":"bytes32","indexed":true,"internalType":"bytes32"},{"name":"itemIndex","type":"uint256","indexed":true,"internalType":"uint256"},{"name":"recipient","type":"address","indexed":true,"internalType":"address"},{"name":"amount","type":"uint256","indexed":false,"internalType":"uint256"},{"name":"chainId","type":"uint32","indexed":false,"internalType":"uint32"}],"anonymous":false},{"type":"event","name":"ManagerSet","inputs":[{"name":"manager","type":"address","indexed":true,"internalType":"address"},{"name":"allowed","type":"bool","indexed":false,"internalType":"bool"}],"anonymous":false},{"type":"event","name":"OwnershipTransferred","inputs":[{"name":"previousOwner","type":"address","indexed":true,"internalType":"address"},{"name":"newOwner","type":"address","indexed":true,"internalType":"address"}],"anonymous":false},{"type":"event","name":"PayRunCreated","inputs":[{"name":"payRunId","type":"bytes32","indexed":true,"internalType":"bytes32"},{"name":"periodStart","type":"uint64","indexed":false,"internalType":"uint64"},{"name":"periodEnd","type":"uint64","indexed":false,"internalType":"uint64"},{"name":"totalAmount","type":"uint256","indexed":false,"internalType":"uint256"}],"anonymous":false},{"type":"event","name":"PayRunFailed","inputs":[{"name":"payRunId","type":"bytes32","indexed":true,"internalType":"bytes32"}],"anonymous":false},{"type":"event","name":"PayRunFinalized","inputs":[{"name":"payRunId","type":"bytes32","indexed":true,"internalType":"bytes32"},{"name":"executedAt","type":"uint64","indexed":false,"internalType":"uint64"}],"anonymous":false},{"type":"event","name":"PayRunProcessing","inputs":[{"name":"payRunId","type":"bytes32","indexed":true,"internalType":"bytes32"},{"name":"arcPayoutAmount","type":"uint256","indexed":false,"internalType":"uint256"},{"name":"crossChainItemCount","type":"uint256","indexed":false,"internalType":"uint256"}],"anonymous":false},{"type":"error","name":"EmptyPayRun","inputs":[]},{"type":"error","name":"InvalidStatus","inputs":[]},{"type":"error","name":"LengthMismatch","inputs":[]},{"type":"error","name":"OwnableInvalidOwner","inputs":[{"name":"owner","type":"address","internalType":"address"}]},{"type":"error","name":"OwnableUnauthorizedAccount","inputs":[{"name":"account","type":"address","internalType":"address"}]},{"type":"error","name":"PayRunAlreadyExists","inputs":[]},{"type":"error","name":"PayRunNotFound","inputs":[]},{"type":"error","name":"ZeroAddress","inputs":[]}],"bytecode":{"object":"0x60c060405234801561000f575f5ffd5b506040516123ba3803806123ba833981810160405281019061003191906102f6565b825f73ffffffffffffffffffffffffffffffffffffffff168173ffffffffffffffffffffffffffffffffffffffff16036100a2575f6040517f1e4fbdf70000000000000000000000000000000000000000000000000000000081526004016100999190610355565b60405180910390fd5b6100b18161019e60201b60201c565b505f73ffffffffffffffffffffffffffffffffffffffff168373ffffffffffffffffffffffffffffffffffffffff16148061011757505f73ffffffffffffffffffffffffffffffffffffffff168273ffffffffffffffffffffffffffffffffffffffff16145b1561014e576040517fd92e233d00000000000000000000000000000000000000000000000000000000815260040160405180910390fd5b8173ffffffffffffffffffffffffffffffffffffffff1660808173ffffffffffffffffffffffffffffffffffffffff16815250508063ffffffff1660a08163ffffffff168152505050505061036e565b5f5f5f9054906101000a900473ffffffffffffffffffffffffffffffffffffffff169050815f5f6101000a81548173ffffffffffffffffffffffffffffffffffffffff021916908373ffffffffffffffffffffffffffffffffffffffff1602179055508173ffffffffffffffffffffffffffffffffffffffff168173ffffffffffffffffffffffffffffffffffffffff167f8be0079c531659141344cd1fd0a4f28419497f9722a3daafe3b4186f6b6457e060405160405180910390a35050565b5f5ffd5b5f73ffffffffffffffffffffffffffffffffffffffff82169050919050565b5f61028c82610263565b9050919050565b61029c81610282565b81146102a6575f5ffd5b50565b5f815190506102b781610293565b92915050565b5f63ffffffff82169050919050565b6102d5816102bd565b81146102df575f5ffd5b50565b5f815190506102f0816102cc565b92915050565b5f5f5f6060848603121561030d5761030c61025f565b5b5f61031a868287016102a9565b935050602061032b868287016102a9565b925050604061033c868287016102e2565b9150509250925092565b61034f81610282565b82525050565b5f6020820190506103685f830184610346565b92915050565b60805160a05161201d61039d5f395f8181610de601526111ef01525f8181610b380152611235015261201d5ff3fe608060405234801561000f575f5ffd5b50600436106100e8575f3560e01c8063a332f3e41161008a578063f2fde38b11610064578063f2fde38b1461023a578063f3148ea714610256578063f3358a3a14610287578063fdff9b4d146102b7576100e8565b8063a332f3e4146101d0578063a5e90eee146101ee578063b67dfb5c1461020a576100e8565b806361d027b3116100c657806361d027b31461016e578063715018a61461018c5780638da5cb5b14610196578063925ed1a1146101b4576100e8565b80633bab41b2146100ec5780635c8277851461011c57806360e68e4214610138575b5f5ffd5b6101066004803603810190610101919061192d565b6102e7565b6040516101139190611a2e565b60405180910390f35b61013660048036038101906101319190611a47565b61088f565b005b610152600480360381019061014d9190611a47565b610a97565b6040516101659796959493929190611b2c565b60405180910390f35b610176610b36565b6040516101839190611c13565b60405180910390f35b610194610b5a565b005b61019e610b6d565b6040516101ab9190611c4c565b60405180910390f35b6101ce60048036038101906101c99190611a47565b610b94565b005b6101d8610de4565b6040516101e59190611c65565b60405180910390f35b61020860048036038101906102039190611cd2565b610e08565b005b610224600480360381019061021f9190611a47565b610f1b565b6040516102319190611a2e565b60405180910390f35b610254600480360381019061024f9190611d10565b610f38565b005b610270600480360381019061026b9190611a47565b610fbc565b60405161027e929190611d3b565b60405180910390f35b6102a1600480360381019061029c9190611d8c565b611537565b6040516102ae9190611e37565b60405180910390f35b6102d160048036038101906102cc9190611d10565b611604565b6040516102de9190611e50565b60405180910390f35b5f6102f0610b6d565b73ffffffffffffffffffffffffffffffffffffffff163373ffffffffffffffffffffffffffffffffffffffff1614158015610372575060015f3373ffffffffffffffffffffffffffffffffffffffff1673ffffffffffffffffffffffffffffffffffffffff1681526020019081526020015f205f9054906101000a900460ff16155b156103a9576040517ff525e32000000000000000000000000000000000000000000000000000000000815260040160405180910390fd5b5f60048111156103bc576103bb611a9f565b5b60025f8c81526020019081526020015f206002015f9054906101000a900460ff1660048111156103ef576103ee611a9f565b5b14610426576040517f62df6c4000000000000000000000000000000000000000000000000000000000815260040160405180910390fd5b5f8787905003610462576040517f555031ba00000000000000000000000000000000000000000000000000000000815260040160405180910390fd5b848490508787905014158061047d5750828290508787905014155b156104b4576040517fff633a3800000000000000000000000000000000000000000000000000000000815260040160405180910390fd5b5f5f90505b878790508110156106bb575f73ffffffffffffffffffffffffffffffffffffffff168888838181106104ee576104ed611e69565b5b90506020020160208101906105039190611d10565b73ffffffffffffffffffffffffffffffffffffffff1603610550576040517fd92e233d00000000000000000000000000000000000000000000000000000000815260040160405180910390fd5b5f86868381811061056457610563611e69565b5b90506020020135905080836105799190611ec3565b925060035f8d81526020019081526020015f2060405180606001604052808b8b868181106105aa576105a9611e69565b5b90506020020160208101906105bf9190611d10565b73ffffffffffffffffffffffffffffffffffffffff1681526020018381526020018787868181106105f3576105f2611e69565b5b90506020020160208101906106089190611f20565b63ffffffff16815250908060018154018082558091505060019003905f5260205f2090600302015f909190919091505f820151815f015f6101000a81548173ffffffffffffffffffffffffffffffffffffffff021916908373ffffffffffffffffffffffffffffffffffffffff160217905550602082015181600101556040820151816002015f6101000a81548163ffffffff021916908363ffffffff16021790555050505080806001019150506104b9565b506040518060e001604052808a67ffffffffffffffff1681526020018967ffffffffffffffff1681526020015f67ffffffffffffffff1681526020018888905063ffffffff168152602001828152602001600160048111156107205761071f611a9f565b5b81526020015f151581525060025f8c81526020019081526020015f205f820151815f015f6101000a81548167ffffffffffffffff021916908367ffffffffffffffff1602179055506020820151815f0160086101000a81548167ffffffffffffffff021916908367ffffffffffffffff1602179055506040820151815f0160106101000a81548167ffffffffffffffff021916908367ffffffffffffffff1602179055506060820151815f0160186101000a81548163ffffffff021916908363ffffffff1602179055506080820151816001015560a0820151816002015f6101000a81548160ff0219169083600481111561081e5761081d611a9f565b5b021790555060c08201518160020160016101000a81548160ff021916908315150217905550905050897f368ee641a310c31d3df4a58a3dc7bef30403c983d7eae83e204635b530641f7e8a8a8460405161087a93929190611f4b565b60405180910390a29998505050505050505050565b610897610b6d565b73ffffffffffffffffffffffffffffffffffffffff163373ffffffffffffffffffffffffffffffffffffffff1614158015610919575060015f3373ffffffffffffffffffffffffffffffffffffffff1673ffffffffffffffffffffffffffffffffffffffff1681526020019081526020015f205f9054906101000a900460ff16155b15610950576040517ff525e32000000000000000000000000000000000000000000000000000000000815260040160405180910390fd5b5f60025f8381526020019081526020015f2090506002600481111561097857610977611a9f565b5b816002015f9054906101000a900460ff16600481111561099b5761099a611a9f565b5b1415806109b757508060020160019054906101000a900460ff16155b156109ee576040517ff525e32000000000000000000000000000000000000000000000000000000000815260040160405180910390fd5b6003816002015f6101000a81548160ff02191690836004811115610a1557610a14611a9f565b5b021790555042815f0160106101000a81548167ffffffffffffffff021916908367ffffffffffffffff160217905550817f210c32e5058a8efbbdf0fc7ffb252116ec3696c2780374147051ecb4cd6f5209825f0160109054906101000a900467ffffffffffffffff16604051610a8b9190611f80565b60405180910390a25050565b6002602052805f5260405f205f91509050805f015f9054906101000a900467ffffffffffffffff1690805f0160089054906101000a900467ffffffffffffffff1690805f0160109054906101000a900467ffffffffffffffff1690805f0160189054906101000a900463ffffffff1690806001015490806002015f9054906101000a900460ff16908060020160019054906101000a900460ff16905087565b7f000000000000000000000000000000000000000000000000000000000000000081565b610b62611621565b610b6b5f6116a8565b565b5f5f5f9054906101000a900473ffffffffffffffffffffffffffffffffffffffff16905090565b610b9c610b6d565b73ffffffffffffffffffffffffffffffffffffffff163373ffffffffffffffffffffffffffffffffffffffff1614158015610c1e575060015f3373ffffffffffffffffffffffffffffffffffffffff1673ffffffffffffffffffffffffffffffffffffffff1681526020019081526020015f205f9054906101000a900460ff16155b15610c55576040517ff525e32000000000000000000000000000000000000000000000000000000000815260040160405180910390fd5b5f60025f8381526020019081526020015f2090505f6004811115610c7c57610c7b611a9f565b5b816002015f9054906101000a900460ff166004811115610c9f57610c9e611a9f565b5b03610cd6576040517f2bb5b61c00000000000000000000000000000000000000000000000000000000815260040160405180910390fd5b60016004811115610cea57610ce9611a9f565b5b816002015f9054906101000a900460ff166004811115610d0d57610d0c611a9f565b5b14158015610d50575060026004811115610d2a57610d29611a9f565b5b816002015f9054906101000a900460ff166004811115610d4d57610d4c611a9f565b5b14155b15610d87576040517ff525e32000000000000000000000000000000000000000000000000000000000815260040160405180910390fd5b6004816002015f6101000a81548160ff02191690836004811115610dae57610dad611a9f565b5b0217905550817fb02ec1904026315b757249fbeea8c35cdde11f2d93aa274f5c67ccb69d7d8f0a60405160405180910390a25050565b7f000000000000000000000000000000000000000000000000000000000000000081565b610e10611621565b5f73ffffffffffffffffffffffffffffffffffffffff168273ffffffffffffffffffffffffffffffffffffffff1603610e75576040517fd92e233d00000000000000000000000000000000000000000000000000000000815260040160405180910390fd5b8060015f8473ffffffffffffffffffffffffffffffffffffffff1673ffffffffffffffffffffffffffffffffffffffff1681526020019081526020015f205f6101000a81548160ff0219169083151502179055508173ffffffffffffffffffffffffffffffffffffffff167fff83ce179bad4fbdb0e98074011487cde624295a52d8189d92d5d8b06c914eda82604051610f0f9190611e50565b60405180910390a25050565b5f60035f8381526020019081526020015f20805490509050919050565b610f40611621565b5f73ffffffffffffffffffffffffffffffffffffffff168173ffffffffffffffffffffffffffffffffffffffff1603610fb0575f6040517f1e4fbdf7000000000000000000000000000000000000000000000000000000008152600401610fa79190611c4c565b60405180910390fd5b610fb9816116a8565b50565b5f5f610fc6610b6d565b73ffffffffffffffffffffffffffffffffffffffff163373ffffffffffffffffffffffffffffffffffffffff1614158015611048575060015f3373ffffffffffffffffffffffffffffffffffffffff1673ffffffffffffffffffffffffffffffffffffffff1681526020019081526020015f205f9054906101000a900460ff16155b1561107f576040517ff525e32000000000000000000000000000000000000000000000000000000000815260040160405180910390fd5b5f60025f8581526020019081526020015f2090505f60048111156110a6576110a5611a9f565b5b816002015f9054906101000a900460ff1660048111156110c9576110c8611a9f565b5b03611100576040517f2bb5b61c00000000000000000000000000000000000000000000000000000000815260040160405180910390fd5b6001600481111561111457611113611a9f565b5b816002015f9054906101000a900460ff16600481111561113757611136611a9f565b5b14158061115257508060020160019054906101000a900460ff165b15611189576040517ff525e32000000000000000000000000000000000000000000000000000000000815260040160405180910390fd5b60018160020160016101000a81548160ff0219169083151502179055505f60035f8681526020019081526020015f2090505f5f90505b8180549050811015611417575f8282815481106111df576111de611e69565b5b905f5260205f20906003020190507f000000000000000000000000000000000000000000000000000000000000000063ffffffff16816002015f9054906101000a900463ffffffff1663ffffffff160361136e577f000000000000000000000000000000000000000000000000000000000000000073ffffffffffffffffffffffffffffffffffffffff16637781daec825f015f9054906101000a900473ffffffffffffffffffffffffffffffffffffffff1683600101546040518363ffffffff1660e01b81526004016112b4929190611f99565b5f604051808303815f87803b1580156112cb575f5ffd5b505af11580156112dd573d5f5f3e3d5ffd5b505050508060010154866112f19190611ec3565b9550805f015f9054906101000a900473ffffffffffffffffffffffffffffffffffffffff1673ffffffffffffffffffffffffffffffffffffffff1682887f1f6f29234b6f56c6fa34e82543f01d6157ad53aa7569bdfbdeb938591edd53bb84600101546040516113619190611a2e565b60405180910390a4611409565b60018561137b9190611ec3565b9450805f015f9054906101000a900473ffffffffffffffffffffffffffffffffffffffff1673ffffffffffffffffffffffffffffffffffffffff1682887fe05d6cb1211369bd46619808be57f52bde8266a8e1c312ea598b092ea5cca1c98460010154856002015f9054906101000a900463ffffffff16604051611400929190611fc0565b60405180910390a45b5080806001019150506111bf565b505f83036114c9576003826002015f6101000a81548160ff0219169083600481111561144657611445611a9f565b5b021790555042825f0160106101000a81548167ffffffffffffffff021916908367ffffffffffffffff160217905550847f210c32e5058a8efbbdf0fc7ffb252116ec3696c2780374147051ecb4cd6f5209835f0160109054906101000a900467ffffffffffffffff166040516114bc9190611f80565b60405180910390a2611530565b6002826002015f6101000a81548160ff021916908360048111156114f0576114ef611a9f565b5b0217905550847f2a9af938148bf21166996259bd72cf32819765c97e974cbe0bc1238f03c8adf38585604051611527929190611d3b565b60405180910390a25b5050915091565b61153f611770565b60035f8481526020019081526020015f20828154811061156257611561611e69565b5b905f5260205f2090600302016040518060600160405290815f82015f9054906101000a900473ffffffffffffffffffffffffffffffffffffffff1673ffffffffffffffffffffffffffffffffffffffff1673ffffffffffffffffffffffffffffffffffffffff16815260200160018201548152602001600282015f9054906101000a900463ffffffff1663ffffffff1663ffffffff1681525050905092915050565b6001602052805f5260405f205f915054906101000a900460ff1681565b611629611769565b73ffffffffffffffffffffffffffffffffffffffff16611647610b6d565b73ffffffffffffffffffffffffffffffffffffffff16146116a65761166a611769565b6040517f118cdaa700000000000000000000000000000000000000000000000000000000815260040161169d9190611c4c565b60405180910390fd5b565b5f5f5f9054906101000a900473ffffffffffffffffffffffffffffffffffffffff169050815f5f6101000a81548173ffffffffffffffffffffffffffffffffffffffff021916908373ffffffffffffffffffffffffffffffffffffffff1602179055508173ffffffffffffffffffffffffffffffffffffffff168173ffffffffffffffffffffffffffffffffffffffff167f8be0079c531659141344cd1fd0a4f28419497f9722a3daafe3b4186f6b6457e060405160405180910390a35050565b5f33905090565b60405180606001604052805f73ffffffffffffffffffffffffffffffffffffffff1681526020015f81526020015f63ffffffff1681525090565b5f5ffd5b5f5ffd5b5f819050919050565b6117c4816117b2565b81146117ce575f5ffd5b50565b5f813590506117df816117bb565b92915050565b5f67ffffffffffffffff82169050919050565b611801816117e5565b811461180b575f5ffd5b50565b5f8135905061181c816117f8565b92915050565b5f5ffd5b5f5ffd5b5f5ffd5b5f5f83601f84011261184357611842611822565b5b8235905067ffffffffffffffff8111156118605761185f611826565b5b60208301915083602082028301111561187c5761187b61182a565b5b9250929050565b5f5f83601f84011261189857611897611822565b5b8235905067ffffffffffffffff8111156118b5576118b4611826565b5b6020830191508360208202830111156118d1576118d061182a565b5b9250929050565b5f5f83601f8401126118ed576118ec611822565b5b8235905067ffffffffffffffff81111561190a57611909611826565b5b6020830191508360208202830111156119265761192561182a565b5b9250929050565b5f5f5f5f5f5f5f5f5f60c08a8c03121561194a576119496117aa565b5b5f6119578c828d016117d1565b99505060206119688c828d0161180e565b98505060406119798c828d0161180e565b97505060608a013567ffffffffffffffff81111561199a576119996117ae565b5b6119a68c828d0161182e565b965096505060808a013567ffffffffffffffff8111156119c9576119c86117ae565b5b6119d58c828d01611883565b945094505060a08a013567ffffffffffffffff8111156119f8576119f76117ae565b5b611a048c828d016118d8565b92509250509295985092959850929598565b5f819050919050565b611a2881611a16565b82525050565b5f602082019050611a415f830184611a1f565b92915050565b5f60208284031215611a5c57611a5b6117aa565b5b5f611a69848285016117d1565b91505092915050565b611a7b816117e5565b82525050565b5f63ffffffff82169050919050565b611a9981611a81565b82525050565b7f4e487b71000000000000000000000000000000000000000000000000000000005f52602160045260245ffd5b60058110611add57611adc611a9f565b5b50565b5f819050611aed82611acc565b919050565b5f611afc82611ae0565b9050919050565b611b0c81611af2565b82525050565b5f8115159050919050565b611b2681611b12565b82525050565b5f60e082019050611b3f5f83018a611a72565b611b4c6020830189611a72565b611b596040830188611a72565b611b666060830187611a90565b611b736080830186611a1f565b611b8060a0830185611b03565b611b8d60c0830184611b1d565b98975050505050505050565b5f73ffffffffffffffffffffffffffffffffffffffff82169050919050565b5f819050919050565b5f611bdb611bd6611bd184611b99565b611bb8565b611b99565b9050919050565b5f611bec82611bc1565b9050919050565b5f611bfd82611be2565b9050919050565b611c0d81611bf3565b82525050565b5f602082019050611c265f830184611c04565b92915050565b5f611c3682611b99565b9050919050565b611c4681611c2c565b82525050565b5f602082019050611c5f5f830184611c3d565b92915050565b5f602082019050611c785f830184611a90565b92915050565b611c8781611c2c565b8114611c91575f5ffd5b50565b5f81359050611ca281611c7e565b92915050565b611cb181611b12565b8114611cbb575f5ffd5b50565b5f81359050611ccc81611ca8565b92915050565b5f5f60408385031215611ce857611ce76117aa565b5b5f611cf585828601611c94565b9250506020611d0685828601611cbe565b9150509250929050565b5f60208284031215611d2557611d246117aa565b5b5f611d3284828501611c94565b91505092915050565b5f604082019050611d4e5f830185611a1f565b611d5b6020830184611a1f565b9392505050565b611d6b81611a16565b8114611d75575f5ffd5b50565b5f81359050611d8681611d62565b92915050565b5f5f60408385031215611da257611da16117aa565b5b5f611daf858286016117d1565b9250506020611dc085828601611d78565b9150509250929050565b611dd381611c2c565b82525050565b611de281611a16565b82525050565b611df181611a81565b82525050565b606082015f820151611e0b5f850182611dca565b506020820151611e1e6020850182611dd9565b506040820151611e316040850182611de8565b50505050565b5f606082019050611e4a5f830184611df7565b92915050565b5f602082019050611e635f830184611b1d565b92915050565b7f4e487b71000000000000000000000000000000000000000000000000000000005f52603260045260245ffd5b7f4e487b71000000000000000000000000000000000000000000000000000000005f52601160045260245ffd5b5f611ecd82611a16565b9150611ed883611a16565b9250828201905080821115611ef057611eef611e96565b5b92915050565b611eff81611a81565b8114611f09575f5ffd5b50565b5f81359050611f1a81611ef6565b92915050565b5f60208284031215611f3557611f346117aa565b5b5f611f4284828501611f0c565b91505092915050565b5f606082019050611f5e5f830186611a72565b611f6b6020830185611a72565b611f786040830184611a1f565b949350505050565b5f602082019050611f935f830184611a72565b92915050565b5f604082019050611fac5f830185611c3d565b611fb96020830184611a1f565b9392505050565b5f604082019050611fd35f830185611a1f565b611fe06020830184611a90565b939250505056fea2646970667358221220af5c5500255972946ce1a3503313dfdba525211676d0eb5a1bb9486a44daac1764736f6c634300081e0033","linkReferences":{}},"methodIdentifiers":{"arcChainId()":"a332f3e4","createPayRun(bytes32,uint64,uint64,address[],uint256[],uint32[])":"3bab41b2","executePayRun(bytes32)":"f3148ea7","finalizePayRun(bytes32)":"5c827785","getItem(bytes32,uint256)":"f3358a3a","getItemCount(bytes32)":"b67dfb5c","managers(address)":"fdff9b4d","markFailed(bytes32)":"925ed1a1","owner()":"8da5cb5b","payRuns(bytes32)":"60e68e42","renounceOwnership()":"715018a6","setManager(address,bool)":"a5e90eee","transferOwnership(address)":"f2fde38b","treasury()":"61d027b3"},"id":31}