{"abi":[{"type":"function","name":"allocateUsyc","inputs":[{"name":"_usyc","type":"address","internalType":"address"},{"name":"_to","type":"address","internalType":"address"},{"name":"_amount","type":"uint256","internalType":"uint256"}],"outputs":[],"stateMutability":"nonpayable"},{"type":"function","name":"redeemUsyc","inputs":[{"name":"_usyc","type":"address","internalType":"address"},{"name":"_from","type":"address","internalType":"address"},{"name":"_amount","type":"uint256","internalType":"uint256"}],"outputs":[],"stateMutability":"nonpayable"}],"bytecode":{"object":"0x6080604052348015600e575f5ffd5b506103658061001c5f395ff3fe608060405234801561000f575f5ffd5b5060043610610034575f3560e01c8063da0b3d5e14610038578063e407fcb714610054575b5f5ffd5b610052600480360381019061004d9190610205565b610070565b005b61006e60048036038101906100699190610205565b6100f1565b005b8273ffffffffffffffffffffffffffffffffffffffff1663a9059cbb83836040518363ffffffff1660e01b81526004016100ab929190610273565b6020604051808303815f875af11580156100c7573d5f5f3e3d5ffd5b505050506040513d601f19601f820116820180604052508101906100eb91906102cf565b50505050565b8273ffffffffffffffffffffffffffffffffffffffff166323b872dd8330846040518463ffffffff1660e01b815260040161012e939291906102fa565b6020604051808303815f875af115801561014a573d5f5f3e3d5ffd5b505050506040513d601f19601f8201168201806040525081019061016e91906102cf565b50505050565b5f5ffd5b5f73ffffffffffffffffffffffffffffffffffffffff82169050919050565b5f6101a182610178565b9050919050565b6101b181610197565b81146101bb575f5ffd5b50565b5f813590506101cc816101a8565b92915050565b5f819050919050565b6101e4816101d2565b81146101ee575f5ffd5b50565b5f813590506101ff816101db565b92915050565b5f5f5f6060848603121561021c5761021b610174565b5b5f610229868287016101be565b935050602061023a868287016101be565b925050604061024b868287016101f1565b9150509250925092565b61025e81610197565b82525050565b61026d816101d2565b82525050565b5f6040820190506102865f830185610255565b6102936020830184610264565b9392505050565b5f8115159050919050565b6102ae8161029a565b81146102b8575f5ffd5b50565b5f815190506102c9816102a5565b92915050565b5f602082840312156102e4576102e3610174565b5b5f6102f1848285016102bb565b91505092915050565b5f60608201905061030d5f830186610255565b61031a6020830185610255565b6103276040830184610264565b94935050505056fea2646970667358221220c961423933aae3efe1706594c0623176a88227a9c424f4ea40385dd9480f412d64736f6c634300081e0033","linkReferences":{}},"methodIdentifiers":{"allocateUsyc(address,address,uint256)":"da0b3d5e","redeemUsyc(address,address,uint256)":"e407fcb7"},"id":1}