{"abi":[{"type":"constructor","inputs":[{"name":"initialOwner","type":"address","internalType":"address"},{"name":"treasury_","type":"address","internalType":"address"},{"name":"usdc_","type":"address","internalType":"address"},{"name":"tokenMessenger_","type":"address","internalType":"address"},{"name":"sourceDomain_","type":"uint32","internalType":"uint32"}],"stateMutability":"nonpayable"},{"type":"function","name":"bridgePayroll","inputs":[{"name":"recipient","type":"address","internalType":"address"},{"name":"amount","type":"uint256","internalType":"uint256"},{"name":"destinationDomain","type":"uint32","internalType":"uint32"},{"name":"maxFee","type":"uint256","internalType":"uint256"},{"name":"minFinalityThreshold","type":"uint32","internalType":"uint32"},{"name":"useForwarder","type":"bool","internalType":"bool"}],"outputs":[],"stateMutability":"nonpayable"},{"type":"function","name":"operators","inputs":[{"name":"","type":"address","internalType":"address"}],"outputs":[{"name":"","type":"bool","internalType":"bool"}],"stateMutability":"view"},{"type":"function","name":"owner","inputs":[],"outputs":[{"name":"","type":"address","internalType":"address"}],"stateMutability":"view"},{"type":"function","name":"renounceOwnership","inputs":[],"outputs":[],"stateMutability":"nonpayable"},{"type":"function","name":"rescueToken","inputs":[{"name":"token","type":"address","internalType":"address"},{"name":"to","type":"address","internalType":"address"},{"name":"amount","type":"uint256","internalType":"uint256"}],"outputs":[],"stateMutability":"nonpayable"},{"type":"function","name":"setOperator","inputs":[{"name":"operator","type":"address","internalType":"address"},{"name":"allowed","type":"bool","internalType":"bool"}],"outputs":[],"stateMutability":"nonpayable"},{"type":"function","name":"setTokenMessenger","inputs":[{"name":"tokenMessenger_","type":"address","internalType":"address"}],"outputs":[],"stateMutability":"nonpayable"},{"type":"function","name":"sourceDomain","inputs":[],"outputs":[{"name":"","type":"uint32","internalType":"uint32"}],"stateMutability":"view"},{"type":"function","name":"tokenMessenger","inputs":[],"outputs":[{"name":"","type":"address","internalType":"contract ITokenMessengerV2"}],"stateMutability":"view"},{"type":"function","name":"transferOwnership","inputs":[{"name":"newOwner","type":"address","internalType":"address"}],"outputs":[],"stateMutability":"nonpayable"},{"type":"function","name":"treasury","inputs":[],"outputs":[{"name":"","type":"address","internalType":"contract Core"}],"stateMutability":"view"},{"type":"function","name":"usdc","inputs":[],"outputs":[{"name":"","type":"address","internalType":"contract IERC20"}],"stateMutability":"view"},{"type":"event","name":"OperatorSet","inputs":[{"name":"operator","type":"address","indexed":true,"internalType":"address"},{"name":"allowed","type":"bool","indexed":false,"internalType":"bool"}],"anonymous":false},{"type":"event","name":"OwnershipTransferred","inputs":[{"name":"previousOwner","type":"address","indexed":true,"internalType":"address"},{"name":"newOwner","type":"address","indexed":true,"internalType":"address"}],"anonymous":false},{"type":"event","name":"PayrollBridgeRequested","inputs":[{"name":"recipient","type":"address","indexed":true,"internalType":"address"},{"name":"destinationDomain","type":"uint32","indexed":true,"internalType":"uint32"},{"name":"amount","type":"uint256","indexed":false,"internalType":"uint256"},{"name":"maxFee","type":"uint256","indexed":false,"internalType":"uint256"},{"name":"minFinalityThreshold","type":"uint32","indexed":false,"internalType":"uint32"},{"name":"useForwarder","type":"bool","indexed":false,"internalType":"bool"}],"anonymous":false},{"type":"event","name":"TokenMessengerSet","inputs":[{"name":"tokenMessenger","type":"address","indexed":true,"internalType":"address"}],"anonymous":false},{"type":"error","name":"InvalidAmount","inputs":[]},{"type":"error","name":"InvalidDestinationDomain","inputs":[]},{"type":"error","name":"InvalidFee","inputs":[]},{"type":"error","name":"OwnableInvalidOwner","inputs":[{"name":"owner","type":"address","internalType":"address"}]},{"type":"error","name":"OwnableUnauthorizedAccount","inputs":[{"name":"account","type":"address","internalType":"address"}]},{"type":"error","name":"SafeERC20FailedOperation","inputs":[{"name":"token","type":"address","internalType":"address"}]},{"type":"error","name":"UnauthorizedOperator","inputs":[]},{"type":"error","name":"ZeroAddress","inputs":[]}],"bytecode":{"object":"0x60e03461019f57601f610c2738819003918201601f19168301916001600160401b038311848410176101a35780849260a09460405283398101031261019f57610047816101b7565b610053602083016101b7565b91610060604082016101b7565b608061006e606084016101b7565b9201519263ffffffff8416840361019f576001600160a01b031693841561018c575f80546001600160a01b031981168717825560405196916001600160a01b03909116907f8be0079c531659141344cd1fd0a4f28419497f9722a3daafe3b4186f6b6457e09080a36001600160a01b03168015801561017b575b801561016a575b61015b576080526001600160a01b0390811660a052600180546001600160a01b0319169290911691909117905560c052610a5b90816101cc8239608051818181610331015261085b015260a051818181610393015261094b015260c0518181816102fb01526107a40152f35b63d92e233d60e01b5f5260045ffd5b506001600160a01b038316156100ef565b506001600160a01b038216156100e8565b631e4fbdf760e01b5f525f60045260245ffd5b5f80fd5b634e487b7160e01b5f52604160045260245ffd5b51906001600160a01b038216820361019f5756fe6080806040526004361015610012575f80fd5b5f905f3560e01c90816313e7c9d81461097a575080633e413bee14610936578063461178301461090e578063558a72971461088a57806361d027b314610846578063715018a6146107ef5780638da5cb5b146107c85780638ddb4a8914610788578063c833ee8214610278578063e5711e8b146101a3578063f2fde38b1461011d5763f586384f146100a2575f80fd5b3461011a57602036600319011261011a576100bb6109b3565b6100c36109ff565b6001600160a01b0316801561010b57600180546001600160a01b031916821790557f123828ad0ce6eace02a51b44ed3508e51e0b5350caa227853b6f94ca0ff8efc58280a280f35b63d92e233d60e01b8252600482fd5b80fd5b503461011a57602036600319011261011a576101376109b3565b61013f6109ff565b6001600160a01b0316801561018f5781546001600160a01b03198116821783556001600160a01b03167f8be0079c531659141344cd1fd0a4f28419497f9722a3daafe3b4186f6b6457e08380a380f35b631e4fbdf760e01b82526004829052602482fd5b503461011a57606036600319011261011a576101bd6109b3565b6024356001600160a01b0381169190829003610274576101db6109ff565b6001600160a01b0316908115801561026c575b61025d576040519063a9059cbb60e01b845260045260443560245260208360448180865af190600184511482161561023d575b501561022b575080f35b635274afe760e01b8252600452602490fd5b60018215166102555750813b15153d1516165f610221565b3d84823e3d90fd5b63d92e233d60e01b8352600483fd5b5080156101ee565b8280fd5b50346107225760c0366003190112610722576102926109b3565b6024356044359163ffffffff831680930361072257606435916084359163ffffffff83168093036107225760a4359384151591828603610722575f546001600160a01b031633141580610771575b610762576001600160a01b03169485156107535763ffffffff7f00000000000000000000000000000000000000000000000000000000000000001687146107445783156107355783821015610726577f00000000000000000000000000000000000000000000000000000000000000006001600160a01b0316803b15610722575f8091604460405180948193631de076bb60e21b83523060048401528a60248401525af1801561071757610702575b50877f00000000000000000000000000000000000000000000000000000000000000009160018060a01b036001541660405163095ea7b360e01b8452816004528760245260208460448180895af19060018551148216156106f3575b60405215610604575b5015610552575060018060a01b03600154166040516040810181811067ffffffffffffffff82111761053e57908a9392916040526020815260208101916b18d8dd1c0b599bdc9dd85c9960a21b8352803b1561053a578a856101248a82968e968e6040519a8b998a98899663779b432d60e01b885260048801526024870152604486015260018060a01b031660648501528560848501528c60a485015260c484015261010060e4840152518091816101048501528484015e8181018301849052601f01601f191681010301925af1801561052f57610510575b5050907f6b829f8f245d5f3d52cc947d8b1b0307a1978834eb3ab39041c635577b0a2cfe93608093925b604051938452602084015260408301526060820152a380f35b8161051e91959493956109c9565b61052b579091865f6104cd565b8680fd5b6040513d84823e3d90fd5b8480fd5b634e487b7160e01b8b52604160045260248bfd5b9060018060a01b036001541690813b1561027457829060e48a836040519586948593634701287760e11b85528c600486015260248501528d604485015260018060a01b031660648401528160848401528860a48401528b60c48401525af1801561052f576105e9575b5050907f6b829f8f245d5f3d52cc947d8b1b0307a1978834eb3ab39041c635577b0a2cfe93608093926104f7565b816105f791959493956109c9565b61052b579091865f6105bb565b90915060405163095ea7b360e01b8b52816004528a60245260208b60448180885af19060018c51148216156106d2575b604052156106b6576040519063095ea7b360e01b8b526004528560245260208a60448180875af19060018b5114821615610695575b604052156106795788905f6103f4565b635274afe760e01b89526001600160a01b038216600452602489fd5b9060018115166106ad57833b15153d15161690610669565b503d8a823e3d90fd5b635274afe760e01b8a526001600160a01b03831660045260248afd5b9060018115166106ea57843b15153d15161690610634565b503d8b823e3d90fd5b90853b15153d151616906103eb565b61070f9198505f906109c9565b5f965f61038f565b6040513d5f823e3d90fd5b5f80fd5b6358d620b360e01b5f5260045ffd5b63162908e360e11b5f5260045ffd5b632cebb6b160e21b5f5260045ffd5b63d92e233d60e01b5f5260045ffd5b6326b9cdff60e11b5f5260045ffd5b50335f52600260205260ff60405f205416156102e0565b34610722575f36600319011261072257602060405163ffffffff7f0000000000000000000000000000000000000000000000000000000000000000168152f35b34610722575f366003190112610722575f546040516001600160a01b039091168152602090f35b34610722575f366003190112610722576108076109ff565b5f80546001600160a01b0319811682556001600160a01b03167f8be0079c531659141344cd1fd0a4f28419497f9722a3daafe3b4186f6b6457e08280a3005b34610722575f366003190112610722576040517f00000000000000000000000000000000000000000000000000000000000000006001600160a01b03168152602090f35b34610722576040366003190112610722576108a36109b3565b60243590811515809203610722576108b96109ff565b6001600160a01b03169081156107535760207f1a594081ae893ab78e67d9b9e843547318164322d32c65369d78a96172d9dc8f91835f526002825260405f2060ff1981541660ff8316179055604051908152a2005b34610722575f366003190112610722576001546040516001600160a01b039091168152602090f35b34610722575f366003190112610722576040517f00000000000000000000000000000000000000000000000000000000000000006001600160a01b03168152602090f35b34610722576020366003190112610722576020906001600160a01b0361099e6109b3565b165f526002825260ff60405f20541615158152f35b600435906001600160a01b038216820361072257565b90601f8019910116810190811067ffffffffffffffff8211176109eb57604052565b634e487b7160e01b5f52604160045260245ffd5b5f546001600160a01b03163303610a1257565b63118cdaa760e01b5f523360045260245ffdfea264697066735822122053340044bbd9679b178894392d69faebe0e80719d74783f8bbf4aae764049b5c64736f6c634300081e0033","linkReferences":{}},"methodIdentifiers":{"bridgePayroll(address,uint256,uint32,uint256,uint32,bool)":"c833ee82","operators(address)":"13e7c9d8","owner()":"8da5cb5b","renounceOwnership()":"715018a6","rescueToken(address,address,uint256)":"e5711e8b","setOperator(address,bool)":"558a7297","setTokenMessenger(address)":"f586384f","sourceDomain()":"8ddb4a89","tokenMessenger()":"46117830","transferOwnership(address)":"f2fde38b","treasury()":"61d027b3","usdc()":"3e413bee"},"id":30}