{"abi":[{"type":"function","name":"assertExists","inputs":[{"name":"self","type":"tuple","internalType":"struct Variable","components":[{"name":"ty","type":"tuple","internalType":"struct Type","components":[{"name":"kind","type":"TypeKind","internalType":"enum TypeKind"},{"name":"isArray","type":"bool","internalType":"bool"}]},{"name":"data","type":"bytes","internalType":"bytes"}]}],"outputs":[],"stateMutability":"pure"},{"type":"error","name":"NotInitialized","inputs":[]},{"type":"error","name":"TypeMismatch","inputs":[{"name":"expected","type":"string","internalType":"string"},{"name":"actual","type":"string","internalType":"string"}]},{"type":"error","name":"UnsafeCast","inputs":[{"name":"message","type":"string","internalType":"string"}]}],"bytecode":{"object":"0x6103c761004d600b8282823980515f1a6073146041577f4e487b71000000000000000000000000000000000000000000000000000000005f525f60045260245ffd5b305f52607381538281f3fe7300000000000000000000000000000000000000003014608060405260043610610034575f3560e01c806315af8fee14610038575b5f5ffd5b610052600480360381019061004d919061031d565b610054565b005b5f600781111561006757610066610364565b5b815f01515f015160078111156100805761007f610364565b5b036100b7576040517f87138d5c00000000000000000000000000000000000000000000000000000000815260040160405180910390fd5b50565b5f604051905090565b5f5ffd5b5f5ffd5b5f5ffd5b5f601f19601f8301169050919050565b7f4e487b71000000000000000000000000000000000000000000000000000000005f52604160045260245ffd5b610115826100cf565b810181811067ffffffffffffffff82111715610134576101336100df565b5b80604052505050565b5f6101466100ba565b9050610152828261010c565b919050565b5f5ffd5b60088110610167575f5ffd5b50565b5f813590506101788161015b565b92915050565b5f8115159050919050565b6101928161017e565b811461019c575f5ffd5b50565b5f813590506101ad81610189565b92915050565b5f604082840312156101c8576101c76100cb565b5b6101d2604061013d565b90505f6101e18482850161016a565b5f8301525060206101f48482850161019f565b60208301525092915050565b5f5ffd5b5f5ffd5b5f67ffffffffffffffff821115610222576102216100df565b5b61022b826100cf565b9050602081019050919050565b828183375f83830152505050565b5f61025861025384610208565b61013d565b90508281526020810184848401111561027457610273610204565b5b61027f848285610238565b509392505050565b5f82601f83011261029b5761029a610200565b5b81356102ab848260208601610246565b91505092915050565b5f606082840312156102c9576102c86100cb565b5b6102d3604061013d565b90505f6102e2848285016101b3565b5f83015250604082013567ffffffffffffffff81111561030557610304610157565b5b61031184828501610287565b60208301525092915050565b5f60208284031215610332576103316100c3565b5b5f82013567ffffffffffffffff81111561034f5761034e6100c7565b5b61035b848285016102b4565b91505092915050565b7f4e487b71000000000000000000000000000000000000000000000000000000005f52602160045260245ffdfea26469706673582212209a6a70b51d2dd75d6eb050897bb0207b3dcc667f2907f68ab52f2ddee5c9215464736f6c634300081e0033","linkReferences":{}},"methodIdentifiers":{"assertExists(Variable)":"15af8fee"},"id":2}