{"abi":[{"type":"constructor","inputs":[{"name":"initialOwner","type":"address","internalType":"address"},{"name":"usdc_","type":"address","internalType":"address"}],"stateMutability":"nonpayable"},{"type":"function","name":"allocators","inputs":[{"name":"","type":"address","internalType":"address"}],"outputs":[{"name":"","type":"bool","internalType":"bool"}],"stateMutability":"view"},{"type":"function","name":"cancelVest","inputs":[{"name":"vestId","type":"bytes32","internalType":"bytes32"}],"outputs":[],"stateMutability":"nonpayable"},{"type":"function","name":"computeVestId","inputs":[{"name":"recipient","type":"address","internalType":"address"},{"name":"amount","type":"uint256","internalType":"uint256"},{"name":"startTime","type":"uint40","internalType":"uint40"},{"name":"duration","type":"uint40","internalType":"uint40"},{"name":"salt","type":"uint256","internalType":"uint256"}],"outputs":[{"name":"","type":"bytes32","internalType":"bytes32"}],"stateMutability":"pure"},{"type":"function","name":"createVest","inputs":[{"name":"recipient","type":"address","internalType":"address"},{"name":"amount","type":"uint256","internalType":"uint256"},{"name":"startTime","type":"uint40","internalType":"uint40"},{"name":"duration","type":"uint40","internalType":"uint40"},{"name":"salt","type":"uint256","internalType":"uint256"}],"outputs":[],"stateMutability":"nonpayable"},{"type":"function","name":"owner","inputs":[],"outputs":[{"name":"","type":"address","internalType":"address"}],"stateMutability":"view"},{"type":"function","name":"renounceOwnership","inputs":[],"outputs":[],"stateMutability":"nonpayable"},{"type":"function","name":"setAllocator","inputs":[{"name":"allocator","type":"address","internalType":"address"},{"name":"allowed","type":"bool","internalType":"bool"}],"outputs":[],"stateMutability":"nonpayable"},{"type":"function","name":"transferOwnership","inputs":[{"name":"newOwner","type":"address","internalType":"address"}],"outputs":[],"stateMutability":"nonpayable"},{"type":"function","name":"usdc","inputs":[],"outputs":[{"name":"","type":"address","internalType":"contract IERC20"}],"stateMutability":"view"},{"type":"function","name":"vestIds","inputs":[],"outputs":[{"name":"","type":"bytes32[]","internalType":"bytes32[]"}],"stateMutability":"view"},{"type":"function","name":"vests","inputs":[{"name":"","type":"bytes32","internalType":"bytes32"}],"outputs":[{"name":"startTime","type":"uint40","internalType":"uint40"},{"name":"recipient","type":"address","internalType":"address"},{"name":"duration","type":"uint40","internalType":"uint40"},{"name":"amount","type":"uint256","internalType":"uint256"},{"name":"withdrawn","type":"uint256","internalType":"uint256"}],"stateMutability":"view"},{"type":"function","name":"withdrawVest","inputs":[{"name":"vestId","type":"bytes32","internalType":"bytes32"},{"name":"amount","type":"uint256","internalType":"uint256"}],"outputs":[],"stateMutability":"nonpayable"},{"type":"event","name":"AllocatorSet","inputs":[{"name":"allocator","type":"address","indexed":true,"internalType":"address"},{"name":"allowed","type":"bool","indexed":false,"internalType":"bool"}],"anonymous":false},{"type":"event","name":"OwnershipTransferred","inputs":[{"name":"previousOwner","type":"address","indexed":true,"internalType":"address"},{"name":"newOwner","type":"address","indexed":true,"internalType":"address"}],"anonymous":false},{"type":"event","name":"VestCancelled","inputs":[{"name":"vestId","type":"bytes32","indexed":true,"internalType":"bytes32"},{"name":"refundedAmount","type":"uint256","indexed":false,"internalType":"uint256"}],"anonymous":false},{"type":"event","name":"VestCreated","inputs":[{"name":"vestId","type":"bytes32","indexed":true,"internalType":"bytes32"},{"name":"sender","type":"address","indexed":true,"internalType":"address"},{"name":"recipient","type":"address","indexed":true,"internalType":"address"},{"name":"amount","type":"uint256","indexed":false,"internalType":"uint256"},{"name":"startTime","type":"uint256","indexed":false,"internalType":"uint256"},{"name":"duration","type":"uint256","indexed":false,"internalType":"uint256"}],"anonymous":false},{"type":"event","name":"VestWithdrawn","inputs":[{"name":"recipient","type":"address","indexed":true,"internalType":"address"},{"name":"vestId","type":"bytes32","indexed":true,"internalType":"bytes32"},{"name":"amount","type":"uint256","indexed":false,"internalType":"uint256"},{"name":"timestamp","type":"uint256","indexed":false,"internalType":"uint256"}],"anonymous":false},{"type":"error","name":"InvalidParameters","inputs":[]},{"type":"error","name":"InvalidVest","inputs":[]},{"type":"error","name":"NotRecipient","inputs":[]},{"type":"error","name":"OwnableInvalidOwner","inputs":[{"name":"owner","type":"address","internalType":"address"}]},{"type":"error","name":"OwnableUnauthorizedAccount","inputs":[{"name":"account","type":"address","internalType":"address"}]},{"type":"error","name":"SafeERC20FailedOperation","inputs":[{"name":"token","type":"address","internalType":"address"}]},{"type":"error","name":"StartTimeInPast","inputs":[]},{"type":"error","name":"VestAlreadyExists","inputs":[]},{"type":"error","name":"VestNotStarted","inputs":[]},{"type":"error","name":"VestStarted","inputs":[]}],"bytecode":{"object":"0x60a03461010957601f610c7538819003918201601f19168301916001600160401b0383118484101761010d57808492604094855283398101031261010957610052602061004b83610121565b9201610121565b6001600160a01b039091169081156100f6575f80546001600160a01b031981168417825560405193916001600160a01b03909116907f8be0079c531659141344cd1fd0a4f28419497f9722a3daafe3b4186f6b6457e09080a36001600160a01b031680156100e757608052610b3f9081610136823960805181818161029a0152818161055b015281816107f901526108530152f35b630e52390960e41b5f5260045ffd5b631e4fbdf760e01b5f525f60045260245ffd5b5f80fd5b634e487b7160e01b5f52604160045260245ffd5b51906001600160a01b03821682036101095756fe6080806040526004361015610012575f80fd5b5f3560e01c908163084ea36e14610938575080632bcea736146108825780633e413bee1461083e57806355127dd21461070b578063715018a6146106b45780637366f33c1461040457806380faddeb146103805780638da5cb5b1461035957806398fcf5e3146101b0578063a13a434b1461014d578063d74e879c146101295763f2fde38b146100a0575f80fd5b34610125576020366003190112610125576100b9610971565b6100c1610a95565b6001600160a01b03168015610112575f80546001600160a01b03198116831782556001600160a01b0316907f8be0079c531659141344cd1fd0a4f28419497f9722a3daafe3b4186f6b6457e09080a3005b631e4fbdf760e01b5f525f60045260245ffd5b5f80fd5b3461012557602061014561013c36610987565b93929092610a2d565b604051908152f35b34610125576020366003190112610125576004355f52600260205260a060405f20805490600260018201549101549064ffffffffff604051938181168552600180871b038160281c16602086015260c81c16604084015260608301526080820152f35b3461012557604036600319011261012557600435602435801561034a575f828152600260205260409020805491602883901c6001600160a01b031691821561033b5782330361032c5764ffffffffff84169342851161031d5760c81c64ffffffffff169361021e8582610a20565b421061030d575083915b60018201548381029381850414901517156102f95784156102e557610296947fa428c552b37faa442c5dab0841533b8918b94b241532b17b9da06f50ada4c8f4946040946102be936102836002870192835495869104610a13565b90818111156102da575097888094610a20565b90557f0000000000000000000000000000000000000000000000000000000000000000610aa8565b54815193845242602085015260281c6001600160a01b031692a3005b905097888094610a20565b634e487b7160e01b5f52601260045260245ffd5b634e487b7160e01b5f52601160045260245ffd5b6103179042610a13565b91610228565b636ecf3bd760e01b5f5260045ffd5b63586d335760e01b5f5260045ffd5b639d492df760e01b5f5260045ffd5b630e52390960e41b5f5260045ffd5b34610125575f366003190112610125575f546040516001600160a01b039091168152602090f35b3461012557604036600319011261012557610399610971565b60243590811515809203610125576103af610a95565b6001600160a01b031690811561034a5760207fb52add5d9181a80e5dd11001c7bf377c7597a4e1c052ee3b90bc390f926db03291835f526001825260405f2060ff1981541660ff8316179055604051908152a2005b346101255761041236610987565b939160018060a01b035f54163314158061069d575b61068a576001600160a01b0383169485158015610682575b8015610673575b61034a5764ffffffffff8216934285106106645761046692868592610a2d565b5f8181526002602052604090205490929060281c6001600160a01b031661065557604051610493816109d5565b8181526002602082019387855264ffffffffff60408401911694858252606084019088825260808501925f8452885f528460205264ffffffffff60405f2096511686549265010000000000600160c81b03905160281b169164ffffffffff60c81b905160c81b169261ffff60f01b161717178455516001840155519101556003546801000000000000000081101561064157600181018060035581101561062d5783907fc2575a0e9e593c00f959f8c92f12db2869c3395a3b0502d05e2516446f71f85b01557f000000000000000000000000000000000000000000000000000000000000000093604051946323b872dd60e01b5f5233600452306024528160445260205f60648180855af160015f511481161561060e575b866040525f606052156105ee57508452602084015260408301527f63665f42697ab6fa86dcf9279cf00b40ddd14aa61fbe3b468241552e6ae2a8d960603393a4005b635274afe760e01b5f9081526001600160a01b0391909116600452602490fd5b600181151661062457813b15153d1516166105ac565b863d5f823e3d90fd5b634e487b7160e01b5f52603260045260245ffd5b634e487b7160e01b5f52604160045260245ffd5b6343eebccf60e11b5f5260045ffd5b6326e687eb60e01b5f5260045ffd5b5064ffffffffff831615610446565b50841561043f565b63118cdaa760e01b5f523360045260245ffd5b50335f52600160205260ff60405f20541615610427565b34610125575f366003190112610125576106cc610a95565b5f80546001600160a01b0319811682556001600160a01b03167f8be0079c531659141344cd1fd0a4f28419497f9722a3daafe3b4186f6b6457e08280a3005b3461012557602036600319011261012557600435610727610a95565b805f52600260205260405f2060405161073f816109d5565b81549064ffffffffff8216815264ffffffffff60018060a01b038360281c169283602084015260c81c166040820152600260018401549360608301948552015491608082019283521561033b575164ffffffffff1642101561082f576108266020917f5ee30ad4eda78f434f35eb6dd9783c6e7daaf5f81e4a40c616f79ac22320321993855f52600284525f600260408220828155826001820155015561081d60018060a01b035f54166107f68351855190610a13565b907f0000000000000000000000000000000000000000000000000000000000000000610aa8565b51905190610a13565b604051908152a2005b633663aeb160e21b5f5260045ffd5b34610125575f366003190112610125576040517f00000000000000000000000000000000000000000000000000000000000000006001600160a01b03168152602090f35b34610125575f366003190112610125576040518060206003549283815201809260035f527fc2575a0e9e593c00f959f8c92f12db2869c3395a3b0502d05e2516446f71f85b905f5b81811061092257505050816108e09103826109f1565b604051918291602083019060208452518091526040830191905f5b818110610909575050500390f35b82518452859450602093840193909201916001016108fb565b82548452602090930192600192830192016108ca565b34610125576020366003190112610125576020906001600160a01b0361095c610971565b165f526001825260ff60405f20541615158152f35b600435906001600160a01b038216820361012557565b60a0906003190112610125576004356001600160a01b038116810361012557906024359060443564ffffffffff81168103610125579060643564ffffffffff81168103610125579060843590565b60a0810190811067ffffffffffffffff82111761064157604052565b90601f8019910116810190811067ffffffffffffffff82111761064157604052565b919082039182116102f957565b919082018092116102f957565b93919290926040519360208501956bffffffffffffffffffffffff199060601b168652603485015264ffffffffff60d81b9060d81b16605484015264ffffffffff60d81b9060d81b166059830152605e820152605e8152610a8f607e826109f1565b51902090565b5f546001600160a01b0316330361068a57565b916040519163a9059cbb60e01b5f5260018060a01b031660045260245260205f60448180865af19060015f5114821615610ae8575b604052156105ee5750565b906001811516610b0057823b15153d15161690610add565b503d5f823e3d90fdfea2646970667358221220187d00c6905a73a3fce1621df18170c4e6f06b4249f67afb0fd4b4cb6c8540db64736f6c634300081e0033","linkReferences":{}},"methodIdentifiers":{"allocators(address)":"084ea36e","cancelVest(bytes32)":"55127dd2","computeVestId(address,uint256,uint40,uint40,uint256)":"d74e879c","createVest(address,uint256,uint40,uint40,uint256)":"7366f33c","owner()":"8da5cb5b","renounceOwnership()":"715018a6","setAllocator(address,bool)":"80faddeb","transferOwnership(address)":"f2fde38b","usdc()":"3e413bee","vestIds()":"2bcea736","vests(bytes32)":"a13a434b","withdrawVest(bytes32,uint256)":"98fcf5e3"},"id":34}