{"abi":[{"type":"constructor","inputs":[{"name":"initialOwner","type":"address","internalType":"address"},{"name":"usdc_","type":"address","internalType":"address"}],"stateMutability":"nonpayable"},{"type":"function","name":"allocators","inputs":[{"name":"","type":"address","internalType":"address"}],"outputs":[{"name":"","type":"bool","internalType":"bool"}],"stateMutability":"view"},{"type":"function","name":"cancelVest","inputs":[{"name":"vestId","type":"bytes32","internalType":"bytes32"}],"outputs":[],"stateMutability":"nonpayable"},{"type":"function","name":"computeVestId","inputs":[{"name":"recipient","type":"address","internalType":"address"},{"name":"amount","type":"uint256","internalType":"uint256"},{"name":"startTime","type":"uint40","internalType":"uint40"},{"name":"duration","type":"uint40","internalType":"uint40"},{"name":"salt","type":"uint256","internalType":"uint256"}],"outputs":[{"name":"","type":"bytes32","internalType":"bytes32"}],"stateMutability":"pure"},{"type":"function","name":"createVest","inputs":[{"name":"recipient","type":"address","internalType":"address"},{"name":"amount","type":"uint256","internalType":"uint256"},{"name":"startTime","type":"uint40","internalType":"uint40"},{"name":"duration","type":"uint40","internalType":"uint40"},{"name":"salt","type":"uint256","internalType":"uint256"}],"outputs":[],"stateMutability":"nonpayable"},{"type":"function","name":"owner","inputs":[],"outputs":[{"name":"","type":"address","internalType":"address"}],"stateMutability":"view"},{"type":"function","name":"renounceOwnership","inputs":[],"outputs":[],"stateMutability":"nonpayable"},{"type":"function","name":"setAllocator","inputs":[{"name":"allocator","type":"address","internalType":"address"},{"name":"allowed","type":"bool","internalType":"bool"}],"outputs":[],"stateMutability":"nonpayable"},{"type":"function","name":"transferOwnership","inputs":[{"name":"newOwner","type":"address","internalType":"address"}],"outputs":[],"stateMutability":"nonpayable"},{"type":"function","name":"usdc","inputs":[],"outputs":[{"name":"","type":"address","internalType":"contract IERC20"}],"stateMutability":"view"},{"type":"function","name":"vestIds","inputs":[],"outputs":[{"name":"","type":"bytes32[]","internalType":"bytes32[]"}],"stateMutability":"view"},{"type":"function","name":"vests","inputs":[{"name":"","type":"bytes32","internalType":"bytes32"}],"outputs":[{"name":"startTime","type":"uint40","internalType":"uint40"},{"name":"recipient","type":"address","internalType":"address"},{"name":"duration","type":"uint40","internalType":"uint40"},{"name":"amount","type":"uint256","internalType":"uint256"},{"name":"withdrawn","type":"uint256","internalType":"uint256"}],"stateMutability":"view"},{"type":"function","name":"withdrawVest","inputs":[{"name":"vestId","type":"bytes32","internalType":"bytes32"},{"name":"amount","type":"uint256","internalType":"uint256"}],"outputs":[],"stateMutability":"nonpayable"},{"type":"event","name":"AllocatorSet","inputs":[{"name":"allocator","type":"address","indexed":true,"internalType":"address"},{"name":"allowed","type":"bool","indexed":false,"internalType":"bool"}],"anonymous":false},{"type":"event","name":"OwnershipTransferred","inputs":[{"name":"previousOwner","type":"address","indexed":true,"internalType":"address"},{"name":"newOwner","type":"address","indexed":true,"internalType":"address"}],"anonymous":false},{"type":"event","name":"VestCancelled","inputs":[{"name":"vestId","type":"bytes32","indexed":true,"internalType":"bytes32"},{"name":"refundedAmount","type":"uint256","indexed":false,"internalType":"uint256"}],"anonymous":false},{"type":"event","name":"VestCreated","inputs":[{"name":"vestId","type":"bytes32","indexed":true,"internalType":"bytes32"},{"name":"sender","type":"address","indexed":true,"internalType":"address"},{"name":"recipient","type":"address","indexed":true,"internalType":"address"},{"name":"amount","type":"uint256","indexed":false,"internalType":"uint256"},{"name":"startTime","type":"uint256","indexed":false,"internalType":"uint256"},{"name":"duration","type":"uint256","indexed":false,"internalType":"uint256"}],"anonymous":false},{"type":"event","name":"VestWithdrawn","inputs":[{"name":"recipient","type":"address","indexed":true,"internalType":"address"},{"name":"vestId","type":"bytes32","indexed":true,"internalType":"bytes32"},{"name":"amount","type":"uint256","indexed":false,"internalType":"uint256"},{"name":"timestamp","type":"uint256","indexed":false,"internalType":"uint256"}],"anonymous":false},{"type":"error","name":"InvalidParameters","inputs":[]},{"type":"error","name":"InvalidVest","inputs":[]},{"type":"error","name":"NotRecipient","inputs":[]},{"type":"error","name":"OwnableInvalidOwner","inputs":[{"name":"owner","type":"address","internalType":"address"}]},{"type":"error","name":"OwnableUnauthorizedAccount","inputs":[{"name":"account","type":"address","internalType":"address"}]},{"type":"error","name":"SafeERC20FailedOperation","inputs":[{"name":"token","type":"address","internalType":"address"}]},{"type":"error","name":"StartTimeInPast","inputs":[]},{"type":"error","name":"VestAlreadyExists","inputs":[]},{"type":"error","name":"VestNotStarted","inputs":[]},{"type":"error","name":"VestStarted","inputs":[]}],"bytecode":{"object":"0x60a060405234801561000f575f5ffd5b50604051611d86380380611d86833981810160405281019061003191906102a8565b815f73ffffffffffffffffffffffffffffffffffffffff168173ffffffffffffffffffffffffffffffffffffffff16036100a2575f6040517f1e4fbdf700000000000000000000000000000000000000000000000000000000815260040161009991906102f5565b60405180910390fd5b6100b18161018960201b60201c565b505f73ffffffffffffffffffffffffffffffffffffffff168273ffffffffffffffffffffffffffffffffffffffff16148061011757505f73ffffffffffffffffffffffffffffffffffffffff168173ffffffffffffffffffffffffffffffffffffffff16145b1561014e576040517fe523909000000000000000000000000000000000000000000000000000000000815260040160405180910390fd5b8073ffffffffffffffffffffffffffffffffffffffff1660808173ffffffffffffffffffffffffffffffffffffffff1681525050505061030e565b5f5f5f9054906101000a900473ffffffffffffffffffffffffffffffffffffffff169050815f5f6101000a81548173ffffffffffffffffffffffffffffffffffffffff021916908373ffffffffffffffffffffffffffffffffffffffff1602179055508173ffffffffffffffffffffffffffffffffffffffff168173ffffffffffffffffffffffffffffffffffffffff167f8be0079c531659141344cd1fd0a4f28419497f9722a3daafe3b4186f6b6457e060405160405180910390a35050565b5f5ffd5b5f73ffffffffffffffffffffffffffffffffffffffff82169050919050565b5f6102778261024e565b9050919050565b6102878161026d565b8114610291575f5ffd5b50565b5f815190506102a28161027e565b92915050565b5f5f604083850312156102be576102bd61024a565b5b5f6102cb85828601610294565b92505060206102dc85828601610294565b9150509250929050565b6102ef8161026d565b82525050565b5f6020820190506103085f8301846102e6565b92915050565b608051611a4b61033b5f395f81816102af015281816104f2015281816109030152610dde0152611a4b5ff3fe608060405234801561000f575f5ffd5b50600436106100b2575f3560e01c806380faddeb1161006f57806380faddeb146101645780638da5cb5b1461018057806398fcf5e31461019e578063a13a434b146101ba578063d74e879c146101ee578063f2fde38b1461021e576100b2565b8063084ea36e146100b65780632bcea736146100e65780633e413bee1461010457806355127dd214610122578063715018a61461013e5780637366f33c14610148575b5f5ffd5b6100d060048036038101906100cb91906112f8565b61023a565b6040516100dd919061133d565b60405180910390f35b6100ee610257565b6040516100fb9190611416565b60405180910390f35b61010c6102ad565b6040516101199190611491565b60405180910390f35b61013c600480360381019061013791906114d4565b6102d1565b005b610146610585565b005b610162600480360381019061015d919061156c565b610598565b005b61017e6004803603810190610179919061160d565b6109ba565b005b610188610acd565b604051610195919061165a565b60405180910390f35b6101b860048036038101906101b39190611673565b610af4565b005b6101d460048036038101906101cf91906114d4565b610ea0565b6040516101e59594939291906116cf565b60405180910390f35b6102086004803603810190610203919061156c565b610f11565b604051610215919061172f565b60405180910390f35b610238600480360381019061023391906112f8565b610f4c565b005b6001602052805f5260405f205f915054906101000a900460ff1681565b606060038054806020026020016040519081016040528092919081815260200182805480156102a357602002820191905f5260205f20905b81548152602001906001019080831161028f575b5050505050905090565b7f000000000000000000000000000000000000000000000000000000000000000081565b6102d9610fd0565b5f60025f8381526020019081526020015f206040518060a00160405290815f82015f9054906101000a900464ffffffffff1664ffffffffff1664ffffffffff1681526020015f820160059054906101000a900473ffffffffffffffffffffffffffffffffffffffff1673ffffffffffffffffffffffffffffffffffffffff1673ffffffffffffffffffffffffffffffffffffffff1681526020015f820160199054906101000a900464ffffffffff1664ffffffffff1664ffffffffff1681526020016001820154815260200160028201548152505090505f73ffffffffffffffffffffffffffffffffffffffff16816020015173ffffffffffffffffffffffffffffffffffffffff1603610419576040517f9d492df700000000000000000000000000000000000000000000000000000000815260040160405180910390fd5b42815f015164ffffffffff161161045c576040517fd98ebac400000000000000000000000000000000000000000000000000000000815260040160405180910390fd5b60025f8381526020019081526020015f205f5f82015f6101000a81549064ffffffffff02191690555f820160056101000a81549073ffffffffffffffffffffffffffffffffffffffff02191690555f820160196101000a81549064ffffffffff0219169055600182015f9055600282015f905550506105366104dc610acd565b826080015183606001516104f09190611775565b7f000000000000000000000000000000000000000000000000000000000000000073ffffffffffffffffffffffffffffffffffffffff166110579092919063ffffffff16565b817f5ee30ad4eda78f434f35eb6dd9783c6e7daaf5f81e4a40c616f79ac2232032198260800151836060015161056c9190611775565b60405161057991906117a8565b60405180910390a25050565b61058d610fd0565b6105965f6110aa565b565b6105a0610acd565b73ffffffffffffffffffffffffffffffffffffffff163373ffffffffffffffffffffffffffffffffffffffff1614158015610622575060015f3373ffffffffffffffffffffffffffffffffffffffff1673ffffffffffffffffffffffffffffffffffffffff1681526020019081526020015f205f9054906101000a900460ff16155b1561066457336040517f118cdaa700000000000000000000000000000000000000000000000000000000815260040161065b919061165a565b60405180910390fd5b5f73ffffffffffffffffffffffffffffffffffffffff168573ffffffffffffffffffffffffffffffffffffffff16148061069d57505f84145b806106ae57505f8264ffffffffff16145b156106e5576040517fe523909000000000000000000000000000000000000000000000000000000000815260040160405180910390fd5b428364ffffffffff161015610726576040517f26e687eb00000000000000000000000000000000000000000000000000000000815260040160405180910390fd5b5f6107348686868686610f11565b90505f73ffffffffffffffffffffffffffffffffffffffff1660025f8381526020019081526020015f205f0160059054906101000a900473ffffffffffffffffffffffffffffffffffffffff1673ffffffffffffffffffffffffffffffffffffffff16146107ce576040517f87dd799e00000000000000000000000000000000000000000000000000000000815260040160405180910390fd5b6040518060a001604052808564ffffffffff1681526020018773ffffffffffffffffffffffffffffffffffffffff1681526020018464ffffffffff1681526020018681526020015f81525060025f8381526020019081526020015f205f820151815f015f6101000a81548164ffffffffff021916908364ffffffffff1602179055506020820151815f0160056101000a81548173ffffffffffffffffffffffffffffffffffffffff021916908373ffffffffffffffffffffffffffffffffffffffff1602179055506040820151815f0160196101000a81548164ffffffffff021916908364ffffffffff1602179055506060820151816001015560808201518160020155905050600381908060018154018082558091505060019003905f5260205f20015f90919091909150556109483330877f000000000000000000000000000000000000000000000000000000000000000073ffffffffffffffffffffffffffffffffffffffff1661116b909392919063ffffffff16565b8573ffffffffffffffffffffffffffffffffffffffff163373ffffffffffffffffffffffffffffffffffffffff16827f63665f42697ab6fa86dcf9279cf00b40ddd14aa61fbe3b468241552e6ae2a8d98888886040516109aa939291906117f1565b60405180910390a4505050505050565b6109c2610fd0565b5f73ffffffffffffffffffffffffffffffffffffffff168273ffffffffffffffffffffffffffffffffffffffff1603610a27576040517fe523909000000000000000000000000000000000000000000000000000000000815260040160405180910390fd5b8060015f8473ffffffffffffffffffffffffffffffffffffffff1673ffffffffffffffffffffffffffffffffffffffff1681526020019081526020015f205f6101000a81548160ff0219169083151502179055508173ffffffffffffffffffffffffffffffffffffffff167fb52add5d9181a80e5dd11001c7bf377c7597a4e1c052ee3b90bc390f926db03282604051610ac1919061133d565b60405180910390a25050565b5f5f5f9054906101000a900473ffffffffffffffffffffffffffffffffffffffff16905090565b5f8103610b2d576040517fe523909000000000000000000000000000000000000000000000000000000000815260040160405180910390fd5b5f60025f8481526020019081526020015f2090505f73ffffffffffffffffffffffffffffffffffffffff16815f0160059054906101000a900473ffffffffffffffffffffffffffffffffffffffff1673ffffffffffffffffffffffffffffffffffffffff1603610bc9576040517f9d492df700000000000000000000000000000000000000000000000000000000815260040160405180910390fd5b805f0160059054906101000a900473ffffffffffffffffffffffffffffffffffffffff1673ffffffffffffffffffffffffffffffffffffffff163373ffffffffffffffffffffffffffffffffffffffff1614610c51576040517f586d335700000000000000000000000000000000000000000000000000000000815260040160405180910390fd5b42815f015f9054906101000a900464ffffffffff1664ffffffffff161115610ca5576040517f6ecf3bd700000000000000000000000000000000000000000000000000000000815260040160405180910390fd5b5f815f0160199054906101000a900464ffffffffff1664ffffffffff16825f015f9054906101000a900464ffffffffff1664ffffffffff16610ce79190611826565b90505f81421015610d1d57825f015f9054906101000a900464ffffffffff1664ffffffffff1642610d189190611775565b610d3a565b825f0160199054906101000a900464ffffffffff1664ffffffffff165b90505f835f0160199054906101000a900464ffffffffff1664ffffffffff16828560010154610d699190611859565b610d7391906118c7565b90505f846002015482610d869190611775565b90505f818711610d965786610d98565b815b905080866002015f828254610dad9190611826565b92505081905550610e22865f0160059054906101000a900473ffffffffffffffffffffffffffffffffffffffff16827f000000000000000000000000000000000000000000000000000000000000000073ffffffffffffffffffffffffffffffffffffffff166110579092919063ffffffff16565b87865f0160059054906101000a900473ffffffffffffffffffffffffffffffffffffffff1673ffffffffffffffffffffffffffffffffffffffff167fa428c552b37faa442c5dab0841533b8918b94b241532b17b9da06f50ada4c8f48342604051610e8e9291906118f7565b60405180910390a35050505050505050565b6002602052805f5260405f205f91509050805f015f9054906101000a900464ffffffffff1690805f0160059054906101000a900473ffffffffffffffffffffffffffffffffffffffff1690805f0160199054906101000a900464ffffffffff16908060010154908060020154905085565b5f8585858585604051602001610f2b9594939291906119b7565b60405160208183030381529060405280519060200120905095945050505050565b610f54610fd0565b5f73ffffffffffffffffffffffffffffffffffffffff168173ffffffffffffffffffffffffffffffffffffffff1603610fc4575f6040517f1e4fbdf7000000000000000000000000000000000000000000000000000000008152600401610fbb919061165a565b60405180910390fd5b610fcd816110aa565b50565b610fd86111c0565b73ffffffffffffffffffffffffffffffffffffffff16610ff6610acd565b73ffffffffffffffffffffffffffffffffffffffff1614611055576110196111c0565b6040517f118cdaa700000000000000000000000000000000000000000000000000000000815260040161104c919061165a565b60405180910390fd5b565b61106483838360016111c7565b6110a557826040517f5274afe700000000000000000000000000000000000000000000000000000000815260040161109c919061165a565b60405180910390fd5b505050565b5f5f5f9054906101000a900473ffffffffffffffffffffffffffffffffffffffff169050815f5f6101000a81548173ffffffffffffffffffffffffffffffffffffffff021916908373ffffffffffffffffffffffffffffffffffffffff1602179055508173ffffffffffffffffffffffffffffffffffffffff168173ffffffffffffffffffffffffffffffffffffffff167f8be0079c531659141344cd1fd0a4f28419497f9722a3daafe3b4186f6b6457e060405160405180910390a35050565b611179848484846001611229565b6111ba57836040517f5274afe70000000000000000000000000000000000000000000000000000000081526004016111b1919061165a565b60405180910390fd5b50505050565b5f33905090565b5f5f63a9059cbb60e01b9050604051815f525f1960601c86166004528460245260205f60445f5f8b5af1925060015f5114831661121b57838315161561120f573d5f823e3d81fd5b5f873b113d1516831692505b806040525050949350505050565b5f5f6323b872dd60e01b9050604051815f525f1960601c87166004525f1960601c86166024528460445260205f60645f5f8c5af1925060015f5114831661128757838315161561127b573d5f823e3d81fd5b5f883b113d1516831692505b806040525f606052505095945050505050565b5f5ffd5b5f73ffffffffffffffffffffffffffffffffffffffff82169050919050565b5f6112c78261129e565b9050919050565b6112d7816112bd565b81146112e1575f5ffd5b50565b5f813590506112f2816112ce565b92915050565b5f6020828403121561130d5761130c61129a565b5b5f61131a848285016112e4565b91505092915050565b5f8115159050919050565b61133781611323565b82525050565b5f6020820190506113505f83018461132e565b92915050565b5f81519050919050565b5f82825260208201905092915050565b5f819050602082019050919050565b5f819050919050565b6113918161137f565b82525050565b5f6113a28383611388565b60208301905092915050565b5f602082019050919050565b5f6113c482611356565b6113ce8185611360565b93506113d983611370565b805f5b838110156114095781516113f08882611397565b97506113fb836113ae565b9250506001810190506113dc565b5085935050505092915050565b5f6020820190508181035f83015261142e81846113ba565b905092915050565b5f819050919050565b5f61145961145461144f8461129e565b611436565b61129e565b9050919050565b5f61146a8261143f565b9050919050565b5f61147b82611460565b9050919050565b61148b81611471565b82525050565b5f6020820190506114a45f830184611482565b92915050565b6114b38161137f565b81146114bd575f5ffd5b50565b5f813590506114ce816114aa565b92915050565b5f602082840312156114e9576114e861129a565b5b5f6114f6848285016114c0565b91505092915050565b5f819050919050565b611511816114ff565b811461151b575f5ffd5b50565b5f8135905061152c81611508565b92915050565b5f64ffffffffff82169050919050565b61154b81611532565b8114611555575f5ffd5b50565b5f8135905061156681611542565b92915050565b5f5f5f5f5f60a086880312156115855761158461129a565b5b5f611592888289016112e4565b95505060206115a38882890161151e565b94505060406115b488828901611558565b93505060606115c588828901611558565b92505060806115d68882890161151e565b9150509295509295909350565b6115ec81611323565b81146115f6575f5ffd5b50565b5f81359050611607816115e3565b92915050565b5f5f604083850312156116235761162261129a565b5b5f611630858286016112e4565b9250506020611641858286016115f9565b9150509250929050565b611654816112bd565b82525050565b5f60208201905061166d5f83018461164b565b92915050565b5f5f604083850312156116895761168861129a565b5b5f611696858286016114c0565b92505060206116a78582860161151e565b9150509250929050565b6116ba81611532565b82525050565b6116c9816114ff565b82525050565b5f60a0820190506116e25f8301886116b1565b6116ef602083018761164b565b6116fc60408301866116b1565b61170960608301856116c0565b61171660808301846116c0565b9695505050505050565b6117298161137f565b82525050565b5f6020820190506117425f830184611720565b92915050565b7f4e487b71000000000000000000000000000000000000000000000000000000005f52601160045260245ffd5b5f61177f826114ff565b915061178a836114ff565b92508282039050818111156117a2576117a1611748565b5b92915050565b5f6020820190506117bb5f8301846116c0565b92915050565b5f6117db6117d66117d184611532565b611436565b6114ff565b9050919050565b6117eb816117c1565b82525050565b5f6060820190506118045f8301866116c0565b61181160208301856117e2565b61181e60408301846117e2565b949350505050565b5f611830826114ff565b915061183b836114ff565b925082820190508082111561185357611852611748565b5b92915050565b5f611863826114ff565b915061186e836114ff565b925082820261187c816114ff565b9150828204841483151761189357611892611748565b5b5092915050565b7f4e487b71000000000000000000000000000000000000000000000000000000005f52601260045260245ffd5b5f6118d1826114ff565b91506118dc836114ff565b9250826118ec576118eb61189a565b5b828204905092915050565b5f60408201905061190a5f8301856116c0565b61191760208301846116c0565b9392505050565b5f8160601b9050919050565b5f6119348261191e565b9050919050565b5f6119458261192a565b9050919050565b61195d611958826112bd565b61193b565b82525050565b5f819050919050565b61197d611978826114ff565b611963565b82525050565b5f8160d81b9050919050565b5f61199982611983565b9050919050565b6119b16119ac82611532565b61198f565b82525050565b5f6119c2828861194c565b6014820191506119d2828761196c565b6020820191506119e282866119a0565b6005820191506119f282856119a0565b600582019150611a02828461196c565b602082019150819050969550505050505056fea264697066735822122000eae1b9b883b1c1054e59292c16f04e57895c9b2909ae7b743749e6e2ddea5164736f6c634300081e0033","linkReferences":{}},"methodIdentifiers":{"allocators(address)":"084ea36e","cancelVest(bytes32)":"55127dd2","computeVestId(address,uint256,uint40,uint40,uint256)":"d74e879c","createVest(address,uint256,uint40,uint40,uint256)":"7366f33c","owner()":"8da5cb5b","renounceOwnership()":"715018a6","setAllocator(address,bool)":"80faddeb","transferOwnership(address)":"f2fde38b","usdc()":"3e413bee","vestIds()":"2bcea736","vests(bytes32)":"a13a434b","withdrawVest(bytes32,uint256)":"98fcf5e3"},"id":33}