{"abi":[{"type":"function","name":"claim","inputs":[{"name":"_usyc","type":"address","internalType":"address"},{"name":"_to","type":"address","internalType":"address"},{"name":"_amount","type":"uint256","internalType":"uint256"}],"outputs":[],"stateMutability":"nonpayable"}],"bytecode":{"object":"0x6080604052348015600e575f5ffd5b506102868061001c5f395ff3fe608060405234801561000f575f5ffd5b5060043610610029575f3560e01c8063996cba681461002d575b5f5ffd5b6100476004803603810190610042919061015b565b610049565b005b8273ffffffffffffffffffffffffffffffffffffffff1663a9059cbb83836040518363ffffffff1660e01b81526004016100849291906101c9565b6020604051808303815f875af11580156100a0573d5f5f3e3d5ffd5b505050506040513d601f19601f820116820180604052508101906100c49190610225565b50505050565b5f5ffd5b5f73ffffffffffffffffffffffffffffffffffffffff82169050919050565b5f6100f7826100ce565b9050919050565b610107816100ed565b8114610111575f5ffd5b50565b5f81359050610122816100fe565b92915050565b5f819050919050565b61013a81610128565b8114610144575f5ffd5b50565b5f8135905061015581610131565b92915050565b5f5f5f60608486031215610172576101716100ca565b5b5f61017f86828701610114565b935050602061019086828701610114565b92505060406101a186828701610147565b9150509250925092565b6101b4816100ed565b82525050565b6101c381610128565b82525050565b5f6040820190506101dc5f8301856101ab565b6101e960208301846101ba565b9392505050565b5f8115159050919050565b610204816101f0565b811461020e575f5ffd5b50565b5f8151905061021f816101fb565b92915050565b5f6020828403121561023a576102396100ca565b5b5f61024784828501610211565b9150509291505056fea2646970667358221220eb4383a13579ef6fe2dd3fef153f42ae8271397a6f7b09e69a8b31a29e35278564736f6c634300081e0033","linkReferences":{}},"methodIdentifiers":{"claim(address,address,uint256)":"996cba68"},"id":50}