{"abi":[{"type":"constructor","inputs":[{"name":"initialOwner","type":"address","internalType":"address"},{"name":"usdc_","type":"address","internalType":"address"},{"name":"vestingContract_","type":"address","internalType":"address"},{"name":"rebalanceContract_","type":"address","internalType":"address"}],"stateMutability":"nonpayable"},{"type":"function","name":"allocateToVesting","inputs":[{"name":"employee","type":"address","internalType":"address"},{"name":"amount","type":"uint256","internalType":"uint256"},{"name":"startTime","type":"uint40","internalType":"uint40"},{"name":"duration","type":"uint40","internalType":"uint40"},{"name":"salt","type":"uint256","internalType":"uint256"}],"outputs":[],"stateMutability":"nonpayable"},{"type":"function","name":"batchPayout","inputs":[{"name":"recipients","type":"address[]","internalType":"address[]"},{"name":"amounts","type":"uint256[]","internalType":"uint256[]"}],"outputs":[{"name":"totalAmount","type":"uint256","internalType":"uint256"}],"stateMutability":"nonpayable"},{"type":"function","name":"cancelVest","inputs":[{"name":"vestId","type":"bytes32","internalType":"bytes32"}],"outputs":[],"stateMutability":"nonpayable"},{"type":"function","name":"owner","inputs":[],"outputs":[{"name":"","type":"address","internalType":"address"}],"stateMutability":"view"},{"type":"function","name":"payoutExecutors","inputs":[{"name":"","type":"address","internalType":"address"}],"outputs":[{"name":"","type":"bool","internalType":"bool"}],"stateMutability":"view"},{"type":"function","name":"rebalanceContract","inputs":[],"outputs":[{"name":"","type":"address","internalType":"address"}],"stateMutability":"view"},{"type":"function","name":"renounceOwnership","inputs":[],"outputs":[],"stateMutability":"nonpayable"},{"type":"function","name":"setPayoutExecutor","inputs":[{"name":"executor","type":"address","internalType":"address"},{"name":"allowed","type":"bool","internalType":"bool"}],"outputs":[],"stateMutability":"nonpayable"},{"type":"function","name":"setRebalanceContract","inputs":[{"name":"rebalanceContract_","type":"address","internalType":"address"}],"outputs":[],"stateMutability":"nonpayable"},{"type":"function","name":"setVestingContract","inputs":[{"name":"vestingContract_","type":"address","internalType":"address"}],"outputs":[],"stateMutability":"nonpayable"},{"type":"function","name":"transferOwnership","inputs":[{"name":"newOwner","type":"address","internalType":"address"}],"outputs":[],"stateMutability":"nonpayable"},{"type":"function","name":"transferPayroll","inputs":[{"name":"recipient","type":"address","internalType":"address"},{"name":"amount","type":"uint256","internalType":"uint256"}],"outputs":[],"stateMutability":"nonpayable"},{"type":"function","name":"treasuryBalance","inputs":[],"outputs":[{"name":"","type":"uint256","internalType":"uint256"}],"stateMutability":"view"},{"type":"function","name":"usdc","inputs":[],"outputs":[{"name":"","type":"address","internalType":"contract IERC20"}],"stateMutability":"view"},{"type":"function","name":"vestingContract","inputs":[],"outputs":[{"name":"","type":"address","internalType":"address"}],"stateMutability":"view"},{"type":"function","name":"withdraw","inputs":[{"name":"to","type":"address","internalType":"address"},{"name":"amount","type":"uint256","internalType":"uint256"}],"outputs":[],"stateMutability":"nonpayable"},{"type":"event","name":"OwnershipTransferred","inputs":[{"name":"previousOwner","type":"address","indexed":true,"internalType":"address"},{"name":"newOwner","type":"address","indexed":true,"internalType":"address"}],"anonymous":false},{"type":"event","name":"PayoutExecutorSet","inputs":[{"name":"executor","type":"address","indexed":true,"internalType":"address"},{"name":"allowed","type":"bool","indexed":false,"internalType":"bool"}],"anonymous":false},{"type":"event","name":"PayrollBatchTransfer","inputs":[{"name":"recipientCount","type":"uint256","indexed":false,"internalType":"uint256"},{"name":"totalAmount","type":"uint256","indexed":false,"internalType":"uint256"}],"anonymous":false},{"type":"event","name":"PayrollTransfer","inputs":[{"name":"recipient","type":"address","indexed":true,"internalType":"address"},{"name":"amount","type":"uint256","indexed":false,"internalType":"uint256"}],"anonymous":false},{"type":"event","name":"RebalanceContractSet","inputs":[{"name":"rebalanceContract","type":"address","indexed":true,"internalType":"address"}],"anonymous":false},{"type":"event","name":"TreasuryWithdrawal","inputs":[{"name":"to","type":"address","indexed":true,"internalType":"address"},{"name":"amount","type":"uint256","indexed":false,"internalType":"uint256"}],"anonymous":false},{"type":"event","name":"VestingContractSet","inputs":[{"name":"vestingContract","type":"address","indexed":true,"internalType":"address"}],"anonymous":false},{"type":"error","name":"LengthMismatch","inputs":[]},{"type":"error","name":"OwnableInvalidOwner","inputs":[{"name":"owner","type":"address","internalType":"address"}]},{"type":"error","name":"OwnableUnauthorizedAccount","inputs":[{"name":"account","type":"address","internalType":"address"}]},{"type":"error","name":"SafeERC20FailedOperation","inputs":[{"name":"token","type":"address","internalType":"address"}]},{"type":"error","name":"UnauthorizedPayoutExecutor","inputs":[]},{"type":"error","name":"ZeroAddress","inputs":[]}],"bytecode":{"object":"0x60a03461016057601f610da938819003918201601f19168301916001600160401b03831184841017610164578084926080946040528339810103126101605761004781610178565b61005360208301610178565b9161006c606061006560408401610178565b9201610178565b6001600160a01b0390921692831561014d575f80546001600160a01b031981168617825560405195916001600160a01b03909116907f8be0079c531659141344cd1fd0a4f28419497f9722a3daafe3b4186f6b6457e09080a36001600160a01b0316801561013e57608052600180546001600160a01b039283166001600160a01b03199182161790915560028054939092169216919091179055610c1c908161018d823960805181818161012a0152818161026d0152818161055f015281816107a2015281816107fd01526108d60152f35b63d92e233d60e01b5f5260045ffd5b631e4fbdf760e01b5f525f60045260245ffd5b5f80fd5b634e487b7160e01b5f52604160045260245ffd5b51906001600160a01b03821682036101605756fe60806040526004361015610011575f80fd5b5f5f3560e01c806329f75d3914610876578063313dab20146107d15780633e413bee1461078c578063478dd2fd1461076357806355127dd2146106d357806359f5b242146106945780635e6f60451461066b578063715018a61461061157806374991569146105a95780637781daec146104ef5780638da5cb5b146104c85780639b4ee93c14610460578063d3921d9c146103cb578063d91966a7146101f0578063f2fde38b1461016a5763f3fef3a3146100ca575f80fd5b34610167576040366003190112610167576100e3610ab3565b6024356100ee610b68565b6001600160a01b038216918215610158578161014e7f233c84dc0c19fbf51f9fa92214ffd8a59f512e0098bff5827455d02e401221c0936020937f0000000000000000000000000000000000000000000000000000000000000000610b8e565b604051908152a280f35b63d92e233d60e01b8452600484fd5b80fd5b503461016757602036600319011261016757610184610ab3565b61018c610b68565b6001600160a01b031680156101dc5781546001600160a01b03198116821783556001600160a01b03167f8be0079c531659141344cd1fd0a4f28419497f9722a3daafe3b4186f6b6457e08380a380f35b631e4fbdf760e01b82526004829052602482fd5b50346101675760403660031901126101675760043567ffffffffffffffff81116103c757610222903690600401610ac9565b919060243567ffffffffffffffff81116103c357610244903690600401610ac9565b909260018060a01b03815416331415806103ac575b61039d57809382860361038b5781869492937f0000000000000000000000000000000000000000000000000000000000000000905b8686106102cf576020887fdd6d481326dffa12ece9f1e1d907e9381b6673929951586d8005ea2fbe7a1cb860408a81519081528385820152a1604051908152f35b90919293949660018060a01b036102ef6102ea8a8a8a610b30565b610b54565b161561015857610300888387610b30565b35908181018091116103775796976001917f9b6c6e4134955af9a1f3e8b15971cb178c4e5d66c12d51a2dc0f694c6100ef4d6020896103606102ea868f610354888d61034e8686868b610b30565b90610b8e565b898060a01b0394610b30565b1692604051908152a201949392919096959661028e565b634e487b7160e01b85526011600452602485fd5b6001621398b960e31b03198252600482fd5b6355f938b960e11b8152600490fd5b50338152600360205260ff60408220541615610259565b8280fd5b5080fd5b5034610167576040366003190112610167576103e5610ab3565b602435908115158092036103c3576103fb610b68565b6001600160a01b03169081156104515760207fd90b19cc7c3cbc73a9e26a9c40ed1fd674031463ba3a9595d7cc658e276aec2991838552600382526040852060ff1981541660ff8316179055604051908152a280f35b63d92e233d60e01b8352600483fd5b50346101675760203660031901126101675761047a610ab3565b610482610b68565b600280546001600160a01b0319166001600160a01b039290921691821790557ffe43a25022fbd04874ff04ba8dda0407d9713cd2e1e3f9ccf60d5742b36505a78280a280f35b5034610167578060031936011261016757546040516001600160a01b039091168152602090f35b503461016757604036600319011261016757610509610ab3565b60243560018060a01b0383541633141580610592575b610583576001600160a01b038216918215610158578161014e7f9b6c6e4134955af9a1f3e8b15971cb178c4e5d66c12d51a2dc0f694c6100ef4d936020937f0000000000000000000000000000000000000000000000000000000000000000610b8e565b6355f938b960e11b8352600483fd5b50338352600360205260ff6040842054161561051f565b5034610167576020366003190112610167576105c3610ab3565b6105cb610b68565b600180546001600160a01b0319166001600160a01b039290921691821790557f5cc1ef5240bc2eaf2d8700ad762816942f83c3049659585c4e09280eeaeacea88280a280f35b503461016757806003193601126101675761062a610b68565b80546001600160a01b03198116825581906001600160a01b03167f8be0079c531659141344cd1fd0a4f28419497f9722a3daafe3b4186f6b6457e08280a380f35b50346101675780600319360112610167576001546040516001600160a01b039091168152602090f35b50346101675760203660031901126101675760209060ff906040906001600160a01b036106bf610ab3565b168152600384522054166040519015158152f35b5034610167576020366003190112610167576106ed610b68565b6001546001600160a01b03168015610754578082913b1561075157818091602460405180948193632a893ee960e11b835260043560048401525af18015610746576107355750f35b8161073f91610afa565b6101675780f35b6040513d84823e3d90fd5b50fd5b63d92e233d60e01b8252600482fd5b50346101675780600319360112610167576002546040516001600160a01b039091168152602090f35b50346101675780600319360112610167576040517f00000000000000000000000000000000000000000000000000000000000000006001600160a01b03168152602090f35b50346101675780600319360112610167576040516370a0823160e01b81523060048201526020816024817f00000000000000000000000000000000000000000000000000000000000000006001600160a01b03165afa908115610746578291610840575b602082604051908152f35b90506020813d60201161086e575b8161085b60209383610afa565b810103126103c75760209150515f610835565b3d915061084e565b50346109a75760a03660031901126109a757610890610ab3565b602435906044359164ffffffffff83168093036109a7576064359164ffffffffff83168093036109a7576108c2610b68565b6001546001600160a01b03168015610aa4577f00000000000000000000000000000000000000000000000000000000000000009060405163095ea7b360e01b5f52816004528460245260205f60448180875af19060015f5114821615610a95575b604052156109ab575b50506001546001600160a01b031690813b156109a7575f60a49281956040519788968795631cd9bccf60e21b875260018060a01b0316600487015260248601526044850152606484015260843560848401525af1801561099c5761098e575080f35b61099a91505f90610afa565b005b6040513d5f823e3d90fd5b5f80fd5b60405163095ea7b360e01b5f52816004525f60245260205f60448180875af19060015f5114821615610a7d575b60405215610a5c576040519063095ea7b360e01b5f526004528360245260205f60448180865af19060015f5114821615610a3b575b60405215610a1b578061092c565b635274afe760e01b5f9081526001600160a01b0391909116600452602490fd5b906001811516610a5357823b15153d15161690610a0d565b503d5f823e3d90fd5b50635274afe760e01b5f9081526001600160a01b0391909116600452602490fd5b906001811516610a5357833b15153d151616906109d8565b90833b15153d15161690610923565b63d92e233d60e01b5f5260045ffd5b600435906001600160a01b03821682036109a757565b9181601f840112156109a75782359167ffffffffffffffff83116109a7576020808501948460051b0101116109a757565b90601f8019910116810190811067ffffffffffffffff821117610b1c57604052565b634e487b7160e01b5f52604160045260245ffd5b9190811015610b405760051b0190565b634e487b7160e01b5f52603260045260245ffd5b356001600160a01b03811681036109a75790565b5f546001600160a01b03163303610b7b57565b63118cdaa760e01b5f523360045260245ffd5b916040519163a9059cbb60e01b5f5260018060a01b031660045260245260205f60448180865af19060015f5114821615610bce575b60405215610a1b5750565b906001811516610a5357823b15153d15161690610bc356fea26469706673582212202011142b341df3ef015ccf77d6e27318ff7a6b0e1043426d66a1082c594e585864736f6c634300081e0033","linkReferences":{}},"methodIdentifiers":{"allocateToVesting(address,uint256,uint40,uint40,uint256)":"29f75d39","batchPayout(address[],uint256[])":"d91966a7","cancelVest(bytes32)":"55127dd2","owner()":"8da5cb5b","payoutExecutors(address)":"59f5b242","rebalanceContract()":"478dd2fd","renounceOwnership()":"715018a6","setPayoutExecutor(address,bool)":"d3921d9c","setRebalanceContract(address)":"9b4ee93c","setVestingContract(address)":"74991569","transferOwnership(address)":"f2fde38b","transferPayroll(address,uint256)":"7781daec","treasuryBalance()":"313dab20","usdc()":"3e413bee","vestingContract()":"5e6f6045","withdraw(address,uint256)":"f3fef3a3"},"id":31}