{"abi":[{"type":"constructor","inputs":[{"name":"initialOwner","type":"address","internalType":"address"},{"name":"usdc_","type":"address","internalType":"address"},{"name":"vestingContract_","type":"address","internalType":"address"},{"name":"rebalanceContract_","type":"address","internalType":"address"}],"stateMutability":"nonpayable"},{"type":"function","name":"allocateToVesting","inputs":[{"name":"employee","type":"address","internalType":"address"},{"name":"amount","type":"uint256","internalType":"uint256"},{"name":"startTime","type":"uint40","internalType":"uint40"},{"name":"duration","type":"uint40","internalType":"uint40"},{"name":"salt","type":"uint256","internalType":"uint256"}],"outputs":[],"stateMutability":"nonpayable"},{"type":"function","name":"batchPayout","inputs":[{"name":"recipients","type":"address[]","internalType":"address[]"},{"name":"amounts","type":"uint256[]","internalType":"uint256[]"}],"outputs":[{"name":"totalAmount","type":"uint256","internalType":"uint256"}],"stateMutability":"nonpayable"},{"type":"function","name":"cancelVest","inputs":[{"name":"vestId","type":"bytes32","internalType":"bytes32"}],"outputs":[],"stateMutability":"nonpayable"},{"type":"function","name":"owner","inputs":[],"outputs":[{"name":"","type":"address","internalType":"address"}],"stateMutability":"view"},{"type":"function","name":"payoutExecutors","inputs":[{"name":"","type":"address","internalType":"address"}],"outputs":[{"name":"","type":"bool","internalType":"bool"}],"stateMutability":"view"},{"type":"function","name":"rebalanceContract","inputs":[],"outputs":[{"name":"","type":"address","internalType":"address"}],"stateMutability":"view"},{"type":"function","name":"renounceOwnership","inputs":[],"outputs":[],"stateMutability":"nonpayable"},{"type":"function","name":"setPayoutExecutor","inputs":[{"name":"executor","type":"address","internalType":"address"},{"name":"allowed","type":"bool","internalType":"bool"}],"outputs":[],"stateMutability":"nonpayable"},{"type":"function","name":"setRebalanceContract","inputs":[{"name":"rebalanceContract_","type":"address","internalType":"address"}],"outputs":[],"stateMutability":"nonpayable"},{"type":"function","name":"setVestingContract","inputs":[{"name":"vestingContract_","type":"address","internalType":"address"}],"outputs":[],"stateMutability":"nonpayable"},{"type":"function","name":"transferOwnership","inputs":[{"name":"newOwner","type":"address","internalType":"address"}],"outputs":[],"stateMutability":"nonpayable"},{"type":"function","name":"transferPayroll","inputs":[{"name":"recipient","type":"address","internalType":"address"},{"name":"amount","type":"uint256","internalType":"uint256"}],"outputs":[],"stateMutability":"nonpayable"},{"type":"function","name":"treasuryBalance","inputs":[],"outputs":[{"name":"","type":"uint256","internalType":"uint256"}],"stateMutability":"view"},{"type":"function","name":"usdc","inputs":[],"outputs":[{"name":"","type":"address","internalType":"contract IERC20"}],"stateMutability":"view"},{"type":"function","name":"vestingContract","inputs":[],"outputs":[{"name":"","type":"address","internalType":"address"}],"stateMutability":"view"},{"type":"function","name":"withdraw","inputs":[{"name":"to","type":"address","internalType":"address"},{"name":"amount","type":"uint256","internalType":"uint256"}],"outputs":[],"stateMutability":"nonpayable"},{"type":"event","name":"OwnershipTransferred","inputs":[{"name":"previousOwner","type":"address","indexed":true,"internalType":"address"},{"name":"newOwner","type":"address","indexed":true,"internalType":"address"}],"anonymous":false},{"type":"event","name":"PayoutExecutorSet","inputs":[{"name":"executor","type":"address","indexed":true,"internalType":"address"},{"name":"allowed","type":"bool","indexed":false,"internalType":"bool"}],"anonymous":false},{"type":"event","name":"PayrollBatchTransfer","inputs":[{"name":"recipientCount","type":"uint256","indexed":false,"internalType":"uint256"},{"name":"totalAmount","type":"uint256","indexed":false,"internalType":"uint256"}],"anonymous":false},{"type":"event","name":"PayrollTransfer","inputs":[{"name":"recipient","type":"address","indexed":true,"internalType":"address"},{"name":"amount","type":"uint256","indexed":false,"internalType":"uint256"}],"anonymous":false},{"type":"event","name":"RebalanceContractSet","inputs":[{"name":"rebalanceContract","type":"address","indexed":true,"internalType":"address"}],"anonymous":false},{"type":"event","name":"TreasuryWithdrawal","inputs":[{"name":"to","type":"address","indexed":true,"internalType":"address"},{"name":"amount","type":"uint256","indexed":false,"internalType":"uint256"}],"anonymous":false},{"type":"event","name":"VestingContractSet","inputs":[{"name":"vestingContract","type":"address","indexed":true,"internalType":"address"}],"anonymous":false},{"type":"error","name":"LengthMismatch","inputs":[]},{"type":"error","name":"OwnableInvalidOwner","inputs":[{"name":"owner","type":"address","internalType":"address"}]},{"type":"error","name":"OwnableUnauthorizedAccount","inputs":[{"name":"account","type":"address","internalType":"address"}]},{"type":"error","name":"SafeERC20FailedOperation","inputs":[{"name":"token","type":"address","internalType":"address"}]},{"type":"error","name":"UnauthorizedPayoutExecutor","inputs":[]},{"type":"error","name":"ZeroAddress","inputs":[]}],"bytecode":{"object":"0x60a060405234801561000f575f5ffd5b50604051611cc9380380611cc98339818101604052810190610031919061032a565b835f73ffffffffffffffffffffffffffffffffffffffff168173ffffffffffffffffffffffffffffffffffffffff16036100a2575f6040517f1e4fbdf7000000000000000000000000000000000000000000000000000000008152600401610099919061039d565b60405180910390fd5b6100b18161020b60201b60201c565b505f73ffffffffffffffffffffffffffffffffffffffff168473ffffffffffffffffffffffffffffffffffffffff16148061011757505f73ffffffffffffffffffffffffffffffffffffffff168373ffffffffffffffffffffffffffffffffffffffff16145b1561014e576040517fd92e233d00000000000000000000000000000000000000000000000000000000815260040160405180910390fd5b8273ffffffffffffffffffffffffffffffffffffffff1660808173ffffffffffffffffffffffffffffffffffffffff16815250508160015f6101000a81548173ffffffffffffffffffffffffffffffffffffffff021916908373ffffffffffffffffffffffffffffffffffffffff1602179055508060025f6101000a81548173ffffffffffffffffffffffffffffffffffffffff021916908373ffffffffffffffffffffffffffffffffffffffff160217905550505050506103b6565b5f5f5f9054906101000a900473ffffffffffffffffffffffffffffffffffffffff169050815f5f6101000a81548173ffffffffffffffffffffffffffffffffffffffff021916908373ffffffffffffffffffffffffffffffffffffffff1602179055508173ffffffffffffffffffffffffffffffffffffffff168173ffffffffffffffffffffffffffffffffffffffff167f8be0079c531659141344cd1fd0a4f28419497f9722a3daafe3b4186f6b6457e060405160405180910390a35050565b5f5ffd5b5f73ffffffffffffffffffffffffffffffffffffffff82169050919050565b5f6102f9826102d0565b9050919050565b610309816102ef565b8114610313575f5ffd5b50565b5f8151905061032481610300565b92915050565b5f5f5f5f60808587031215610342576103416102cc565b5b5f61034f87828801610316565b945050602061036087828801610316565b935050604061037187828801610316565b925050606061038287828801610316565b91505092959194509250565b610397816102ef565b82525050565b5f6020820190506103b05f83018461038e565b92915050565b6080516118d86103f15f395f818161039801528181610475015281816105120152818161088101528181610cd50152610ed901526118d85ff3fe608060405234801561000f575f5ffd5b50600436106100fe575f3560e01c80637499156911610095578063d3921d9c11610064578063d3921d9c1461025e578063d91966a71461027a578063f2fde38b146102aa578063f3fef3a3146102c6576100fe565b806374991569146101ec5780637781daec146102085780638da5cb5b146102245780639b4ee93c14610242576100fe565b806355127dd2116100d157806355127dd21461017857806359f5b242146101945780635e6f6045146101c4578063715018a6146101e2576100fe565b806329f75d3914610102578063313dab201461011e5780633e413bee1461013c578063478dd2fd1461015a575b5f5ffd5b61011c60048036038101906101179190611356565b6102e2565b005b610126610472565b60405161013391906113dc565b60405180910390f35b610144610510565b6040516101519190611450565b60405180910390f35b610162610534565b60405161016f9190611478565b60405180910390f35b610192600480360381019061018d91906114c4565b610559565b005b6101ae60048036038101906101a991906114ef565b610671565b6040516101bb9190611534565b60405180910390f35b6101cc61068e565b6040516101d99190611478565b60405180910390f35b6101ea6106b3565b005b610206600480360381019061020191906114ef565b6106c6565b005b610222600480360381019061021d919061154d565b610754565b005b61022c610917565b6040516102399190611478565b60405180910390f35b61025c600480360381019061025791906114ef565b61093e565b005b610278600480360381019061027391906115b5565b6109cc565b005b610294600480360381019061028f91906116a9565b610adf565b6040516102a191906113dc565b60405180910390f35b6102c460048036038101906102bf91906114ef565b610de1565b005b6102e060048036038101906102db919061154d565b610e65565b005b6102ea610f6f565b5f73ffffffffffffffffffffffffffffffffffffffff1660015f9054906101000a900473ffffffffffffffffffffffffffffffffffffffff1673ffffffffffffffffffffffffffffffffffffffff1603610370576040517fd92e233d00000000000000000000000000000000000000000000000000000000815260040160405180910390fd5b6103dc60015f9054906101000a900473ffffffffffffffffffffffffffffffffffffffff16857f000000000000000000000000000000000000000000000000000000000000000073ffffffffffffffffffffffffffffffffffffffff16610ff69092919063ffffffff16565b60015f9054906101000a900473ffffffffffffffffffffffffffffffffffffffff1673ffffffffffffffffffffffffffffffffffffffff16637366f33c86868686866040518663ffffffff1660e01b815260040161043e959493929190611736565b5f604051808303815f87803b158015610455575f5ffd5b505af1158015610467573d5f5f3e3d5ffd5b505050505050505050565b5f7f000000000000000000000000000000000000000000000000000000000000000073ffffffffffffffffffffffffffffffffffffffff166370a08231306040518263ffffffff1660e01b81526004016104cc9190611478565b602060405180830381865afa1580156104e7573d5f5f3e3d5ffd5b505050506040513d601f19601f8201168201806040525081019061050b919061179b565b905090565b7f000000000000000000000000000000000000000000000000000000000000000081565b60025f9054906101000a900473ffffffffffffffffffffffffffffffffffffffff1681565b610561610f6f565b5f73ffffffffffffffffffffffffffffffffffffffff1660015f9054906101000a900473ffffffffffffffffffffffffffffffffffffffff1673ffffffffffffffffffffffffffffffffffffffff16036105e7576040517fd92e233d00000000000000000000000000000000000000000000000000000000815260040160405180910390fd5b60015f9054906101000a900473ffffffffffffffffffffffffffffffffffffffff1673ffffffffffffffffffffffffffffffffffffffff166355127dd2826040518263ffffffff1660e01b815260040161064191906117d5565b5f604051808303815f87803b158015610658575f5ffd5b505af115801561066a573d5f5f3e3d5ffd5b5050505050565b6003602052805f5260405f205f915054906101000a900460ff1681565b60015f9054906101000a900473ffffffffffffffffffffffffffffffffffffffff1681565b6106bb610f6f565b6106c45f6110a8565b565b6106ce610f6f565b8060015f6101000a81548173ffffffffffffffffffffffffffffffffffffffff021916908373ffffffffffffffffffffffffffffffffffffffff1602179055508073ffffffffffffffffffffffffffffffffffffffff167f5cc1ef5240bc2eaf2d8700ad762816942f83c3049659585c4e09280eeaeacea860405160405180910390a250565b61075c610917565b73ffffffffffffffffffffffffffffffffffffffff163373ffffffffffffffffffffffffffffffffffffffff16141580156107de575060035f3373ffffffffffffffffffffffffffffffffffffffff1673ffffffffffffffffffffffffffffffffffffffff1681526020019081526020015f205f9054906101000a900460ff16155b15610815576040517fabf2717200000000000000000000000000000000000000000000000000000000815260040160405180910390fd5b5f73ffffffffffffffffffffffffffffffffffffffff168273ffffffffffffffffffffffffffffffffffffffff160361087a576040517fd92e233d00000000000000000000000000000000000000000000000000000000815260040160405180910390fd5b6108c582827f000000000000000000000000000000000000000000000000000000000000000073ffffffffffffffffffffffffffffffffffffffff166111699092919063ffffffff16565b8173ffffffffffffffffffffffffffffffffffffffff167f9b6c6e4134955af9a1f3e8b15971cb178c4e5d66c12d51a2dc0f694c6100ef4d8260405161090b91906113dc565b60405180910390a25050565b5f5f5f9054906101000a900473ffffffffffffffffffffffffffffffffffffffff16905090565b610946610f6f565b8060025f6101000a81548173ffffffffffffffffffffffffffffffffffffffff021916908373ffffffffffffffffffffffffffffffffffffffff1602179055508073ffffffffffffffffffffffffffffffffffffffff167ffe43a25022fbd04874ff04ba8dda0407d9713cd2e1e3f9ccf60d5742b36505a760405160405180910390a250565b6109d4610f6f565b5f73ffffffffffffffffffffffffffffffffffffffff168273ffffffffffffffffffffffffffffffffffffffff1603610a39576040517fd92e233d00000000000000000000000000000000000000000000000000000000815260040160405180910390fd5b8060035f8473ffffffffffffffffffffffffffffffffffffffff1673ffffffffffffffffffffffffffffffffffffffff1681526020019081526020015f205f6101000a81548160ff0219169083151502179055508173ffffffffffffffffffffffffffffffffffffffff167fd90b19cc7c3cbc73a9e26a9c40ed1fd674031463ba3a9595d7cc658e276aec2982604051610ad39190611534565b60405180910390a25050565b5f610ae8610917565b73ffffffffffffffffffffffffffffffffffffffff163373ffffffffffffffffffffffffffffffffffffffff1614158015610b6a575060035f3373ffffffffffffffffffffffffffffffffffffffff1673ffffffffffffffffffffffffffffffffffffffff1681526020019081526020015f205f9054906101000a900460ff16155b15610ba1576040517fabf2717200000000000000000000000000000000000000000000000000000000815260040160405180910390fd5b828290508585905014610be0576040517fff633a3800000000000000000000000000000000000000000000000000000000815260040160405180910390fd5b5f5f90505b85859050811015610d9c575f73ffffffffffffffffffffffffffffffffffffffff16868683818110610c1a57610c196117ee565b5b9050602002016020810190610c2f91906114ef565b73ffffffffffffffffffffffffffffffffffffffff1603610c7c576040517fd92e233d00000000000000000000000000000000000000000000000000000000815260040160405180910390fd5b5f848483818110610c9057610c8f6117ee565b5b9050602002013590508083610ca59190611848565b9250610d19878784818110610cbd57610cbc6117ee565b5b9050602002016020810190610cd291906114ef565b827f000000000000000000000000000000000000000000000000000000000000000073ffffffffffffffffffffffffffffffffffffffff166111699092919063ffffffff16565b868683818110610d2c57610d2b6117ee565b5b9050602002016020810190610d4191906114ef565b73ffffffffffffffffffffffffffffffffffffffff167f9b6c6e4134955af9a1f3e8b15971cb178c4e5d66c12d51a2dc0f694c6100ef4d82604051610d8691906113dc565b60405180910390a2508080600101915050610be5565b507fdd6d481326dffa12ece9f1e1d907e9381b6673929951586d8005ea2fbe7a1cb88585905082604051610dd192919061187b565b60405180910390a1949350505050565b610de9610f6f565b5f73ffffffffffffffffffffffffffffffffffffffff168173ffffffffffffffffffffffffffffffffffffffff1603610e59575f6040517f1e4fbdf7000000000000000000000000000000000000000000000000000000008152600401610e509190611478565b60405180910390fd5b610e62816110a8565b50565b610e6d610f6f565b5f73ffffffffffffffffffffffffffffffffffffffff168273ffffffffffffffffffffffffffffffffffffffff1603610ed2576040517fd92e233d00000000000000000000000000000000000000000000000000000000815260040160405180910390fd5b610f1d82827f000000000000000000000000000000000000000000000000000000000000000073ffffffffffffffffffffffffffffffffffffffff166111699092919063ffffffff16565b8173ffffffffffffffffffffffffffffffffffffffff167f233c84dc0c19fbf51f9fa92214ffd8a59f512e0098bff5827455d02e401221c082604051610f6391906113dc565b60405180910390a25050565b610f776111bc565b73ffffffffffffffffffffffffffffffffffffffff16610f95610917565b73ffffffffffffffffffffffffffffffffffffffff1614610ff457610fb86111bc565b6040517f118cdaa7000000000000000000000000000000000000000000000000000000008152600401610feb9190611478565b60405180910390fd5b565b6110028383835f6111c3565b6110a35761101383835f60016111c3565b61105457826040517f5274afe700000000000000000000000000000000000000000000000000000000815260040161104b9190611478565b60405180910390fd5b61106183838360016111c3565b6110a257826040517f5274afe70000000000000000000000000000000000000000000000000000000081526004016110999190611478565b60405180910390fd5b5b505050565b5f5f5f9054906101000a900473ffffffffffffffffffffffffffffffffffffffff169050815f5f6101000a81548173ffffffffffffffffffffffffffffffffffffffff021916908373ffffffffffffffffffffffffffffffffffffffff1602179055508173ffffffffffffffffffffffffffffffffffffffff168173ffffffffffffffffffffffffffffffffffffffff167f8be0079c531659141344cd1fd0a4f28419497f9722a3daafe3b4186f6b6457e060405160405180910390a35050565b6111768383836001611225565b6111b757826040517f5274afe70000000000000000000000000000000000000000000000000000000081526004016111ae9190611478565b60405180910390fd5b505050565b5f33905090565b5f5f63095ea7b360e01b9050604051815f525f1960601c86166004528460245260205f60445f5f8b5af1925060015f5114831661121757838315161561120b573d5f823e3d81fd5b5f873b113d1516831692505b806040525050949350505050565b5f5f63a9059cbb60e01b9050604051815f525f1960601c86166004528460245260205f60445f5f8b5af1925060015f5114831661127957838315161561126d573d5f823e3d81fd5b5f873b113d1516831692505b806040525050949350505050565b5f5ffd5b5f5ffd5b5f73ffffffffffffffffffffffffffffffffffffffff82169050919050565b5f6112b88261128f565b9050919050565b6112c8816112ae565b81146112d2575f5ffd5b50565b5f813590506112e3816112bf565b92915050565b5f819050919050565b6112fb816112e9565b8114611305575f5ffd5b50565b5f81359050611316816112f2565b92915050565b5f64ffffffffff82169050919050565b6113358161131c565b811461133f575f5ffd5b50565b5f813590506113508161132c565b92915050565b5f5f5f5f5f60a0868803121561136f5761136e611287565b5b5f61137c888289016112d5565b955050602061138d88828901611308565b945050604061139e88828901611342565b93505060606113af88828901611342565b92505060806113c088828901611308565b9150509295509295909350565b6113d6816112e9565b82525050565b5f6020820190506113ef5f8301846113cd565b92915050565b5f819050919050565b5f61141861141361140e8461128f565b6113f5565b61128f565b9050919050565b5f611429826113fe565b9050919050565b5f61143a8261141f565b9050919050565b61144a81611430565b82525050565b5f6020820190506114635f830184611441565b92915050565b611472816112ae565b82525050565b5f60208201905061148b5f830184611469565b92915050565b5f819050919050565b6114a381611491565b81146114ad575f5ffd5b50565b5f813590506114be8161149a565b92915050565b5f602082840312156114d9576114d8611287565b5b5f6114e6848285016114b0565b91505092915050565b5f6020828403121561150457611503611287565b5b5f611511848285016112d5565b91505092915050565b5f8115159050919050565b61152e8161151a565b82525050565b5f6020820190506115475f830184611525565b92915050565b5f5f6040838503121561156357611562611287565b5b5f611570858286016112d5565b925050602061158185828601611308565b9150509250929050565b6115948161151a565b811461159e575f5ffd5b50565b5f813590506115af8161158b565b92915050565b5f5f604083850312156115cb576115ca611287565b5b5f6115d8858286016112d5565b92505060206115e9858286016115a1565b9150509250929050565b5f5ffd5b5f5ffd5b5f5ffd5b5f5f83601f840112611614576116136115f3565b5b8235905067ffffffffffffffff811115611631576116306115f7565b5b60208301915083602082028301111561164d5761164c6115fb565b5b9250929050565b5f5f83601f840112611669576116686115f3565b5b8235905067ffffffffffffffff811115611686576116856115f7565b5b6020830191508360208202830111156116a2576116a16115fb565b5b9250929050565b5f5f5f5f604085870312156116c1576116c0611287565b5b5f85013567ffffffffffffffff8111156116de576116dd61128b565b5b6116ea878288016115ff565b9450945050602085013567ffffffffffffffff81111561170d5761170c61128b565b5b61171987828801611654565b925092505092959194509250565b6117308161131c565b82525050565b5f60a0820190506117495f830188611469565b61175660208301876113cd565b6117636040830186611727565b6117706060830185611727565b61177d60808301846113cd565b9695505050505050565b5f81519050611795816112f2565b92915050565b5f602082840312156117b0576117af611287565b5b5f6117bd84828501611787565b91505092915050565b6117cf81611491565b82525050565b5f6020820190506117e85f8301846117c6565b92915050565b7f4e487b71000000000000000000000000000000000000000000000000000000005f52603260045260245ffd5b7f4e487b71000000000000000000000000000000000000000000000000000000005f52601160045260245ffd5b5f611852826112e9565b915061185d836112e9565b92508282019050808211156118755761187461181b565b5b92915050565b5f60408201905061188e5f8301856113cd565b61189b60208301846113cd565b939250505056fea2646970667358221220046fa8e454fc2e0334b38263ccd79743e2b665ba6fe8faf207ac005b59d3245f64736f6c634300081e0033","linkReferences":{}},"methodIdentifiers":{"allocateToVesting(address,uint256,uint40,uint40,uint256)":"29f75d39","batchPayout(address[],uint256[])":"d91966a7","cancelVest(bytes32)":"55127dd2","owner()":"8da5cb5b","payoutExecutors(address)":"59f5b242","rebalanceContract()":"478dd2fd","renounceOwnership()":"715018a6","setPayoutExecutor(address,bool)":"d3921d9c","setRebalanceContract(address)":"9b4ee93c","setVestingContract(address)":"74991569","transferOwnership(address)":"f2fde38b","transferPayroll(address,uint256)":"7781daec","treasuryBalance()":"313dab20","usdc()":"3e413bee","vestingContract()":"5e6f6045","withdraw(address,uint256)":"f3fef3a3"},"id":30}